{"abi":[{"type":"constructor","inputs":[{"name":"_creator","type":"address","internalType":"address"},{"name":"_factory","type":"address","internalType":"address"},{"name":"_mediationKey","type":"address","internalType":"address"},{"name":"_ipfsBountyHash","type":"string","internalType":"string"},{"name":"_milestones","type":"tuple[]","internalType":"struct IDataTypes.MilestoneDefinition[]","components":[{"name":"name","type":"string","internalType":"string"},{"name":"description","type":"string","internalType":"string"},{"name":"value","type":"uint256","internalType":"uint256"},{"name":"expectedCompletionTs","type":"uint256","internalType":"uint256"},{"name":"verificationType","type":"uint8","internalType":"enum IDataTypes.MilestoneVerificationType"},{"name":"state","type":"uint8","internalType":"enum IDataTypes.MilestoneState"},{"name":"ipfsEvidence","type":"string","internalType":"string"},{"name":"signaturesReceived","type":"uint8","internalType":"uint8"},{"name":"signaturesRequired","type":"uint8","internalType":"uint8"},{"name":"rejectionCount","type":"uint8","internalType":"uint8"}]},{"name":"_escrowToken","type":"address","internalType":"address"},{"name":"_visibility","type":"uint8","internalType":"enum IDataTypes.VisibilityMode"},{"name":"_targetCommunities","type":"address[]","internalType":"address[]"},{"name":"_completionPanel","type":"address[]","internalType":"address[]"}],"stateMutability":"nonpayable"},{"type":"function","name":"approveMilestone","inputs":[{"name":"milestoneIndex","type":"uint8","internalType":"uint8"}],"outputs":[],"stateMutability":"nonpayable"},{"type":"function","name":"bidderList","inputs":[{"name":"","type":"uint256","internalType":"uint256"}],"outputs":[{"name":"","type":"address","internalType":"address"}],"stateMutability":"view"},{"type":"function","name":"bids","inputs":[{"name":"","type":"address","internalType":"address"}],"outputs":[{"name":"totalCost","type":"uint256","internalType":"uint256"},{"name":"ipfsBidDocument","type":"string","internalType":"string"},{"name":"proposedTimeline","type":"uint256","internalType":"uint256"},{"name":"methodology","type":"string","internalType":"string"}],"stateMutability":"view"},{"type":"function","name":"castPanelVote","inputs":[{"name":"milestoneIndex","type":"uint8","internalType":"uint8"},{"name":"approved","type":"bool","internalType":"bool"}],"outputs":[],"stateMutability":"nonpayable"},{"type":"function","name":"completionPanel","inputs":[{"name":"","type":"uint256","internalType":"uint256"}],"outputs":[{"name":"","type":"address","internalType":"address"}],"stateMutability":"view"},{"type":"function","name":"creator","inputs":[],"outputs":[{"name":"","type":"address","internalType":"address"}],"stateMutability":"view"},{"type":"function","name":"currentMilestoneIndex","inputs":[],"outputs":[{"name":"","type":"uint8","internalType":"uint8"}],"stateMutability":"view"},{"type":"function","name":"disputeActive","inputs":[],"outputs":[{"name":"","type":"bool","internalType":"bool"}],"stateMutability":"view"},{"type":"function","name":"escrowToken","inputs":[],"outputs":[{"name":"","type":"address","internalType":"address"}],"stateMutability":"view"},{"type":"function","name":"executeMediationRuling","inputs":[{"name":"ruling","type":"tuple","internalType":"struct IDataTypes.MediationRuling","components":[{"name":"contractor","type":"address","internalType":"address"},{"name":"funder","type":"address","internalType":"address"},{"name":"contractorAmount","type":"uint256","internalType":"uint256"},{"name":"funderRefund","type":"uint256","internalType":"uint256"},{"name":"rulingIpfsHash","type":"string","internalType":"string"}]}],"outputs":[],"stateMutability":"nonpayable"},{"type":"function","name":"fundEscrow","inputs":[{"name":"amount","type":"uint256","internalType":"uint256"},{"name":"token","type":"address","internalType":"address"}],"outputs":[],"stateMutability":"nonpayable"},{"type":"function","name":"getEscrowBalance","inputs":[],"outputs":[{"name":"","type":"uint256","internalType":"uint256"}],"stateMutability":"view"},{"type":"function","name":"getMilestones","inputs":[],"outputs":[{"name":"","type":"tuple[]","internalType":"struct IDataTypes.MilestoneDefinition[]","components":[{"name":"name","type":"string","internalType":"string"},{"name":"description","type":"string","internalType":"string"},{"name":"value","type":"uint256","internalType":"uint256"},{"name":"expectedCompletionTs","type":"uint256","internalType":"uint256"},{"name":"verificationType","type":"uint8","internalType":"enum IDataTypes.MilestoneVerificationType"},{"name":"state","type":"uint8","internalType":"enum IDataTypes.MilestoneState"},{"name":"ipfsEvidence","type":"string","internalType":"string"},{"name":"signaturesReceived","type":"uint8","internalType":"uint8"},{"name":"signaturesRequired","type":"uint8","internalType":"uint8"},{"name":"rejectionCount","type":"uint8","internalType":"uint8"}]}],"stateMutability":"view"},{"type":"function","name":"getState","inputs":[],"outputs":[{"name":"","type":"uint8","internalType":"enum IDataTypes.ProjectState"}],"stateMutability":"view"},{"type":"function","name":"ipfsBountyHash","inputs":[],"outputs":[{"name":"","type":"string","internalType":"string"}],"stateMutability":"view"},{"type":"function","name":"mediationKey","inputs":[],"outputs":[{"name":"","type":"address","internalType":"address"}],"stateMutability":"view"},{"type":"function","name":"milestones","inputs":[{"name":"","type":"uint256","internalType":"uint256"}],"outputs":[{"name":"name","type":"string","internalType":"string"},{"name":"description","type":"string","internalType":"string"},{"name":"value","type":"uint256","internalType":"uint256"},{"name":"expectedCompletionTs","type":"uint256","internalType":"uint256"},{"name":"verificationType","type":"uint8","internalType":"enum IDataTypes.MilestoneVerificationType"},{"name":"state","type":"uint8","internalType":"enum IDataTypes.MilestoneState"},{"name":"ipfsEvidence","type":"string","internalType":"string"},{"name":"signaturesReceived","type":"uint8","internalType":"uint8"},{"name":"signaturesRequired","type":"uint8","internalType":"uint8"},{"name":"rejectionCount","type":"uint8","internalType":"uint8"}],"stateMutability":"view"},{"type":"function","name":"panelApprovals","inputs":[],"outputs":[{"name":"","type":"uint8","internalType":"uint8"}],"stateMutability":"view"},{"type":"function","name":"panelRequired","inputs":[],"outputs":[{"name":"","type":"uint8","internalType":"uint8"}],"stateMutability":"view"},{"type":"function","name":"panelVotes","inputs":[{"name":"","type":"address","internalType":"address"}],"outputs":[{"name":"","type":"bool","internalType":"bool"}],"stateMutability":"view"},{"type":"function","name":"paused","inputs":[],"outputs":[{"name":"","type":"bool","internalType":"bool"}],"stateMutability":"view"},{"type":"function","name":"platformFactory","inputs":[],"outputs":[{"name":"","type":"address","internalType":"address"}],"stateMutability":"view"},{"type":"function","name":"raiseDispute","inputs":[{"name":"reason","type":"string","internalType":"string"}],"outputs":[],"stateMutability":"nonpayable"},{"type":"function","name":"selectBid","inputs":[{"name":"contractor","type":"address","internalType":"address"}],"outputs":[],"stateMutability":"nonpayable"},{"type":"function","name":"selectedContractor","inputs":[],"outputs":[{"name":"","type":"address","internalType":"address"}],"stateMutability":"view"},{"type":"function","name":"setPaused","inputs":[{"name":"value","type":"bool","internalType":"bool"}],"outputs":[],"stateMutability":"nonpayable"},{"type":"function","name":"state","inputs":[],"outputs":[{"name":"","type":"uint8","internalType":"enum IDataTypes.ProjectState"}],"stateMutability":"view"},{"type":"function","name":"submitBid","inputs":[{"name":"bid","type":"tuple","internalType":"struct IDataTypes.BidData","components":[{"name":"totalCost","type":"uint256","internalType":"uint256"},{"name":"ipfsBidDocument","type":"string","internalType":"string"},{"name":"proposedTimeline","type":"uint256","internalType":"uint256"},{"name":"methodology","type":"string","internalType":"string"}]}],"outputs":[],"stateMutability":"nonpayable"},{"type":"function","name":"submitMilestoneCompletion","inputs":[{"name":"milestoneIndex","type":"uint8","internalType":"uint8"},{"name":"ipfsEvidence","type":"string","internalType":"string"}],"outputs":[],"stateMutability":"nonpayable"},{"type":"function","name":"targetCommunities","inputs":[{"name":"","type":"uint256","internalType":"uint256"}],"outputs":[{"name":"","type":"address","internalType":"address"}],"stateMutability":"view"},{"type":"function","name":"totalEscrowRequired","inputs":[],"outputs":[{"name":"","type":"uint256","internalType":"uint256"}],"stateMutability":"view"},{"type":"function","name":"visibility","inputs":[],"outputs":[{"name":"","type":"uint8","internalType":"enum IDataTypes.VisibilityMode"}],"stateMutability":"view"},{"type":"event","name":"BidSelected","inputs":[{"name":"contractor","type":"address","indexed":true,"internalType":"address"}],"anonymous":false},{"type":"event","name":"BidSubmitted","inputs":[{"name":"bidder","type":"address","indexed":true,"internalType":"address"},{"name":"amount","type":"uint256","indexed":false,"internalType":"uint256"},{"name":"ipfsBidHash","type":"string","indexed":false,"internalType":"string"}],"anonymous":false},{"type":"event","name":"BountyCompleted","inputs":[{"name":"contractor","type":"address","indexed":true,"internalType":"address"},{"name":"totalPaid","type":"uint256","indexed":false,"internalType":"uint256"}],"anonymous":false},{"type":"event","name":"BountyCreated","inputs":[{"name":"creator","type":"address","indexed":true,"internalType":"address"},{"name":"ipfsHash","type":"string","indexed":false,"internalType":"string"},{"name":"visibility","type":"uint8","indexed":false,"internalType":"enum IDataTypes.VisibilityMode"}],"anonymous":false},{"type":"event","name":"DisputeRaised","inputs":[{"name":"raisedBy","type":"address","indexed":true,"internalType":"address"},{"name":"reason","type":"string","indexed":false,"internalType":"string"}],"anonymous":false},{"type":"event","name":"EscrowFunded","inputs":[{"name":"funder","type":"address","indexed":true,"internalType":"address"},{"name":"amount","type":"uint256","indexed":false,"internalType":"uint256"}],"anonymous":false},{"type":"event","name":"MediationRulingExecuted","inputs":[{"name":"ruling","type":"tuple","indexed":false,"internalType":"struct IDataTypes.MediationRuling","components":[{"name":"contractor","type":"address","internalType":"address"},{"name":"funder","type":"address","internalType":"address"},{"name":"contractorAmount","type":"uint256","internalType":"uint256"},{"name":"funderRefund","type":"uint256","internalType":"uint256"},{"name":"rulingIpfsHash","type":"string","internalType":"string"}]}],"anonymous":false},{"type":"event","name":"MilestoneApproved","inputs":[{"name":"milestoneIndex","type":"uint8","indexed":true,"internalType":"uint8"},{"name":"amountReleased","type":"uint256","indexed":false,"internalType":"uint256"}],"anonymous":false},{"type":"event","name":"MilestoneClaimSubmitted","inputs":[{"name":"milestoneIndex","type":"uint8","indexed":true,"internalType":"uint8"},{"name":"ipfsEvidence","type":"string","indexed":false,"internalType":"string"}],"anonymous":false},{"type":"event","name":"MilestoneRejected","inputs":[{"name":"milestoneIndex","type":"uint8","indexed":true,"internalType":"uint8"}],"anonymous":false},{"type":"error","name":"EscrowFrozen","inputs":[]},{"type":"error","name":"InsufficientMilestoneBalance","inputs":[{"name":"available","type":"uint256","internalType":"uint256"},{"name":"requested","type":"uint256","internalType":"uint256"}]},{"type":"error","name":"InvalidMilestoneIndex","inputs":[]},{"type":"error","name":"InvalidMilestoneValue","inputs":[]},{"type":"error","name":"InvalidRecipient","inputs":[]},{"type":"error","name":"InvalidToken","inputs":[]},{"type":"error","name":"MilestoneNotPending","inputs":[]},{"type":"error","name":"MilestoneNotUnderReview","inputs":[]},{"type":"error","name":"MilestonesAlreadyInitialized","inputs":[]},{"type":"error","name":"NoMilestonesProvided","inputs":[]},{"type":"error","name":"OutOfOrderMilestone","inputs":[{"name":"expected","type":"uint8","internalType":"uint8"},{"name":"received","type":"uint8","internalType":"uint8"}]},{"type":"error","name":"ReentrancyGuardReentrantCall","inputs":[]},{"type":"error","name":"SafeERC20FailedOperation","inputs":[{"name":"token","type":"address","internalType":"address"}]},{"type":"error","name":"ZeroAmount","inputs":[]}],"bytecode":{"object":"0x60c060405234801562000010575f80fd5b506040516200385f3803806200385f8339810160408190526200003391620007c4565b60017f9b779b17422d0df92223018b32b4d1fa46e071723d6817e2486d003becc55f00556001600160a01b0389811660805288811660a0525f80546001600160a01b03191691891691909117905560016200008f87826200095c565b50600280546001600160a01b0386166001600160a01b03198216811783558592916001600160a81b03191617600160a01b836004811115620000d557620000d562000a28565b02179055508151620000ef906003906020850190620003b8565b5080516200010590600f906020840190620003b8565b506002815162000116919062000a3c565b6200012390600162000a5c565b6011805460ff929092166101000261ff00199092169190911790556200014b600486620001b6565b6006555f805460ff60a01b1916600160a11b1790556040516001600160a01b038a16907ffa3e6b306fe3949082f49568118104348788c41ec3b9b4195224b41edb4b142f906200019f908990879062000a82565b60405180910390a250505050505050505062000aee565b81545f9015620001d9576040516395d267d560e01b815260040160405180910390fd5b81515f03620001fb57604051635dfece3f60e01b815260040160405180910390fd5b5f5b8251811015620003b1578281815181106200021c576200021c62000ada565b6020026020010151604001515f03620002485760405163095e05d160e41b815260040160405180910390fd5b838382815181106200025e576200025e62000ada565b60209081029190910181015182546001810184555f9384529190922082516007909202019081906200029190826200095c565b5060208201516001820190620002a890826200095c565b5060408201518160020155606082015181600301556080820151816004015f6101000a81548160ff02191690836002811115620002e957620002e962000a28565b021790555060a082015160048201805461ff00191661010083600381111562000316576200031662000a28565b021790555060c082015160058201906200033190826200095c565b5060e082015160069091018054610100808501516101209095015160ff908116620100000262ff00001996821690920261ffff19909316941693909317179290921617905582518390829081106200038d576200038d62000ada565b60200260200101516040015182620003a6919062000a5c565b9150600101620001fd565b5092915050565b828054828255905f5260205f209081019282156200040e579160200282015b828111156200040e57825182546001600160a01b0319166001600160a01b03909116178255602090920191600190910190620003d7565b506200041c92915062000420565b5090565b5b808211156200041c575f815560010162000421565b80516001600160a01b03811681146200044d575f80fd5b919050565b634e487b7160e01b5f52604160045260245ffd5b60405161014081016001600160401b03811182821017156200048c576200048c62000452565b60405290565b604051601f8201601f191681016001600160401b0381118282101715620004bd57620004bd62000452565b604052919050565b5f5b83811015620004e1578181015183820152602001620004c7565b50505f910152565b5f82601f830112620004f9575f80fd5b81516001600160401b0381111562000515576200051562000452565b6200052a601f8201601f191660200162000492565b8181528460208386010111156200053f575f80fd5b62000552826020830160208701620004c5565b949350505050565b5f6001600160401b0382111562000575576200057562000452565b5060051b60200190565b8051600381106200044d575f80fd5b8051600481106200044d575f80fd5b805160ff811681146200044d575f80fd5b5f82601f830112620005be575f80fd5b81516020620005d7620005d1836200055a565b62000492565b82815260059290921b84018101918181019086841115620005f6575f80fd5b8286015b848110156200073e5780516001600160401b03808211156200061a575f80fd5b90880190610140828b03601f190181131562000634575f80fd5b6200063e62000466565b87840151838111156200064f575f80fd5b6200065f8d8a83880101620004e9565b8252506040808501518481111562000675575f80fd5b620006858e8b83890101620004e9565b8a84015250606080860151828401526080915081860151818401525060a0620006b08187016200057f565b8284015260c09150620006c58287016200058e565b9083015260e08581015185811115620006dc575f80fd5b620006ec8f8c838a0101620004e9565b83850152506101009450620007038587016200059d565b9083015250610120620007188582016200059d565b84830152620007298386016200059d565b908201528652505050918301918301620005fa565b509695505050505050565b8051600581106200044d575f80fd5b5f82601f83011262000768575f80fd5b815160206200077b620005d1836200055a565b8083825260208201915060208460051b8701019350868411156200079d575f80fd5b602086015b848110156200073e57620007b68162000436565b8352918301918301620007a2565b5f805f805f805f805f6101208a8c031215620007de575f80fd5b620007e98a62000436565b9850620007f960208b0162000436565b97506200080960408b0162000436565b60608b01519097506001600160401b038082111562000826575f80fd5b620008348d838e01620004e9565b975060808c01519150808211156200084a575f80fd5b620008588d838e01620005ae565b96506200086860a08d0162000436565b95506200087860c08d0162000749565b945060e08c01519150808211156200088e575f80fd5b6200089c8d838e0162000758565b93506101008c0151915080821115620008b3575f80fd5b50620008c28c828d0162000758565b9150509295985092959850929598565b600181811c90821680620008e757607f821691505b6020821081036200090657634e487b7160e01b5f52602260045260245ffd5b50919050565b601f8211156200095757805f5260205f20601f840160051c81016020851015620009335750805b601f840160051c820191505b8181101562000954575f81556001016200093f565b50505b505050565b81516001600160401b0381111562000978576200097862000452565b6200099081620009898454620008d2565b846200090c565b602080601f831160018114620009c6575f8415620009ae5750858301515b5f19600386901b1c1916600185901b17855562000a20565b5f85815260208120601f198616915b82811015620009f657888601518255948401946001909101908401620009d5565b508582101562000a1457878501515f19600388901b60f8161c191681555b505060018460011b0185555b505050505050565b634e487b7160e01b5f52602160045260245ffd5b5f8262000a5757634e487b7160e01b5f52601260045260245ffd5b500490565b8082018082111562000a7c57634e487b7160e01b5f52601160045260245ffd5b92915050565b604081525f835180604084015262000aa2816060850160208801620004c5565b601f01601f1916820160600190506005831062000acd57634e487b7160e01b5f52602160045260245ffd5b8260208301529392505050565b634e487b7160e01b5f52603260045260245ffd5b60805160a051612d2c62000b335f395f81816103de01526107fb01525f81816101f001528181610e1701528181610f76015281816110ec01526114140152612d2c5ff3fe608060405234801561000f575f80fd5b50600436106101e7575f3560e01c806392d36a7111610109578063b6d6755c1161009e578063d3584e841161006e578063d3584e841461048c578063d7ff09e41461049f578063e2f829e9146104b2578063e89e4ed6146104c5575f80fd5b8063b6d6755c1461044b578063c19d93fb1461045e578063c56e610e14610471578063c662900514610479575f80fd5b8063a0f97cf0116100d9578063a0f97cf014610400578063a23410de1461040d578063aaccfafe1461041f578063aad92b5614610434575f80fd5b806392d36a711461039157806394a43d16146103b357806398b474b8146103c65780639f0972c4146103d9575f80fd5b80634b132b0a1161017f57806371034cfc1161014f57806371034cfc14610346578063725a3b4b1461035957806375efbc8c1461036c57806392c5466d1461037e575f80fd5b80634b132b0a146102cb5780635c975abb146102ea578063629e4ed01461030e57806362ea82db14610323575f80fd5b80631865c57d116101ba5780631865c57d1461026a57806329adec14146102845780632b0fda87146102a55780632fe319da146102b8575f80fd5b806302d05d3f146101eb5780630e5613d71461022f57806314e8820f1461024457806316c38b3c14610257575b5f80fd5b6102127f000000000000000000000000000000000000000000000000000000000000000081565b6040516001600160a01b0390911681526020015b60405180910390f35b61024261023d366004612381565b6104ee565b005b6102426102523660046123e6565b610650565b61024261026536600461241f565b6107f0565b5f54600160a01b900460ff165b6040516102269190612453565b60025461029890600160a01b900460ff1681565b604051610226919061246d565b6102126102b3366004612481565b610875565b600254610212906001600160a01b031681565b6011546102d89060ff1681565b60405160ff9091168152602001610226565b6011546102fe906301000000900460ff1681565b6040519015158152602001610226565b61031661089d565b60405161022691906124ff565b610336610331366004612612565b610b5b565b604051610226949392919061262b565b610242610354366004612666565b610c8f565b61024261036736600461268e565b610f41565b6011546102d890610100900460ff1681565b6011546102fe9062010000900460ff1681565b6102fe61039f366004612612565b60106020525f908152604090205460ff1681565b6102126103c1366004612481565b6110d2565b6102426103d4366004612612565b6110e1565b6102127f000000000000000000000000000000000000000000000000000000000000000081565b6005546102d89060ff1681565b5f54610212906001600160a01b031681565b61042761130e565b60405161022691906126cd565b61043d60065481565b604051908152602001610226565b600e54610212906001600160a01b031681565b5f5461027790600160a01b900460ff1681565b61043d61139a565b6102426104873660046126df565b611409565b61021261049a366004612481565b6115c2565b6102426104ad3660046126f8565b6115d1565b6102426104c036600461272f565b611752565b6104d86104d3366004612481565b6119ac565b6040516102269a99989796959493929190612766565b600e546001600160a01b0316331461053f5760405162461bcd60e51b815260206004820152600f60248201526e27b7363c9031b7b73a3930b1ba37b960891b60448201526064015b60405180910390fd5b6011546301000000900460ff16156105695760405162461bcd60e51b8152600401610536906127f3565b60045f54600160a01b900460ff16600b8111156105885761058861243f565b146105c25760405162461bcd60e51b815260206004820152600a6024820152694e6f742061637469766560b01b6044820152606401610536565b600554604080516020601f850181900481028201810190925283815261060e9260ff169186919086908690819084018382808284375f920191909152506004959493925050611bb19050565b8260ff167f9ae0a057a578d5e5782a3167f625c2000612c3bdb6bd2832eddf7af6ba540cd1838360405161064392919061283b565b60405180910390a2505050565b610658611cc7565b6011546301000000900460ff16156106825760405162461bcd60e51b8152600401610536906127f3565b60035f54600160a01b900460ff16600b8111156106a1576106a161243f565b146106e55760405162461bcd60e51b81526020600482015260146024820152734e6f7420696e206177617264656420737461746560601b6044820152606401610536565b6002546001600160a01b038281169116146107305760405162461bcd60e51b815260206004820152600b60248201526a2bb937b733903a37b5b2b760a91b6044820152606401610536565b60065482146107815760405162461bcd60e51b815260206004820152601760248201527f416d6f756e74206d757374206d6174636820746f74616c0000000000000000006044820152606401610536565b61078d60078383611ce2565b5f8054600160a21b60ff60a01b1990911617905560405182815233907f511c3b325f63024e6754176648b89f4bab878b1712366d9bf3729c501dcbad799060200160405180910390a26107ec60015f80516020612cd783398151915255565b5050565b336001600160a01b037f000000000000000000000000000000000000000000000000000000000000000016146108575760405162461bcd60e51b815260206004820152600c60248201526b4f6e6c7920666163746f727960a01b6044820152606401610536565b6011805491151563010000000263ff00000019909216919091179055565b600f8181548110610884575f80fd5b5f918252602090912001546001600160a01b0316905081565b60606004805480602002602001604051908101604052809291908181526020015f905b82821015610b52578382905f5260205f209060070201604051806101400160405290815f820180546108f19061284e565b80601f016020809104026020016040519081016040528092919081815260200182805461091d9061284e565b80156109685780601f1061093f57610100808354040283529160200191610968565b820191905f5260205f20905b81548152906001019060200180831161094b57829003601f168201915b505050505081526020016001820180546109819061284e565b80601f01602080910402602001604051908101604052809291908181526020018280546109ad9061284e565b80156109f85780601f106109cf576101008083540402835291602001916109f8565b820191905f5260205f20905b8154815290600101906020018083116109db57829003601f168201915b5050509183525050600282810154602083015260038301546040830152600483015460609092019160ff1690811115610a3357610a3361243f565b6002811115610a4457610a4461243f565b81526020016004820160019054906101000a900460ff166003811115610a6c57610a6c61243f565b6003811115610a7d57610a7d61243f565b8152602001600582018054610a919061284e565b80601f0160208091040260200160405190810160405280929190818152602001828054610abd9061284e565b8015610b085780601f10610adf57610100808354040283529160200191610b08565b820191905f5260205f20905b815481529060010190602001808311610aeb57829003601f168201915b50505091835250506006919091015460ff808216602080850191909152610100830482166040850152620100009092041660609092019190915290825260019290920191016108c0565b50505050905090565b600d6020525f908152604090208054600182018054919291610b7c9061284e565b80601f0160208091040260200160405190810160405280929190818152602001828054610ba89061284e565b8015610bf35780601f10610bca57610100808354040283529160200191610bf3565b820191905f5260205f20905b815481529060010190602001808311610bd657829003601f168201915b505050505090806002015490806003018054610c0e9061284e565b80601f0160208091040260200160405190810160405280929190818152602001828054610c3a9061284e565b8015610c855780601f10610c5c57610100808354040283529160200191610c85565b820191905f5260205f20905b815481529060010190602001808311610c6857829003601f168201915b5050505050905084565b6011546301000000900460ff1615610cb95760405162461bcd60e51b8152600401610536906127f3565b600160048360ff1681548110610cd157610cd1612886565b905f5260205f20906007020160040160019054906101000a900460ff166003811115610cff57610cff61243f565b14610d3f5760405162461bcd60e51b815260206004820152601060248201526f4e6f7420756e6465722072657669657760801b6044820152606401610536565b6004545f90610d50906001906128ae565b8360ff1614905080610db05760405162461bcd60e51b815260206004820152602360248201527f50616e656c20766f7465206f6e6c7920666f722066696e616c206d696c6573746044820152626f6e6560e81b6064820152608401610536565b5f805b600f54811015610e0457336001600160a01b0316600f8281548110610dda57610dda612886565b5f918252602090912001546001600160a01b031603610dfc5760019150610e04565b600101610db3565b508080610e395750336001600160a01b037f000000000000000000000000000000000000000000000000000000000000000016145b610e855760405162461bcd60e51b815260206004820152601b60248201527f4e6f7420617574686f72697a65642070616e656c206d656d62657200000000006044820152606401610536565b335f9081526010602052604090205460ff1615610ed45760405162461bcd60e51b815260206004820152600d60248201526c105b1c9958591e481d9bdd1959609a1b6044820152606401610536565b335f908152601060205260409020805460ff191660011790558215610f1f576011805460ff16905f610f05836128c1565b91906101000a81548160ff021916908360ff160217905550505b60115460ff61010082048116911610610f3b57610f3b84611d80565b50505050565b6011546301000000900460ff1615610f6b5760405162461bcd60e51b8152600401610536906127f3565b336001600160a01b037f0000000000000000000000000000000000000000000000000000000000000000161480610fac5750600e546001600160a01b031633145b610fe75760405162461bcd60e51b815260206004820152600c60248201526b155b985d5d1a1bdc9a5e995960a21b6044820152606401610536565b60115462010000900460ff16156110395760405162461bcd60e51b81526020600482015260166024820152754469737075746520616c72656164792061637469766560501b6044820152606401610536565b6011805462ff000019166201000017905560085f54600160a01b900460ff16600b8111156110695761106961243f565b1461108b576110786007611ede565b5f805460ff60a01b1916600960a01b1790555b336001600160a01b03167f28b099eb575e23e32becd7c30dc8f9b2f98e370cdbf9841ea3338d9000402a2583836040516110c692919061283b565b60405180910390a25050565b60038181548110610884575f80fd5b336001600160a01b037f000000000000000000000000000000000000000000000000000000000000000016146111485760405162461bcd60e51b815260206004820152600c60248201526b27b7363c9031b932b0ba37b960a11b6044820152606401610536565b6011546301000000900460ff16156111725760405162461bcd60e51b8152600401610536906127f3565b60025f54600160a01b900460ff16600b8111156111915761119161243f565b146111d55760405162461bcd60e51b81526020600482015260146024820152734e6f7420696e2062696464696e6720706861736560601b6044820152606401610536565b6001600160a01b0381165f908152600d60205260409020546112325760405162461bcd60e51b81526020600482015260166024820152752737903134b210333937b69031b7b73a3930b1ba37b960511b6044820152606401610536565b6001600160a01b0381165f908152600d602052604090205460065481146112a75760405162461bcd60e51b815260206004820152602360248201527f4d696c6573746f6e65732073756d206d75737420657175616c2062696420746f6044820152621d185b60ea1b6064820152608401610536565b6112b360076004611efe565b600e80546001600160a01b0319166001600160a01b0384169081179091555f805460ff60a01b1916600360a01b1781556040517f539d6d52620716a746d26d7d56d87f5be5da5e396d1e8762d75324ed5608d5be9190a25050565b6001805461131b9061284e565b80601f01602080910402602001604051908101604052809291908181526020018280546113479061284e565b80156113925780601f1061136957610100808354040283529160200191611392565b820191905f5260205f20905b81548152906001019060200180831161137557829003601f168201915b505050505081565b6002546040516370a0823160e01b81523060048201525f916001600160a01b0316906370a0823190602401602060405180830381865afa1580156113e0573d5f803e3d5ffd5b505050506040513d601f19601f8201168201806040525081019061140491906128df565b905090565b336001600160a01b037f000000000000000000000000000000000000000000000000000000000000000016146114705760405162461bcd60e51b815260206004820152600c60248201526b27b7363c9031b932b0ba37b960a11b6044820152606401610536565b6011546301000000900460ff161561149a5760405162461bcd60e51b8152600401610536906127f3565b600160048260ff16815481106114b2576114b2612886565b905f5260205f20906007020160040160019054906101000a900460ff1660038111156114e0576114e061243f565b146115205760405162461bcd60e51b815260206004820152601060248201526f4e6f7420756e6465722072657669657760801b6044820152606401610536565b6004545f90611531906001906128ae565b8260ff161490508080156115465750600f5415155b156115b95760405162461bcd60e51b815260206004820152603760248201527f46696e616c206d696c6573746f6e652072657175697265732070616e656c207660448201527f6f7465202d20757365206361737450616e656c566f74650000000000000000006064820152608401610536565b6107ec82611d80565b600c8181548110610884575f80fd5b6011546301000000900460ff16156115fb5760405162461bcd60e51b8152600401610536906127f3565b60025f54600160a01b900460ff16600b81111561161a5761161a61243f565b1461165e5760405162461bcd60e51b81526020600482015260146024820152734e6f7420696e2062696464696e6720706861736560601b6044820152606401610536565b335f908152600d6020526040902054156116a85760405162461bcd60e51b815260206004820152600b60248201526a105b1c9958591e48189a5960aa1b6044820152606401610536565b335f908152600d6020526040902081906116c28282612a61565b5050600c80546001810182555f919091527fdf6966c971051c3d54ec59162606531493a51404a002842f56009d7e5cf4a8c70180546001600160a01b031916339081179091557f3eb2fab71a1de5753e125aa7b47368bd108ec2bff6e86e69cb009d365ba2f271823561173860208501856128f6565b60405161174793929190612b51565b60405180910390a250565b5f546001600160a01b031633146117a05760405162461bcd60e51b81526020600482015260126024820152714f6e6c79206d6564696174696f6e206b657960701b6044820152606401610536565b6117a8611cc7565b6011546301000000900460ff16156117d25760405162461bcd60e51b8152600401610536906127f3565b60095f54600160a01b900460ff16600b8111156117f1576117f161243f565b1461182d5760405162461bcd60e51b815260206004820152600c60248201526b139bdd08191a5cdc1d5d195960a21b6044820152606401610536565b600a5460ff161561184757600a805460ff191690555f6009555b5f6118526007611f61565b90508061186760608401356040850135612b73565b11156118a75760405162461bcd60e51b815260206004820152600f60248201526e457863656564732062616c616e636560881b6044820152606401610536565b6040820135156118f6576118d86118c16020840184612612565b6002546001600160a01b0316906040850135611f79565b816040013560076001015f8282546118f09190612b73565b90915550505b6060820135156119485761192a6119136040840160208501612612565b6002546001600160a01b0316906060850135611f79565b816060013560076001015f8282546119429190612b73565b90915550505b5f805460ff60a01b1916600160a31b1790556040517fe436ee66933591ba98dbaeefbf5d8b5417d262e074bcd78323bf2b341df60ce09061198a908490612b86565b60405180910390a1506119a960015f80516020612cd783398151915255565b50565b600481815481106119bb575f80fd5b905f5260205f2090600702015f91509050805f0180546119da9061284e565b80601f0160208091040260200160405190810160405280929190818152602001828054611a069061284e565b8015611a515780601f10611a2857610100808354040283529160200191611a51565b820191905f5260205f20905b815481529060010190602001808311611a3457829003601f168201915b505050505090806001018054611a669061284e565b80601f0160208091040260200160405190810160405280929190818152602001828054611a929061284e565b8015611add5780601f10611ab457610100808354040283529160200191611add565b820191905f5260205f20905b815481529060010190602001808311611ac057829003601f168201915b505050506002830154600384015460048501546005860180549596939592945060ff808316946101009093041692611b149061284e565b80601f0160208091040260200160405190810160405280929190818152602001828054611b409061284e565b8015611b8b5780601f10611b6257610100808354040283529160200191611b8b565b820191905f5260205f20905b815481529060010190602001808311611b6e57829003601f168201915b5050506006909301549192505060ff80821691610100810482169162010000909104168a565b835460ff831610611bd55760405163fdf4d87360e01b815260040160405180910390fd5b8260ff168260ff1614611c085760405163cb0ca13760e01b815260ff808516600483015283166024820152604401610536565b5f848360ff1681548110611c1e57611c1e612886565b5f9182526020822060079091020191506004820154610100900460ff166003811115611c4c57611c4c61243f565b14158015611c78575060036004820154610100900460ff166003811115611c7557611c7561243f565b14155b15611c96576040516323a244ef60e11b815260040160405180910390fd5b60058101611ca48382612c1f565b5060048101805461ff001916610100179055600601805460ff1916905550505050565b611ccf611fae565b60025f80516020612cd783398151915255565b600383015460ff1615611d08576040516350fab9ad60e11b815260040160405180910390fd5b6001600160a01b038116611d2f5760405163c1ab6dc160e01b815260040160405180910390fd5b815f03611d4f57604051631f2a200560e01b815260040160405180910390fd5b611d646001600160a01b038216333085611fdf565b81835f015f828254611d769190612b73565b9091555050505050565b611d88611cc7565b5f611d94600483612015565b90505f60048360ff1681548110611dad57611dad612886565b905f5260205f2090600702016002015490505f811115611dea57600e54600254611dea9160079186916001600160a01b03908116918691166120c2565b8260ff167f901f24c69afb39b52c17635c2cc653ae1ec05ac6153a26afa09b6e2006d6cadf82604051611e1f91815260200190565b60405180910390a26005805460ff16905f611e39836128c1565b91906101000a81548160ff021916908360ff160217905550508115611eb3575f805460ff60a01b1916600160a31b179055600e5460065460408051918252516001600160a01b03909216917fc4f6aa56c2c45f706ff58d9582f241d2ed8302b3ece6eb8104e55e86cd36b10e9181900360200190a2611ec6565b5f805460ff60a01b1916600160a21b1790555b50506119a960015f80516020612cd783398151915255565b60038101805460ff19166001179055611ef681611f61565b600290910155565b5f5b815460ff82161015611f5c57818160ff1681548110611f2157611f21612886565b5f91825260208083206002600790930201919091015460ff841683526004860190915260409091205580611f54816128c1565b915050611f00565b505050565b600181015481545f91611f73916128ae565b92915050565b611f8683838360016121ec565b611f5c57604051635274afe760e01b81526001600160a01b0384166004820152602401610536565b5f80516020612cd783398151915254600203611fdd57604051633ee5aeb560e01b815260040160405180910390fd5b565b611fed84848484600161224e565b610f3b57604051635274afe760e01b81526001600160a01b0385166004820152602401610536565b81545f9060ff83161061203b5760405163fdf4d87360e01b815260040160405180910390fd5b5f838360ff168154811061205157612051612886565b5f9182526020909120600790910201905060016004820154610100900460ff1660038111156120825761208261243f565b146120a057604051630ca5937360e41b815260040160405180910390fd5b60048101805461ff0019166102001790556120ba846122bb565b949350505050565b600385015460ff16156120e8576040516350fab9ad60e11b815260040160405180910390fd5b6001600160a01b03831661210f57604051634e46966960e11b815260040160405180910390fd5b6001600160a01b0381166121365760405163c1ab6dc160e01b815260040160405180910390fd5b815f0361215657604051631f2a200560e01b815260040160405180910390fd5b60ff84165f908152600486016020526040902054828110156121955760405163486235f760e11b81526004810182905260248101849052604401610536565b61219f83826128ae565b60ff86165f9081526004880160205260408120919091556001870180548592906121ca908490612b73565b909155506121e490506001600160a01b0383168585611f79565b505050505050565b60405163a9059cbb60e01b5f8181526001600160a01b038616600452602485905291602083604481808b5af1925060015f51148316612242578383151615612236573d5f823e3d81fd5b5f873b113d1516831692505b60405250949350505050565b6040516323b872dd60e01b5f8181526001600160a01b038781166004528616602452604485905291602083606481808c5af1925060015f511483166122aa57838315161561229e573d5f823e3d81fd5b5f883b113d1516831692505b604052505f60605295945050505050565b5f805b825481101561231e5760028382815481106122db576122db612886565b905f5260205f20906007020160040160019054906101000a900460ff1660038111156123095761230961243f565b1461231657505f92915050565b6001016122be565b50600192915050565b803560ff81168114612337575f80fd5b919050565b5f8083601f84011261234c575f80fd5b50813567ffffffffffffffff811115612363575f80fd5b60208301915083602082850101111561237a575f80fd5b9250929050565b5f805f60408486031215612393575f80fd5b61239c84612327565b9250602084013567ffffffffffffffff8111156123b7575f80fd5b6123c38682870161233c565b9497909650939450505050565b80356001600160a01b0381168114612337575f80fd5b5f80604083850312156123f7575f80fd5b82359150612407602084016123d0565b90509250929050565b80358015158114612337575f80fd5b5f6020828403121561242f575f80fd5b61243882612410565b9392505050565b634e487b7160e01b5f52602160045260245ffd5b60208101600c83106124675761246761243f565b91905290565b60208101600583106124675761246761243f565b5f60208284031215612491575f80fd5b5035919050565b5f81518084525f5b818110156124bc576020818501810151868301820152016124a0565b505f602082860101526020601f19601f83011685010191505092915050565b600381106124eb576124eb61243f565b9052565b600481106124eb576124eb61243f565b5f60208083018184528085518083526040925060408601915060408160051b8701018488015f5b8381101561260457603f198984030185528151610140815181865261254d82870182612498565b915050888201518582038a8701526125658282612498565b9150508782015188860152606080830151818701525060808083015161258d828801826124db565b505060a0808301516125a1828801826124ef565b505060c080830151868303828801526125ba8382612498565b9250505060e0808301516125d28288018260ff169052565b50506101008281015160ff90811691870191909152610120928301511691909401529386019390860190600101612526565b509098975050505050505050565b5f60208284031215612622575f80fd5b612438826123d0565b848152608060208201525f6126436080830186612498565b846040840152828103606084015261265b8185612498565b979650505050505050565b5f8060408385031215612677575f80fd5b61268083612327565b915061240760208401612410565b5f806020838503121561269f575f80fd5b823567ffffffffffffffff8111156126b5575f80fd5b6126c18582860161233c565b90969095509350505050565b602081525f6124386020830184612498565b5f602082840312156126ef575f80fd5b61243882612327565b5f60208284031215612708575f80fd5b813567ffffffffffffffff81111561271e575f80fd5b820160808185031215612438575f80fd5b5f6020828403121561273f575f80fd5b813567ffffffffffffffff811115612755575f80fd5b820160a08185031215612438575f80fd5b5f6101408083526127798184018e612498565b9050828103602084015261278d818d612498565b90508a60408401528960608401526127a8608084018a6124db565b6127b560a08401896124ef565b82810360c08401526127c78188612498565b60ff96871660e08501529486166101008401525050921661012090920191909152979650505050505050565b60208082526006908201526514185d5cd95960d21b604082015260600190565b81835281816020850137505f828201602090810191909152601f909101601f19169091010190565b602081525f6120ba602083018486612813565b600181811c9082168061286257607f821691505b60208210810361288057634e487b7160e01b5f52602260045260245ffd5b50919050565b634e487b7160e01b5f52603260045260245ffd5b634e487b7160e01b5f52601160045260245ffd5b81810381811115611f7357611f7361289a565b5f60ff821660ff81036128d6576128d661289a565b60010192915050565b5f602082840312156128ef575f80fd5b5051919050565b5f808335601e1984360301811261290b575f80fd5b83018035915067ffffffffffffffff821115612925575f80fd5b60200191503681900382131561237a575f80fd5b634e487b7160e01b5f52604160045260245ffd5b601f821115611f5c57805f5260205f20601f840160051c810160208510156129725750805b601f840160051c820191505b81811015612991575f815560010161297e565b5050505050565b5f19600383901b1c191660019190911b1790565b67ffffffffffffffff8311156129c4576129c4612939565b6129d8836129d2835461284e565b8361294d565b5f601f841160018114612a04575f85156129f25750838201355b6129fc8682612998565b845550612991565b5f83815260208120601f198716915b82811015612a335786850135825560209485019460019092019101612a13565b5086821015612a4f575f1960f88860031b161c19848701351681555b505060018560011b0183555050505050565b8135815560018082016020612a7960208601866128f6565b67ffffffffffffffff811115612a9157612a91612939565b612aa581612a9f865461284e565b8661294d565b5f601f821160018114612ad1575f8315612abf5750838201355b612ac98482612998565b875550612b25565b5f86815260208120601f198516915b82811015612afd5786850135825593870193908901908701612ae0565b5084821015612b19575f1960f88660031b161c19848701351681555b505060018360011b0186555b5050505050505060408201356002820155612b4360608301836128f6565b610f3b8183600386016129ac565b838152604060208201525f612b6a604083018486612813565b95945050505050565b80820180821115611f7357611f7361289a565b602081525f6001600160a01b0380612b9d856123d0565b16602084015280612bb0602086016123d0565b1660408401525060408301356060830152606083013560808301526080830135601e19843603018112612be1575f80fd5b830160208101903567ffffffffffffffff811115612bfd575f80fd5b803603821315612c0b575f80fd5b60a080850152612b6a60c085018284612813565b815167ffffffffffffffff811115612c3957612c39612939565b612c4d81612c47845461284e565b8461294d565b602080601f831160018114612c7b575f8415612c695750858301515b612c738582612998565b8655506121e4565b5f85815260208120601f198616915b82811015612ca957888601518255948401946001909101908401612c8a565b5085821015612cc657878501515f19600388901b60f8161c191681555b5050505050600190811b0190555056fe9b779b17422d0df92223018b32b4d1fa46e071723d6817e2486d003becc55f00a264697066735822122094cb7b7ad80a970901da4921e06db860db4361f12d7323a40c951a012cbd00ba64736f6c63430008180033","linkReferences":{}},"methodIdentifiers":{"approveMilestone(uint8)":"c6629005","bidderList(uint256)":"d3584e84","bids(address)":"62ea82db","castPanelVote(uint8,bool)":"71034cfc","completionPanel(uint256)":"2b0fda87","creator()":"02d05d3f","currentMilestoneIndex()":"a0f97cf0","disputeActive()":"92c5466d","escrowToken()":"2fe319da","executeMediationRuling((address,address,uint256,uint256,string))":"e2f829e9","fundEscrow(uint256,address)":"14e8820f","getEscrowBalance()":"c56e610e","getMilestones()":"629e4ed0","getState()":"1865c57d","ipfsBountyHash()":"aaccfafe","mediationKey()":"a23410de","milestones(uint256)":"e89e4ed6","panelApprovals()":"4b132b0a","panelRequired()":"75efbc8c","panelVotes(address)":"92d36a71","paused()":"5c975abb","platformFactory()":"9f0972c4","raiseDispute(string)":"725a3b4b","selectBid(address)":"98b474b8","selectedContractor()":"b6d6755c","setPaused(bool)":"16c38b3c","state()":"c19d93fb","submitBid((uint256,string,uint256,string))":"d7ff09e4","submitMilestoneCompletion(uint8,string)":"0e5613d7","targetCommunities(uint256)":"94a43d16","totalEscrowRequired()":"aad92b56","visibility()":"29adec14"},"id":48}