{"abi":[{"type":"constructor","inputs":[{"name":"_mediationKey","type":"address","internalType":"address"}],"stateMutability":"nonpayable"},{"type":"function","name":"deployBounty","inputs":[{"name":"ipfsBountyHash","type":"string","internalType":"string"},{"name":"milestones","type":"tuple[]","internalType":"struct IDataTypes.MilestoneDefinition[]","components":[{"name":"name","type":"string","internalType":"string"},{"name":"description","type":"string","internalType":"string"},{"name":"value","type":"uint256","internalType":"uint256"},{"name":"expectedCompletionTs","type":"uint256","internalType":"uint256"},{"name":"verificationType","type":"uint8","internalType":"enum IDataTypes.MilestoneVerificationType"},{"name":"state","type":"uint8","internalType":"enum IDataTypes.MilestoneState"},{"name":"ipfsEvidence","type":"string","internalType":"string"},{"name":"signaturesReceived","type":"uint8","internalType":"uint8"},{"name":"signaturesRequired","type":"uint8","internalType":"uint8"},{"name":"rejectionCount","type":"uint8","internalType":"uint8"}]},{"name":"escrowToken","type":"address","internalType":"address"},{"name":"visibility","type":"uint8","internalType":"enum IDataTypes.VisibilityMode"},{"name":"targetCommunities","type":"address[]","internalType":"address[]"}],"outputs":[{"name":"bountyContract","type":"address","internalType":"address"}],"stateMutability":"nonpayable"},{"type":"function","name":"deployCommunity","inputs":[{"name":"name","type":"string","internalType":"string"},{"name":"councilConfig","type":"tuple","internalType":"struct IDataTypes.CouncilConfig","components":[{"name":"signers","type":"address[]","internalType":"address[]"},{"name":"threshold","type":"uint8","internalType":"uint8"}]},{"name":"governanceParams","type":"tuple","internalType":"struct IDataTypes.GovernanceParams","components":[{"name":"proposalApprovalThreshold","type":"uint256","internalType":"uint256"},{"name":"proposalVotingWindow","type":"uint256","internalType":"uint256"},{"name":"completionVoteWindow","type":"uint256","internalType":"uint256"},{"name":"bidWindow","type":"uint256","internalType":"uint256"},{"name":"councilReviewWindow","type":"uint256","internalType":"uint256"},{"name":"tier1Threshold","type":"uint256","internalType":"uint256"},{"name":"tier2Threshold","type":"uint256","internalType":"uint256"},{"name":"minMembers","type":"uint256","internalType":"uint256"},{"name":"portionGrantMaxPercent","type":"uint8","internalType":"uint8"},{"name":"verificationMode","type":"uint8","internalType":"enum IDataTypes.MembershipVerificationMode"}]}],"outputs":[{"name":"communityRegistry","type":"address","internalType":"address"}],"stateMutability":"nonpayable"},{"type":"function","name":"deployedBounties","inputs":[{"name":"","type":"uint256","internalType":"uint256"}],"outputs":[{"name":"","type":"address","internalType":"address"}],"stateMutability":"view"},{"type":"function","name":"deployedCommunities","inputs":[{"name":"","type":"uint256","internalType":"uint256"}],"outputs":[{"name":"","type":"address","internalType":"address"}],"stateMutability":"view"},{"type":"function","name":"getAllCommunities","inputs":[],"outputs":[{"name":"","type":"address[]","internalType":"address[]"}],"stateMutability":"view"},{"type":"function","name":"getBountyCount","inputs":[],"outputs":[{"name":"","type":"uint256","internalType":"uint256"}],"stateMutability":"view"},{"type":"function","name":"getCommunityCount","inputs":[],"outputs":[{"name":"","type":"uint256","internalType":"uint256"}],"stateMutability":"view"},{"type":"function","name":"isBountyContract","inputs":[{"name":"","type":"address","internalType":"address"}],"outputs":[{"name":"","type":"bool","internalType":"bool"}],"stateMutability":"view"},{"type":"function","name":"isCommunity","inputs":[{"name":"","type":"address","internalType":"address"}],"outputs":[{"name":"","type":"bool","internalType":"bool"}],"stateMutability":"view"},{"type":"function","name":"mediationKey","inputs":[],"outputs":[{"name":"","type":"address","internalType":"address"}],"stateMutability":"view"},{"type":"function","name":"mintPlatformNFT","inputs":[{"name":"user","type":"address","internalType":"address"},{"name":"handle","type":"string","internalType":"string"}],"outputs":[{"name":"","type":"uint256","internalType":"uint256"}],"stateMutability":"nonpayable"},{"type":"function","name":"nftRegistry","inputs":[],"outputs":[{"name":"","type":"address","internalType":"contract PlatformNFTRegistry"}],"stateMutability":"view"},{"type":"function","name":"owner","inputs":[],"outputs":[{"name":"","type":"address","internalType":"address"}],"stateMutability":"view"},{"type":"function","name":"pause","inputs":[],"outputs":[],"stateMutability":"nonpayable"},{"type":"function","name":"paused","inputs":[],"outputs":[{"name":"","type":"bool","internalType":"bool"}],"stateMutability":"view"},{"type":"function","name":"renounceOwnership","inputs":[],"outputs":[],"stateMutability":"nonpayable"},{"type":"function","name":"setMediationKey","inputs":[{"name":"key","type":"address","internalType":"address"}],"outputs":[],"stateMutability":"nonpayable"},{"type":"function","name":"setNFTRegistry","inputs":[{"name":"registry","type":"address","internalType":"address"}],"outputs":[],"stateMutability":"nonpayable"},{"type":"function","name":"transferOwnership","inputs":[{"name":"newOwner","type":"address","internalType":"address"}],"outputs":[],"stateMutability":"nonpayable"},{"type":"function","name":"unpause","inputs":[],"outputs":[],"stateMutability":"nonpayable"},{"type":"event","name":"BountyDeployed","inputs":[{"name":"bountyContract","type":"address","indexed":true,"internalType":"address"},{"name":"creator","type":"address","indexed":true,"internalType":"address"}],"anonymous":false},{"type":"event","name":"CommunityDeployed","inputs":[{"name":"communityRegistry","type":"address","indexed":true,"internalType":"address"},{"name":"founder","type":"address","indexed":true,"internalType":"address"},{"name":"name","type":"string","indexed":false,"internalType":"string"}],"anonymous":false},{"type":"event","name":"MediationKeyUpdated","inputs":[{"name":"newKey","type":"address","indexed":true,"internalType":"address"}],"anonymous":false},{"type":"event","name":"NFTRegistrySet","inputs":[{"name":"registry","type":"address","indexed":true,"internalType":"address"}],"anonymous":false},{"type":"event","name":"OwnershipTransferred","inputs":[{"name":"previousOwner","type":"address","indexed":true,"internalType":"address"},{"name":"newOwner","type":"address","indexed":true,"internalType":"address"}],"anonymous":false},{"type":"event","name":"Paused","inputs":[{"name":"account","type":"address","indexed":false,"internalType":"address"}],"anonymous":false},{"type":"event","name":"Unpaused","inputs":[{"name":"account","type":"address","indexed":false,"internalType":"address"}],"anonymous":false},{"type":"error","name":"EnforcedPause","inputs":[]},{"type":"error","name":"ExpectedPause","inputs":[]},{"type":"error","name":"OwnableInvalidOwner","inputs":[{"name":"owner","type":"address","internalType":"address"}]},{"type":"error","name":"OwnableUnauthorizedAccount","inputs":[{"name":"account","type":"address","internalType":"address"}]}],"bytecode":{"object":"0x608060405234801562000010575f80fd5b506040516200edc73803806200edc7833981016040819052620000339162000133565b33806200005a57604051631e4fbdf760e01b81525f60048201526024015b60405180910390fd5b6200006581620000e4565b506001600160a01b038116620000be5760405162461bcd60e51b815260206004820152601560248201527f496e76616c6964206d6564696174696f6e206b65790000000000000000000000604482015260640162000051565b600280546001600160a01b0319166001600160a01b039290921691909117905562000162565b5f80546001600160a01b038381166001600160a01b0319831681178455604051919092169283917f8be0079c531659141344cd1fd0a4f28419497f9722a3daafe3b4186f6b6457e09190a35050565b5f6020828403121562000144575f80fd5b81516001600160a01b03811681146200015b575f80fd5b9392505050565b61ec5780620001705f395ff3fe608060405234801562000010575f80fd5b506004361062000140575f3560e01c806399238d8511620000b7578063c122b3cb1162000077578063c122b3cb14620002ad578063d6a2c97014620002b6578063e7fe78bc14620002cd578063f2fde38b14620002e1578063ffbe7de514620002f8575f80fd5b806399238d851462000221578063993fa20b1462000246578063a0bf29fa146200026b578063a23410de1462000282578063b16011731462000296575f80fd5b8063715018a61162000103578063715018a614620001cc5780638456cb5914620001d657806386da036714620001e05780638da5cb5b14620001f757806395dd0ed01462000208575f80fd5b806306641f7e14620001445780630ba6b43d146200015b5780633f4ba83a146200018b5780635c975abb14620001975780636e8572de14620001b5575b5f80fd5b6004545b6040519081526020015b60405180910390f35b620001726200016c36600462001828565b6200030f565b6040516001600160a01b03909116815260200162000152565b620001956200065f565b005b5f54600160a01b900460ff165b604051901515815260200162000152565b62000195620001c6366004620018cf565b62000680565b620001956200071e565b6200019562000733565b62000148620001f1366004620018f2565b62000753565b5f546001600160a01b031662000172565b62000212620007e9565b6040516200015291906200198c565b620001a462000232366004620018cf565b60066020525f908152604090205460ff1681565b620001a462000257366004620018cf565b60056020525f908152604090205460ff1681565b620001726200027c366004620019a0565b6200084b565b60025462000172906001600160a01b031681565b62000172620002a7366004620019a0565b62000874565b60035462000148565b62000172620002c7366004620019fc565b62000884565b60015462000172906001600160a01b031681565b62000195620002f2366004620018cf565b62000b3d565b6200019562000309366004620018cf565b62000b80565b5f6200031a62000c19565b6001546001600160a01b03166200036f5760405162461bcd60e51b8152602060048201526014602482015273139195081c9959da5cdd1c9e481b9bdd081cd95d60621b60448201526064015b60405180910390fd5b83620003ad5760405162461bcd60e51b815260206004820152600c60248201526b496e76616c6964206e616d6560a01b604482015260640162000366565b620003b88362000c44565b620003c38262000f1a565b5f620003cf8462001071565b90505f620003dd84620010d0565b90505f33888842604051602001620003f9949392919062001ac6565b6040516020818303038152906040528051906020012090505f60405180602001620004249062001702565b601f1982820381018352601f9091011660408190526001546200045e918c918c9130916001600160a01b0316908a908a9060200162001bc3565b60408051601f19818403018152908290526200047e929160200162001cb3565b6040516020818303038152906040529050620004f2828280519060200120604080516001600160f81b03196020808301919091523060601b6bffffffffffffffffffffffff191660218301526035820194909452605580820193909352815180820390930183526075019052805191012090565b60015460405163917bd62b60e01b81526001600160a01b03808416600483015292975091169063917bd62b906024015f604051808303815f87803b15801562000539575f80fd5b505af11580156200054c573d5f803e3d5ffd5b505050505f828a8a3060015f9054906101000a90046001600160a01b031689896040516200057a9062001702565b6200058b9695949392919062001bc3565b8190604051809103905ff5905080158015620005a9573d5f803e3d5ffd5b506003805460018082019092557fc2575a0e9e593c00f959f8c92f12db2869c3395a3b0502d05e2516446f71f85b0180546001600160a01b0319166001600160a01b0384169081179091555f8181526005602052604090819020805460ff1916909317909255905191975087925033917f0e0df00e03203b5327f839fb74e00ad09c80eb3fc33f196c395c5edf206ecead906200064a908e908e9062001ce5565b60405180910390a35050505050949350505050565b6200066962001183565b62000673620011b1565b6200067e5f62001207565b565b6200068a62001183565b6001600160a01b038116620006d55760405162461bcd60e51b815260206004820152601060248201526f496e76616c696420726567697374727960801b604482015260640162000366565b600180546001600160a01b0319166001600160a01b0383169081179091556040517faf40e8936830e2f4be6598dc5244497481132867783357479d48d3e5cf562493905f90a250565b6200072862001183565b6200067e5f62001442565b6200073d62001183565b6200074762001491565b6200067e600162001207565b5f6200075e62001183565b6200076862000c19565b60015460405163d0def52160e01b81526001600160a01b039091169063d0def521906200079e9087908790879060040162001cfa565b6020604051808303815f875af1158015620007bb573d5f803e3d5ffd5b505050506040513d601f19601f82011682018060405250810190620007e1919062001d29565b949350505050565b606060038054806020026020016040519081016040528092919081815260200182805480156200084157602002820191905f5260205f20905b81546001600160a01b0316815260019091019060200180831162000822575b5050505050905090565b600481815481106200085b575f80fd5b5f918252602090912001546001600160a01b0316905081565b600381815481106200085b575f80fd5b5f6200088f62000c19565b6001546001600160a01b0316620008e05760405162461bcd60e51b8152602060048201526014602482015273139195081c9959da5cdd1c9e481b9bdd081cd95d60621b604482015260640162000366565b87620009255760405162461bcd60e51b8152602060048201526013602482015272092dcecc2d8d2c840c4deeadce8f240d0c2e6d606b1b604482015260640162000366565b6001600160a01b038516620009745760405162461bcd60e51b815260206004820152601460248201527324b73b30b634b21032b9b1b937bb903a37b5b2b760611b604482015260640162000366565b85620009b35760405162461bcd60e51b815260206004820152600d60248201526c4e6f206d696c6573746f6e657360981b604482015260640162000366565b5f620009c08888620014d6565b90505f620009cf858562001620565b604080515f80825260208201909252919250505f333060025f9054906101000a90046001600160a01b03168f8f888e8e8a8a60405162000a0f9062001710565b62000a249a9998979695949392919062001dbb565b604051809103905ff08015801562000a3e573d5f803e3d5ffd5b5060048054600180820183557f8a35acfbc15ff81a39ae7d344fd709f28e8600b4aa8c65c6b64bfe7fe36bd19b90910180546001600160a01b0319166001600160a01b038581169182179092555f8181526006602052604090819020805460ff19168517905592549251638717054d60e01b81529384015292975087935090911690638717054d906024015f604051808303815f87803b15801562000ae1575f80fd5b505af115801562000af4573d5f803e3d5ffd5b50506040513392506001600160a01b03881691507fa8dbee8380452bdfccdb2d9a19535439d689f2993b7ee26d60d8c31853e5b5f1905f90a35050505098975050505050505050565b62000b4762001183565b6001600160a01b03811662000b7257604051631e4fbdf760e01b81525f600482015260240162000366565b62000b7d8162001442565b50565b62000b8a62001183565b6001600160a01b03811662000bd05760405162461bcd60e51b815260206004820152600b60248201526a496e76616c6964206b657960a81b604482015260640162000366565b600280546001600160a01b0319166001600160a01b0383169081179091556040517f4f70e90ec82c33bafc5e9fff5ce14a92731c55b978310c6e01ed69fc048546a1905f90a250565b5f54600160a01b900460ff16156200067e5760405163d93c066560e01b815260040160405180910390fd5b5f62000c51828062001f65565b90501162000c975760405162461bcd60e51b81526020600482015260126024820152714e6f20636f756e63696c207369676e65727360701b604482015260640162000366565b5f62000caa604083016020840162001fbf565b60ff161162000cfc5760405162461bcd60e51b815260206004820152601960248201527f496e76616c696420636f756e63696c207468726573686f6c6400000000000000604482015260640162000366565b62000d08818062001f65565b905062000d1c604083016020840162001fbf565b60ff16111562000d6f5760405162461bcd60e51b815260206004820152601960248201527f5468726573686f6c642065786365656473207369676e65727300000000000000604482015260640162000366565b5f5b62000d7d828062001f65565b905081101562000f16575f62000d94838062001f65565b8381811062000da75762000da762001fdb565b905060200201602081019062000dbe9190620018cf565b6001600160a01b03160362000e0f5760405162461bcd60e51b815260206004820152601660248201527524b73b30b634b21031b7bab731b4b61039b4b3b732b960511b604482015260640162000366565b5f62000e1d82600162001fef565b90505b62000e2c838062001f65565b905081101562000f0c5762000e42838062001f65565b8281811062000e555762000e5562001fdb565b905060200201602081019062000e6c9190620018cf565b6001600160a01b031662000e81848062001f65565b8481811062000e945762000e9462001fdb565b905060200201602081019062000eab9190620018cf565b6001600160a01b03160362000f035760405162461bcd60e51b815260206004820152601860248201527f4475706c696361746520636f756e63696c207369676e65720000000000000000604482015260640162000366565b60010162000e20565b5060010162000d71565b5050565b6127108135111562000f6f5760405162461bcd60e51b815260206004820152601a60248201527f496e76616c696420617070726f76616c207468726573686f6c64000000000000604482015260640162000366565b5f8160e001351162000fba5760405162461bcd60e51b8152602060048201526013602482015272496e76616c6964206d696e206d656d6265727360681b604482015260640162000366565b606462000fd06101208301610100840162001fbf565b60ff161115620010175760405162461bcd60e51b8152602060048201526011602482015270092dcecc2d8d2c840cee4c2dce840dac2f607b1b604482015260640162000366565b8060a001358160c00135101562000b7d5760405162461bcd60e51b815260206004820152601760248201527f496e76616c69642074696572207468726573686f6c6473000000000000000000604482015260640162000366565b60408051808201909152606081525f60208201525f6200109c62001096848062001f65565b62001620565b90506040518060400160405280828152602001846020016020810190620010c4919062001fbf565b60ff1690529392505050565b620010da6200171e565b604051806101400160405280835f01358152602001836020013581526020018360400135815260200183606001358152602001836080013581526020018360a0013581526020018360c0013581526020018360e001358152602001836101000160208101906200114b919062001fbf565b60ff168152602001620011676101408501610120860162002015565b60078111156200117b576200117b62001b1b565b905292915050565b5f546001600160a01b031633146200067e5760405163118cdaa760e01b815233600482015260240162000366565b620011bb620016d8565b5f805460ff60a01b191690557f5db9ee0a495bf2e6ff9c91a7834c1ba4fdd244a5e8aa4e537bd38aeae4b073aa335b6040516001600160a01b03909116815260200160405180910390a1565b5f5b60035481101562001324575f600382815481106200122b576200122b62001fdb565b5f9182526020909120015460405184151560248201526001600160a01b039091169060440160408051601f198184030181529181526020820180516001600160e01b03166305b0e2cf60e21b1790525162001287919062002035565b5f604051808303815f865af19150503d805f8114620012c2576040519150601f19603f3d011682016040523d82523d5f602084013e620012c7565b606091505b50509050806200131a5760405162461bcd60e51b815260206004820152601b60248201527f436f6d6d756e6974792070617573652073796e63206661696c65640000000000604482015260640162000366565b5060010162001209565b505f5b60045481101562000f16575f6004828154811062001349576200134962001fdb565b5f9182526020909120015460405184151560248201526001600160a01b039091169060440160408051601f198184030181529181526020820180516001600160e01b03166305b0e2cf60e21b17905251620013a5919062002035565b5f604051808303815f865af19150503d805f8114620013e0576040519150601f19603f3d011682016040523d82523d5f602084013e620013e5565b606091505b5050905080620014385760405162461bcd60e51b815260206004820152601860248201527f426f756e74792070617573652073796e63206661696c65640000000000000000604482015260640162000366565b5060010162001327565b5f80546001600160a01b038381166001600160a01b0319831681178455604051919092169283917f8be0079c531659141344cd1fd0a4f28419497f9722a3daafe3b4186f6b6457e09190a35050565b6200149b62000c19565b5f805460ff60a01b1916600160a01b1790557f62e78cea01bee320cd4e420270b5ea74000d11b0c9f74754ebdbfc544b05a258620011ea3390565b60608167ffffffffffffffff811115620014f457620014f462001d41565b6040519080825280602002602001820160405280156200153157816020015b6200151d6200177d565b815260200190600190039081620015135790505b5090505f5b8281101562001619575f84848381811062001555576200155562001fdb565b905060200281019062001569919062002052565b6040013511620015bc5760405162461bcd60e51b815260206004820152601760248201527f496e76616c6964206d696c6573746f6e652076616c7565000000000000000000604482015260640162000366565b838382818110620015d157620015d162001fdb565b9050602002810190620015e5919062002052565b620015f09062002144565b82828151811062001605576200160562001fdb565b602090810291909101015260010162001536565b5092915050565b60608167ffffffffffffffff8111156200163e576200163e62001d41565b60405190808252806020026020018201604052801562001668578160200160208202803683370190505b5090505f5b8281101562001619578383828181106200168b576200168b62001fdb565b9050602002016020810190620016a29190620018cf565b828281518110620016b757620016b762001fdb565b6001600160a01b03909216602092830291909101909101526001016200166d565b5f54600160a01b900460ff166200067e57604051638dfc202b60e01b815260040160405180910390fd5b61916f806200225483390190565b61385f806200b3c383390190565b6040518061014001604052805f81526020015f81526020015f81526020015f81526020015f81526020015f81526020015f81526020015f81526020015f60ff1681526020015f600781111562001778576200177862001b1b565b905290565b60405180610140016040528060608152602001606081526020015f81526020015f81526020015f6002811115620017b857620017b862001b1b565b81526020015f81526060602082018190525f6040830181905290820181905260809091015290565b5f8083601f840112620017f1575f80fd5b50813567ffffffffffffffff81111562001809575f80fd5b60208301915083602082850101111562001821575f80fd5b9250929050565b5f805f808486036101808112156200183e575f80fd5b853567ffffffffffffffff8082111562001856575f80fd5b6200186489838a01620017e0565b909750955060208801359150808211156200187d575f80fd5b5086016040818903121562001890575f80fd5b9250610140603f1982011215620018a5575f80fd5b509295919450926040019150565b80356001600160a01b0381168114620018ca575f80fd5b919050565b5f60208284031215620018e0575f80fd5b620018eb82620018b3565b9392505050565b5f805f6040848603121562001905575f80fd5b6200191084620018b3565b9250602084013567ffffffffffffffff8111156200192c575f80fd5b6200193a86828701620017e0565b9497909650939450505050565b5f815180845260208085019450602084015f5b83811015620019815781516001600160a01b0316875295820195908201906001016200195a565b509495945050505050565b602081525f620018eb602083018462001947565b5f60208284031215620019b1575f80fd5b5035919050565b5f8083601f840112620019c9575f80fd5b50813567ffffffffffffffff811115620019e1575f80fd5b6020830191508360208260051b850101111562001821575f80fd5b5f805f805f805f8060a0898b03121562001a14575f80fd5b883567ffffffffffffffff8082111562001a2c575f80fd5b62001a3a8c838d01620017e0565b909a50985060208b013591508082111562001a53575f80fd5b62001a618c838d01620019b8565b909850965086915062001a7760408c01620018b3565b955060608b013591506005821062001a8d575f80fd5b90935060808a0135908082111562001aa3575f80fd5b5062001ab28b828c01620019b8565b999c989b5096995094979396929594505050565b6bffffffffffffffffffffffff198560601b16815282846014830137601492019182015260340192915050565b81835281816020850137505f828201602090810191909152601f909101601f19169091010190565b634e487b7160e01b5f52602160045260245ffd5b6008811062001b425762001b4262001b1b565b9052565b805182526020810151602083015260408101516040830152606081015160608301526080810151608083015260a081015160a083015260c081015160c083015260e081015160e08301526101008082015162001ba68285018260ff169052565b50506101208082015162001bbd8285018262001b2f565b50505050565b5f6101e080835262001bd9818401898b62001af3565b905082810360208181860152600783526611d1539154905360ca1b8184015260018060a01b03808a1660408701528089166060870152604083016080870152608084019250875160408086015283815180865260a08701915084830195505f92505b8083101562001c5f5785518416825294840194600192909201919084019062001c3b565b5060ff848b015116606087015280965050505050505062001c8460a083018462001b46565b979650505050505050565b5f5b8381101562001cab57818101518382015260200162001c91565b50505f910152565b5f835162001cc681846020880162001c8f565b83519083019062001cdc81836020880162001c8f565b01949350505050565b602081525f620007e160208301848662001af3565b6001600160a01b03841681526040602082018190525f9062001d20908301848662001af3565b95945050505050565b5f6020828403121562001d3a575f80fd5b5051919050565b634e487b7160e01b5f52604160045260245ffd5b5f815180845262001d6e81602086016020860162001c8f565b601f01601f19169290920160200192915050565b6003811062001b425762001b4262001b1b565b6004811062001b425762001b4262001b1b565b6005811062001b425762001b4262001b1b565b6001600160a01b038b811682528a8116602080840191909152908a16604083015261012060608084018290525f9262001df88584018c8e62001af3565b60808682036080880152818c518084528484019150848160051b850101858f015f5b8381101562001f0257601f198784030185528151610140815181865262001e448287018262001d55565b915050898201518582038b87015262001e5e828262001d55565b915050604082015160408601528a8201518b8601528782015162001e858987018262001d82565b5060a08083015162001e9a8288018262001d95565b505060c0808301518683038288015262001eb5838262001d55565b9250505060e08083015162001ece8288018260ff169052565b50506101008281015160ff8116878301525050908b015160ff8116858d015290958901959350509087019060010162001e1a565b50506001600160a01b038e1660a08b015262001f2260c08b018e62001da8565b89810360e08b015262001f36818d62001947565b97505050505050505082810361010084015262001f54818562001947565b9d9c50505050505050505050505050565b5f808335601e1984360301811262001f7b575f80fd5b83018035915067ffffffffffffffff82111562001f96575f80fd5b6020019150600581901b360382131562001821575f80fd5b803560ff81168114620018ca575f80fd5b5f6020828403121562001fd0575f80fd5b620018eb8262001fae565b634e487b7160e01b5f52603260045260245ffd5b808201808211156200200f57634e487b7160e01b5f52601160045260245ffd5b92915050565b5f6020828403121562002026575f80fd5b813560088110620018eb575f80fd5b5f82516200204881846020870162001c8f565b9190910192915050565b5f823561013e1983360301811262002048575f80fd5b604051610140810167ffffffffffffffff811182821017156200208f576200208f62001d41565b60405290565b5f82601f830112620020a5575f80fd5b813567ffffffffffffffff80821115620020c357620020c362001d41565b604051601f8301601f19908116603f01168101908282118183101715620020ee57620020ee62001d41565b8160405283815286602085880101111562002107575f80fd5b836020870160208301375f602085830101528094505050505092915050565b803560038110620018ca575f80fd5b803560048110620018ca575f80fd5b5f610140823603121562002156575f80fd5b6200216062002068565b823567ffffffffffffffff8082111562002178575f80fd5b620021863683870162002095565b835260208501359150808211156200219c575f80fd5b620021aa3683870162002095565b60208401526040850135604084015260608501356060840152620021d16080860162002126565b6080840152620021e460a0860162002135565b60a084015260c0850135915080821115620021fd575f80fd5b506200220c3682860162002095565b60c0830152506200222060e0840162001fae565b60e08201526101006200223581850162001fae565b908201526101206200224984820162001fae565b908201529291505056fe608060405234801562000010575f80fd5b506040516200916f3803806200916f833981016040819052620000339162000630565b5f62000040878262000830565b5060016200004f868262000830565b50600280546001600160a01b038087166001600160a01b03199283161790925560038054928616929091169190911790558151805183916004916200009c918391602090910190620003c0565b506020918201516001909101805460ff92831660ff199182161790915583516006908155928401516007908155604085015160085560608501516009556080850151600a5560a0850151600b5560c0850151600c5560e0850151600d5561010085810151600e805491909516938116841785556101208701518796959094909361ffff1990921617919084908111156200013a576200013a620008fc565b02179055509050505f5b8251518110156200018a5762000181835f015182815181106200016b576200016b62000910565b602002602001015160016200019760201b60201c565b60010162000144565b50505050505050620009a0565b6001600160a01b0382165f9081526012602052604090205460ff1615620001f55760405162461bcd60e51b815260206004820152600e60248201526d416c72656164792061637469766560901b604482015260640160405180910390fd5b6001600160a01b0382165f9081526012602090815260408083208054600160ff1991821681179092556013909352922080548493919216908381811115620002415762000241620008fc565b0217905550601080546001810182557f1b6847dc741a1b0cd08d278845f9d819d87b734759afb55fe2de5cb82a9ae6720180546001600160a01b0319166001600160a01b0385811691821790925591545f838152601160205260408082209290925560035491516378a9bb4360e11b815260048101949094529291169063f153768690602401602060405180830381865afa158015620002e3573d5f803e3d5ffd5b505050506040513d601f19601f8201168201806040525081019062000309919062000924565b9050801562000378576003546040516305c73a2760e01b81526001600160a01b03909116906305c73a279062000348908490309087906004016200095d565b5f604051808303815f87803b15801562000360575f80fd5b505af115801562000373573d5f803e3d5ffd5b505050505b826001600160a01b03167f7496ec113494270625ae4bdb915ff6fdad6f6d96d4c88bd9417727daedcdf3e083604051620003b391906200098a565b60405180910390a2505050565b828054828255905f5260205f2090810192821562000416579160200282015b828111156200041657825182546001600160a01b0319166001600160a01b03909116178255602090920191600190910190620003df565b506200042492915062000428565b5090565b5b8082111562000424575f815560010162000429565b634e487b7160e01b5f52604160045260245ffd5b60405161014081016001600160401b03811182821017156200047857620004786200043e565b60405290565b604080519081016001600160401b03811182821017156200047857620004786200043e565b604051601f8201601f191681016001600160401b0381118282101715620004ce57620004ce6200043e565b604052919050565b5f82601f830112620004e6575f80fd5b81516001600160401b038111156200050257620005026200043e565b602062000518601f8301601f19168201620004a3565b82815285828487010111156200052c575f80fd5b5f5b838110156200054b5785810183015182820184015282016200052e565b505f928101909101919091529392505050565b80516001600160a01b038116811462000575575f80fd5b919050565b805160ff8116811462000575575f80fd5b80516008811062000575575f80fd5b5f6101408284031215620005ac575f80fd5b620005b662000452565b9050815181526020820151602082015260408201516040820152606082015160608201526080820151608082015260a082015160a082015260c082015160c082015260e082015160e0820152610100620006128184016200057a565b90820152610120620006268382016200058b565b9082015292915050565b5f805f805f806101e0878903121562000647575f80fd5b86516001600160401b03808211156200065e575f80fd5b6200066c8a838b01620004d6565b975060209150818901518181111562000683575f80fd5b620006918b828c01620004d6565b975050620006a260408a016200055e565b9550620006b260608a016200055e565b9450608089015181811115620006c6575f80fd5b89016040818c031215620006d8575f80fd5b620006e26200047e565b815183811115620006f1575f80fd5b8201601f81018d1362000702575f80fd5b8051848111156200071757620007176200043e565b8060051b94506200072a868601620004a3565b818152948201860194868101908f87111562000744575f80fd5b928701925b868410156200076d576200075d846200055e565b8252928701929087019062000749565b845250620007809150508285016200057a565b84820152809550505050506200079a8860a089016200059a565b90509295509295509295565b600181811c90821680620007bb57607f821691505b602082108103620007da57634e487b7160e01b5f52602260045260245ffd5b50919050565b601f8211156200082b57805f5260205f20601f840160051c81016020851015620008075750805b601f840160051c820191505b8181101562000828575f815560010162000813565b50505b505050565b81516001600160401b038111156200084c576200084c6200043e565b62000864816200085d8454620007a6565b84620007e0565b602080601f8311600181146200089a575f8415620008825750858301515b5f19600386901b1c1916600185901b178555620008f4565b5f85815260208120601f198616915b82811015620008ca57888601518255948401946001909101908401620008a9565b5085821015620008e857878501515f19600388901b60f8161c191681555b505060018460011b0185555b505050505050565b634e487b7160e01b5f52602160045260245ffd5b634e487b7160e01b5f52603260045260245ffd5b5f6020828403121562000935575f80fd5b5051919050565b600281106200095957634e487b7160e01b5f52602160045260245ffd5b9052565b8381526001600160a01b0383166020820152606081016200098260408301846200093c565b949350505050565b602081016200099a82846200093c565b92915050565b6187c180620009ae5f395ff3fe608060405234801562000010575f80fd5b50600436106200014c575f3560e01c80639640764a11620000c3578063a7ffa9d11162000083578063a7ffa9d11462000317578063b3d1d519146200033c578063b78119281462000355578063c6d572ae146200036c578063d5ce537c1462000376578063e7fe78bc146200039b575f80fd5b80639640764a146200029e578063997072f714620002b55780639f0972c414620002be5780639f248bbf14620002d2578063a230c52414620002e9575f80fd5b80635c975abb116200010f5780635c975abb14620001f357806366fff1a314620002015780636963974914620002315780637ee9805c146200026e5780638f0ddb5d1462000285575f80fd5b8063042358421462000150578063078f6208146200017257806316c38b3c146200018b57806325ec527c14620001a45780632fd30ab614620001da575b5f80fd5b6200015a620003af565b60405162000169919062001d9f565b60405180910390f35b6200017c6200043d565b60405162000169919062001e33565b620001a26200019c36600462001ecb565b620004e1565b005b620001c9620001b536600462001f17565b60126020525f908152604090205460ff1681565b604051901515815260200162000169565b620001e460155481565b60405190815260200162000169565b601654620001c99060ff1681565b620002186200021236600462001fd0565b62000543565b6040516001600160a01b03909116815260200162000169565b6200025f6200024236600462001f17565b6001600160a01b03165f9081526013602052604090205460ff1690565b604051620001699190620020d5565b620001a26200027f366004620020e5565b62000696565b6200028f6200075c565b60405162000169919062002160565b620001a2620002af366004620020e5565b620007f0565b601054620001e4565b60025462000218906001600160a01b031681565b620001a2620002e336600462002194565b62000aa1565b620001c9620002fa36600462001f17565b6001600160a01b03165f9081526012602052604090205460ff1690565b620001c96200032836600462001f17565b60146020525f908152604090205460ff1681565b6200034662000b40565b6040516200016991906200221b565b620001a2620003663660046200222f565b62000ba2565b6200028f62000e95565b6200025f6200038736600462001f17565b60136020525f908152604090205460ff1681565b60035462000218906001600160a01b031681565b60408051808201909152606081525f60208201526040805160048054606060208202840181018552938301818152929391928492909184918401828280156200042057602002820191905f5260205f20905b81546001600160a01b0316815260019091019060200180831162000401575b50505091835250506001919091015460ff16602090910152919050565b6200044762001d32565b6040805161014081018252600680548252600780546020840152600854938301939093526009546060830152600a546080830152600b5460a0830152600c5460c0830152600d5460e0830152600e5460ff808216610100808601919091529394929361012086019392041690811115620004c557620004c562001e08565b6007811115620004d957620004d962001e08565b905250919050565b6002546001600160a01b03163314620005305760405162461bcd60e51b815260206004820152600c60248201526b4f6e6c7920666163746f727960a01b60448201526064015b60405180910390fd5b6016805460ff1916911515919091179055565b6016545f9060ff16156200056b5760405162461bcd60e51b8152600401620005279062002272565b89620005b25760405162461bcd60e51b8152602060048201526015602482015274092dcecc2d8d2c840e0e4dee0dee6c2d840d0c2e6d605b1b604482015260640162000527565b6001600160a01b038716620006015760405162461bcd60e51b815260206004820152601460248201527324b73b30b634b21032b9b1b937bb903a37b5b2b760611b604482015260640162000527565b87620006405760405162461bcd60e51b815260206004820152600d60248201526c4e6f206d696c6573746f6e657360981b604482015260640162000527565b62000661620006598c8c8c8c8c8c8c8c60155462000ea3565b848462000eec565b60158054905f6200067283620022a6565b9190505550620006878b8b89898989620011af565b9b9a5050505050505050505050565b60165460ff1615620006bc5760405162461bcd60e51b8152600401620005279062002272565b6001600160a01b0383165f9081526012602052604090205460ff166200071c5760405162461bcd60e51b81526020600482015260146024820152732737ba1030b71030b1ba34bb329036b2b6b132b960611b604482015260640162000527565b620007366200072e846015546200133e565b838362000eec565b60158054905f6200074783620022a6565b91905055506200075783620013a9565b505050565b600180546200076b90620022c1565b80601f01602080910402602001604051908101604052809291908181526020018280546200079990620022c1565b8015620007e85780601f10620007be57610100808354040283529160200191620007e8565b820191905f5260205f20905b815481529060010190602001808311620007ca57829003601f168201915b505050505081565b60165460ff1615620008165760405162461bcd60e51b8152600401620005279062002272565b6001600160a01b0383165f9081526014602052604090205460ff16620008785760405162461bcd60e51b81526020600482015260166024820152752737903832b73234b7339030b8383634b1b0ba34b7b760511b604482015260640162000527565b6200088a6200072e84601554620015fd565b60158054905f6200089b83620022a6565b9091555060049050600e54610100900460ff166007811115620008c257620008c262001e08565b0362000a3d576003546040516378a9bb4360e11b81526001600160a01b0385811660048301525f92169063f153768690602401602060405180830381865afa15801562000911573d5f803e3d5ffd5b505050506040513d601f19601f82011682018060405250810190620009379190620022fb565b9050805f03620009835760405162461bcd60e51b8152602060048201526016602482015275135d5cdd081a185d99481c1b185d199bdc9b4813919560521b604482015260640162000527565b6003546040516337b6d96b60e01b8152600481018390526001600160a01b03909116906337b6d96b90602401602060405180830381865afa158015620009cb573d5f803e3d5ffd5b505050506040513d601f19601f82011682018060405250810190620009f1919062002313565b62000a3b5760405162461bcd60e51b815260206004820152601960248201527812d650c81d995c9a599a58d85d1a5bdb881c995c5d5a5c9959603a1b604482015260640162000527565b505b6001600160a01b0383165f908152601460205260408120805460ff1916905562000a699084906200164a565b6040516001600160a01b038416907f3da74045128fff0396b39203f81bcedcbcf28586f0f97fb0f41ceb5521566a15905f90a2505050565b60165460ff161562000ac75760405162461bcd60e51b8152600401620005279062002272565b62000ad96200072e8460155462001870565b60158054905f62000aea83620022a6565b90915550839050600662000aff828262002394565b9050507fbddb5530dab0a2e4c2a2a6fb5295095c5011cf9863630982b10e083b636e08108360405162000b339190620024bf565b60405180910390a1505050565b6060600f80548060200260200160405190810160405280929190818152602001828054801562000b9857602002820191905f5260205f20905b81546001600160a01b0316815260019091019060200180831162000b79575b5050505050905090565b60165460ff161562000bc85760405162461bcd60e51b8152600401620005279062002272565b335f9081526012602052604090205460ff161562000c1c5760405162461bcd60e51b815260206004820152601060248201526f20b63932b0b23c90309036b2b6b132b960811b604482015260640162000527565b335f9081526014602052604090205460ff161562000c735760405162461bcd60e51b81526020600482015260136024820152724170706c69636174696f6e2070656e64696e6760681b604482015260640162000527565b6004600e54610100900460ff16600781111562000c945762000c9462001e08565b0362000e12576003546040516378a9bb4360e11b81523360048201525f916001600160a01b03169063f153768690602401602060405180830381865afa15801562000ce1573d5f803e3d5ffd5b505050506040513d601f19601f8201168201806040525081019062000d079190620022fb565b9050805f0362000d535760405162461bcd60e51b8152602060048201526016602482015275135d5cdd081a185d99481c1b185d199bdc9b4813919560521b604482015260640162000527565b6003546040516337b6d96b60e01b8152600481018390526001600160a01b03909116906337b6d96b90602401602060405180830381865afa15801562000d9b573d5f803e3d5ffd5b505050506040513d601f19601f8201168201806040525081019062000dc1919062002313565b62000e0b5760405162461bcd60e51b815260206004820152601960248201527812d650c81d995c9a599a58d85d1a5bdb881c995c5d5a5c9959603a1b604482015260640162000527565b5062000e78565b5f600e54610100900460ff16600781111562000e325762000e3262001e08565b1462000e78578062000e785760405162461bcd60e51b815260206004820152600e60248201526d141c9bdbd9881c995c5d5a5c995960921b604482015260640162000527565b5050335f908152601460205260409020805460ff19166001179055565b5f80546200076b90620022c1565b5f89898989898989898960405160200162000ec799989796959493929190620025d4565b6040516020818303038152906040528051906020012090509998505050505050505050565b60055460ff1681101562000f435760405162461bcd60e51b815260206004820152601760248201527f496e73756666696369656e74207369676e617475726573000000000000000000604482015260640162000527565b7f19457468657265756d205369676e6564204d6573736167653a0a3332000000005f908152601c849052603c8120908267ffffffffffffffff81111562000f8e5762000f8e620027c4565b60405190808252806020026020018201604052801562000fb8578160200160208202803683370190505b5090505f805b848110156200113f575f6200103287878481811062000fe15762000fe1620027d8565b905060200281019062000ff59190620027ec565b8080601f0160208091040260200160405190810160405280939291908181526020018383808284375f920191909152508993925050620018869050565b90505f5b6004548110156200113457816001600160a01b031660045f018281548110620010635762001063620027d8565b5f918252602090912001546001600160a01b0316036200112b575f805b8560ff16811015620010d557836001600160a01b0316878281518110620010ab57620010ab620027d8565b60200260200101516001600160a01b031603620010cc5760019150620010d5565b60010162001080565b50806200112957828686620010ea8162002832565b975060ff1681518110620011025762001102620027d8565b60200260200101906001600160a01b031690816001600160a01b0316815250505062001134565b505b60010162001036565b505060010162000fbe565b5060055460ff9081169082161015620011a75760405162461bcd60e51b815260206004820152602360248201527f4e6f7420656e6f7567682076616c696420636f756e63696c207369676e61747560448201526272657360e81b606482015260840162000527565b505050505050565b6002545f90819030906001600160a01b0316620011cb620018b2565b6003546001600160a01b03168b8b8b8b620011e78c8c620019c4565b6006620011f362001a83565b60055460405160ff909116906200120a9062001d91565b620012219c9b9a9998979695949392919062002853565b604051809103905ff0801580156200123b573d5f803e3d5ffd5b5060035460405163ddac53eb60e01b81526001600160a01b03808416600483015292945084935091169063ddac53eb906024015f604051808303815f87803b15801562001286575f80fd5b505af115801562001299573d5f803e3d5ffd5b5050600f80546001810182555f919091527f8d1108e10bcb7c27dddfc02ed9d693a074039d026cf4ea4240b40f7d581ac8020180546001600160a01b0319166001600160a01b0386161790555050604051620012f9908990899062002976565b604051908190038120906001600160a01b038416907f315faaf1e943071baf7df3823e10a9ca85282b086e1dee45d5c3256e78c68da2905f90a3509695505050505050565b5f82826040516020016200138a9291906060808252600c908201526b3932b6b7bb32a6b2b6b132b960a11b60808201526001600160a01b03929092166020830152604082015260a00190565b6040516020818303038152906040528051906020012090505b92915050565b6001600160a01b0381165f908152601260209081526040808320805460ff19908116909155601383528184208054909116905560119091529020548015620014eb575f620013f960018362002985565b6010549091505f906200140f9060019062002985565b90508082146200149b575f60108281548110620014305762001430620027d8565b5f91825260209091200154601080546001600160a01b039092169250829185908110620014615762001461620027d8565b5f91825260208083209190910180546001600160a01b0319166001600160a01b039485161790559290911681526011909152604090208390555b6010805480620014af57620014af6200299b565b5f828152602080822083015f1990810180546001600160a01b03191690559092019092556001600160a01b038616825260119052604081205550505b6003546040516378a9bb4360e11b81526001600160a01b0384811660048301525f92169063f153768690602401602060405180830381865afa15801562001534573d5f803e3d5ffd5b505050506040513d601f19601f820116820180604052508101906200155a9190620022fb565b90508015620015c557600354604051632235248960e01b8152600481018390523060248201526001600160a01b03909116906322352489906044015f604051808303815f87803b158015620015ad575f80fd5b505af1158015620015c0573d5f803e3d5ffd5b505050505b6040516001600160a01b038416907f6e76fb4c77256006d9c38ec7d82b45a8c8f3c27b1d6766fffc42dfb8de684492905f90a2505050565b5f82826040516020016200138a9291906060808252600d908201526c30b8383937bb32a6b2b6b132b960991b60808201526001600160a01b03929092166020830152604082015260a00190565b6001600160a01b0382165f9081526012602052604090205460ff1615620016a55760405162461bcd60e51b815260206004820152600e60248201526d416c72656164792061637469766560901b604482015260640162000527565b6001600160a01b0382165f9081526012602090815260408083208054600160ff1991821681179092556013909352922080548493919216908381811115620016f157620016f162001e08565b0217905550601080546001810182557f1b6847dc741a1b0cd08d278845f9d819d87b734759afb55fe2de5cb82a9ae6720180546001600160a01b0319166001600160a01b0385811691821790925591545f838152601160205260408082209290925560035491516378a9bb4360e11b815260048101949094529291169063f153768690602401602060405180830381865afa15801562001793573d5f803e3d5ffd5b505050506040513d601f19601f82011682018060405250810190620017b99190620022fb565b9050801562001828576003546040516305c73a2760e01b81526001600160a01b03909116906305c73a2790620017f890849030908790600401620029af565b5f604051808303815f87803b15801562001810575f80fd5b505af115801562001823573d5f803e3d5ffd5b505050505b826001600160a01b03167f7496ec113494270625ae4bdb915ff6fdad6f6d96d4c88bd9417727daedcdf3e083604051620018639190620020d5565b60405180910390a2505050565b5f82826040516020016200138a929190620029dc565b5f805f8062001896868662001b4a565b925092509250620018a8828262001b97565b5090949350505050565b60025460408051600481526024810182526020810180516001600160e01b031663511a086f60e11b17905290515f92839283926001600160a01b0390921691620018fd919062002a24565b5f60405180830381855afa9150503d805f811462001937576040519150601f19603f3d011682016040523d82523d5f602084013e6200193c565b606091505b50915091508180156200194f5750805115155b620019a75760405162461bcd60e51b815260206004820152602160248201527f466163746f7279206d6564696174696f6e206b657920756e617661696c61626c6044820152606560f81b606482015260840162000527565b80806020019051810190620019bd919062002a41565b9250505090565b60608167ffffffffffffffff811115620019e257620019e2620027c4565b60405190808252806020026020018201604052801562001a0c578160200160208202803683370190505b5090505f5b8281101562001a7c5783838281811062001a2f5762001a2f620027d8565b905060200201602081019062001a46919062001f17565b82828151811062001a5b5762001a5b620027d8565b6001600160a01b039092166020928302919091019091015260010162001a11565b5092915050565b60045460609067ffffffffffffffff81111562001aa45762001aa4620027c4565b60405190808252806020026020018201604052801562001ace578160200160208202803683370190505b5090505f5b60045481101562001b4657600480548290811062001af55762001af5620027d8565b905f5260205f20015f9054906101000a90046001600160a01b031682828151811062001b255762001b25620027d8565b6001600160a01b039092166020928302919091019091015260010162001ad3565b5090565b5f805f835160410362001b85576020840151604085015160608601515f1a62001b768882858562001c65565b95509550955050505062001b90565b505081515f91506002905b9250925092565b5f82600381111562001bad5762001bad62001e08565b0362001bb7575050565b600182600381111562001bce5762001bce62001e08565b0362001bed5760405163f645eedf60e01b815260040160405180910390fd5b600282600381111562001c045762001c0462001e08565b0362001c275760405163fce698f760e01b81526004810182905260240162000527565b600382600381111562001c3e5762001c3e62001e08565b0362001c61576040516335e2f38360e21b81526004810182905260240162000527565b5050565b5f80807f7fffffffffffffffffffffffffffffff5d576e7357a4501ddfe92f46681b20a084111562001ca057505f9150600390508262001d28565b604080515f808252602082018084528a905260ff891692820192909252606081018790526080810186905260019060a0016020604051602081039080840390855afa15801562001cf2573d5f803e3d5ffd5b5050604051601f1901519150506001600160a01b03811662001d1f57505f92506001915082905062001d28565b92505f91508190505b9450945094915050565b6040518061014001604052805f81526020015f81526020015f81526020015f81526020015f81526020015f81526020015f81526020015f81526020015f60ff1681526020015f600781111562001d8c5762001d8c62001e08565b905290565b615d2c8062002a6083390190565b602080825282516040838301528051606084018190525f9291820190839060808601905b8083101562001dee5783516001600160a01b0316825292840192600192909201919084019062001dc3565b5060ff848801511660408701528094505050505092915050565b634e487b7160e01b5f52602160045260245ffd5b6008811062001e2f5762001e2f62001e08565b9052565b5f61014082019050825182526020830151602083015260408301516040830152606083015160608301526080830151608083015260a083015160a083015260c083015160c083015260e083015160e08301526101008084015162001e9b8285018260ff169052565b50506101208084015162001eb28285018262001e1c565b505092915050565b801515811462001ec8575f80fd5b50565b5f6020828403121562001edc575f80fd5b813562001ee98162001eba565b9392505050565b6001600160a01b038116811462001ec8575f80fd5b803562001f128162001ef0565b919050565b5f6020828403121562001f28575f80fd5b813562001ee98162001ef0565b5f8083601f84011262001f46575f80fd5b50813567ffffffffffffffff81111562001f5e575f80fd5b60208301915083602082850101111562001f76575f80fd5b9250929050565b5f8083601f84011262001f8e575f80fd5b50813567ffffffffffffffff81111562001fa6575f80fd5b6020830191508360208260051b850101111562001f76575f80fd5b80356005811062001f12575f80fd5b5f805f805f805f805f8060c08b8d03121562001fea575f80fd5b8a3567ffffffffffffffff8082111562002002575f80fd5b620020108e838f0162001f35565b909c509a5060208d013591508082111562002029575f80fd5b620020378e838f0162001f7d565b909a5098508891506200204d60408e0162001f05565b97506200205d60608e0162001fc1565b965060808d013591508082111562002073575f80fd5b620020818e838f0162001f7d565b909650945060a08d01359150808211156200209a575f80fd5b50620020a98d828e0162001f7d565b915080935050809150509295989b9194979a5092959850565b6002811062001e2f5762001e2f62001e08565b60208101620013a38284620020c2565b5f805f60408486031215620020f8575f80fd5b8335620021058162001ef0565b9250602084013567ffffffffffffffff81111562002121575f80fd5b6200212f8682870162001f7d565b9497909650939450505050565b5f5b83811015620021585781810151838201526020016200213e565b50505f910152565b602081525f8251806020840152620021808160408501602087016200213c565b601f01601f19169190910160400192915050565b5f805f838503610160811215620021a9575f80fd5b61014080821215620021b9575f80fd5b859450840135905067ffffffffffffffff81111562002121575f80fd5b5f815180845260208085019450602084015f5b83811015620022105781516001600160a01b031687529582019590820190600101620021e9565b509495945050505050565b602081525f62001ee96020830184620021d6565b5f806020838503121562002241575f80fd5b823567ffffffffffffffff81111562002258575f80fd5b620022668582860162001f35565b90969095509350505050565b60208082526006908201526514185d5cd95960d21b604082015260600190565b634e487b7160e01b5f52601160045260245ffd5b5f60018201620022ba57620022ba62002292565b5060010190565b600181811c90821680620022d657607f821691505b602082108103620022f557634e487b7160e01b5f52602260045260245ffd5b50919050565b5f602082840312156200230c575f80fd5b5051919050565b5f6020828403121562002324575f80fd5b815162001ee98162001eba565b60ff8116811462001ec8575f80fd5b5f8135620013a38162002331565b6008811062001ec8575f80fd5b5f8135620013a3816200234e565b600882106200237c576200237c62001e08565b805461ff008360081b1661ff00198216178255505050565b813581556020820135600182015560408201356002820155606082013560038201556080820135600482015560a0820135600582015560c0820135600682015560e082013560078201556008810162002406620023f5610100850162002340565b825460ff191660ff91909116178255565b620007576200241961012085016200235b565b8262002369565b803562001f128162002331565b803562001f12816200234e565b803582526020810135602083015260408101356040830152606081013560608301526080810135608083015260a081013560a083015260c081013560c083015260e081013560e08301526101006200249481830162002420565b60ff1690830152610120620024ab8282016200242d565b620024b98285018262001e1c565b50505050565b6101408101620013a382846200243a565b81835281816020850137505f828201602090810191909152601f909101601f19169091010190565b5f808335601e198436030181126200250e575f80fd5b830160208101925035905067ffffffffffffffff8111156200252e575f80fd5b80360382131562001f76575f80fd5b80356003811062001f12575f80fd5b6003811062001e2f5762001e2f62001e08565b80356004811062001f12575f80fd5b6004811062001e2f5762001e2f62001e08565b6005811062001e2f5762001e2f62001e08565b8183525f60208085019450825f5b8581101562002210578135620025b88162001ef0565b6001600160a01b031687529582019590820190600101620025a2565b60e08152600d60e08201526c19195c1b1bde541c9bda9958dd609a1b6101008201525f6101208060208401526200260f8184018c8e620024d0565b838103604085015289815260208082019060058c901b8301018c5f5b8d8110156200277557848303601f19018452368f900361013e190182351262002652575f80fd5b8e823501620026628182620024f8565b61014086526200267861014087018284620024d0565b9150506200268a6020830183620024f8565b86830360208801526200269f838284620024d0565b925050506040820135604086015260608201356060860152620026c5608083016200253d565b620026d460808701826200254c565b50620026e360a083016200255f565b620026f260a08701826200256e565b506200270260c0830183620024f8565b86830360c088015262002717838284620024d0565b925050506200272960e0830162002420565b60ff1660e086015262002740610100830162002420565b60ff166101008601526200275682890162002420565b60ff16948801949094525060209384019391909101906001016200262b565b50506001600160a01b038b16606087015262002795608087018b62002581565b85810360a0870152620027aa81898b62002594565b9450505050508260c08301529a9950505050505050505050565b634e487b7160e01b5f52604160045260245ffd5b634e487b7160e01b5f52603260045260245ffd5b5f808335601e1984360301811262002802575f80fd5b83018035915067ffffffffffffffff8211156200281d575f80fd5b60200191503681900382131562001f76575f80fd5b5f60ff821660ff81036200284a576200284a62002292565b60010192915050565b5f60018060a01b03808f168352808e166020840152808d166040840152808c16606084015261028060808401526200289161028084018b8d620024d0565b818a1660a0850152620028a860c085018a62002581565b83810360e0850152620028bc8189620021d6565b8754610100860152600188015461012086015260028801546101408601526003880154610160860152600488015461018086015260058801546101a086015260068801546101c086015260078801546101e0860152600888015460ff811661020087015290925090506200293b610220850160ff8360081c1662001e1c565b50828103610240840152620029518186620021d6565b9150506200296561026083018460ff169052565b9d9c50505050505050505050505050565b818382375f9101908152919050565b81810381811115620013a357620013a362002292565b634e487b7160e01b5f52603160045260245ffd5b8381526001600160a01b038316602082015260608101620029d46040830184620020c2565b949350505050565b6101808082526010908201526f757064617465476f7665726e616e636560801b6101a08201526101c0810162002a1660208301856200243a565b826101608301529392505050565b5f825162002a378184602087016200213c565b9190910192915050565b5f6020828403121562002a52575f80fd5b815162001ee98162001ef056fe60c060405234801562000010575f80fd5b5060405162005d2c38038062005d2c83398101604081905262000033916200054a565b60017f9b779b17422d0df92223018b32b4d1fa46e071723d6817e2486d003becc55f00556001600160a01b038b81166080528a811660a0525f80546001600160a01b03199081168c841617909155602b8054909116918a1691909117905560016200009f888262000702565b50600280546001600160a01b0388166001600160a01b03198216811783558792916001600160a81b03191617600160a01b836004811115620000e557620000e5620007ce565b02179055508351620000ff90600390602087019062000255565b508251601f908155602080850151905560408401516021556060840151602255608084015160235560a084015160245560c084015160255560e0840151602655610100808501516027805460ff90921660ff19831681178255610120880151889594909361ffff191690911790836007811115620001815762000181620007ce565b02179055505082516200019d9150602890602085019062000255565b506029805460ff191660ff83161790555f805460ff60a01b191690556020830151620001ca9042620007e2565b60075560405133907fd1efe34a534b4d45759bb8d8f7c24cb8b465b18cf3e3710c3dc9d70ddd2b29309062000201908a9062000808565b60405180910390a27f3a779de46631dd65116ae538600f1bc3c338200c6aef638429b5de43301c28f75f806040516200023c9291906200085d565b60405180910390a1505050505050505050505062000883565b828054828255905f5260205f20908101928215620002ab579160200282015b82811115620002ab57825182546001600160a01b0319166001600160a01b0390911617825560209092019160019091019062000274565b50620002b9929150620002bd565b5090565b5b80821115620002b9575f8155600101620002be565b80516001600160a01b0381168114620002ea575f80fd5b919050565b634e487b7160e01b5f52604160045260245ffd5b60405161014081016001600160401b0381118282101715620003295762000329620002ef565b60405290565b604051601f8201601f191681016001600160401b03811182821017156200035a576200035a620002ef565b604052919050565b5f5b838110156200037e57818101518382015260200162000364565b50505f910152565b5f82601f83011262000396575f80fd5b81516001600160401b03811115620003b257620003b2620002ef565b620003c7601f8201601f19166020016200032f565b818152846020838601011115620003dc575f80fd5b620003ef82602083016020870162000362565b949350505050565b805160058110620002ea575f80fd5b5f82601f83011262000416575f80fd5b815160206001600160401b03821115620004345762000434620002ef565b8160051b620004458282016200032f565b92835284810182019282810190878511156200045f575f80fd5b83870192505b8483101562000489576200047983620002d3565b8252918301919083019062000465565b979650505050505050565b805160ff81168114620002ea575f80fd5b805160088110620002ea575f80fd5b5f6101408284031215620004c6575f80fd5b620004d062000303565b9050815181526020820151602082015260408201516040820152606082015160608201526080820151608082015260a082015160a082015260c082015160c082015260e082015160e08201526101006200052c81840162000494565b9082015261012062000540838201620004a5565b9082015292915050565b5f805f805f805f805f805f6102808c8e03121562000566575f80fd5b620005718c620002d3565b9a506200058160208d01620002d3565b99506200059160408d01620002d3565b9850620005a160608d01620002d3565b60808d01519098506001600160401b03811115620005bd575f80fd5b620005cb8e828f0162000386565b975050620005dc60a08d01620002d3565b9550620005ec60c08d01620003f7565b60e08d01519095506001600160401b0381111562000608575f80fd5b620006168e828f0162000406565b945050620006298d6101008e01620004b4565b6102408d01519093506001600160401b0381111562000646575f80fd5b620006548e828f0162000406565b925050620006666102608d0162000494565b90509295989b509295989b9093969950565b600181811c908216806200068d57607f821691505b602082108103620006ac57634e487b7160e01b5f52602260045260245ffd5b50919050565b601f821115620006fd57805f5260205f20601f840160051c81016020851015620006d95750805b601f840160051c820191505b81811015620006fa575f8155600101620006e5565b50505b505050565b81516001600160401b038111156200071e576200071e620002ef565b62000736816200072f845462000678565b84620006b2565b602080601f8311600181146200076c575f8415620007545750858301515b5f19600386901b1c1916600185901b178555620007c6565b5f85815260208120601f198616915b828110156200079c578886015182559484019460019091019084016200077b565b5085821015620007ba57878501515f19600388901b60f8161c191681555b505060018460011b0185555b505050505050565b634e487b7160e01b5f52602160045260245ffd5b808201808211156200080257634e487b7160e01b5f52601160045260245ffd5b92915050565b602081525f82518060208401526200082881604085016020870162000362565b601f01601f19169190910160400192915050565b600c81106200085957634e487b7160e01b5f52602160045260245ffd5b9052565b604081016200086d82856200083c565b6200087c60208301846200083c565b9392505050565b60805160a051615464620008c85f395f61065801525f818161068c0152818161094901528181610dcb015281816116c301528181611d7d0152612c5b01526154645ff3fe608060405234801561000f575f80fd5b506004361061034d575f3560e01c8063907971de116101c9578063bb3c983c116100fe578063d7ff09e41161009e578063e2f829e911610079578063e2f829e91461089c578063e7fe78bc146108af578063e89e4ed6146108c2578063ec771f28146108eb575f80fd5b8063d7ff09e414610869578063dfed5c4f1461087c578063e06185701461088f575f80fd5b8063c3055fd4116100d9578063c3055fd414610797578063c56e610e146107c4578063c7637909146107cc578063d3584e8414610856575f80fd5b8063bb3c983c14610768578063bfc90f3e14610771578063c19d93fb14610784575f80fd5b8063a23410de11610169578063aad92b5611610144578063aad92b5614610729578063b76ae87514610732578063b81c78ec14610745578063bab0b81e1461075b575f80fd5b8063a23410de146106ae578063a6ac4123146106c0578063aa4fd83a146106c9575f80fd5b806394a43d16116101a457806394a43d16146106405780639f0972c414610653578063a0f97cf01461067a578063a200ac8614610687575f80fd5b8063907971de14610615578063908ff95a1461062657806392c5466d1461062e575f80fd5b8063547a6b5a1161029f578063709a4bdb1161023f5780637855daae1161021a5780637855daae146105da5780637bf6c104146105e75780637d2bd981146105ef5780639046796e14610602575f80fd5b8063709a4bdb14610592578063725a3b4b146105b457806373df6b79146105c7575f80fd5b8063629e4ed01161027a578063629e4ed0146104e157806362ea82db146104f65780636de3957d146105195780637001ad0e14610565575f80fd5b8063547a6b5a14610497578063559fd4a4146104ac5780635b06579c146104bf575f80fd5b80631f6c334b1161030a5780632fd30ab6116102e55780632fd30ab6146104395780632fe319da14610450578063337d3c2b1461047b578063373d6d5e14610484575f80fd5b80631f6c334b146103f2578063237bc67a1461040557806329adec1414610418575f80fd5b8063048c8b94146103515780630e5613d7146103665780630e6e0c8a146103795780631267e9051461038c57806314e8820f146103c55780631865c57d146103d8575b5f80fd5b61036461035f366004614102565b6108fe565b005b610364610374366004614177565b610a9a565b610364610387366004614205565b610b9a565b6103ae61039a36600461429a565b60046020525f908152604090205460ff1681565b60405160ff90911681526020015b60405180910390f35b6103646103d33660046142b3565b610c63565b5f54600160a01b900460ff165b6040516103bc91906142fc565b610364610400366004614317565b610dc6565b610364610413366004614332565b610f4d565b60025461042c90600160a01b900460ff1681565b6040516103bc919061435b565b610442602a5481565b6040519081526020016103bc565b600254610463906001600160a01b031681565b6040516001600160a01b0390911681526020016103bc565b61044260165481565b610364610492366004614369565b61106d565b61049f6110c0565b6040516103bc91906143f4565b6103646104ba366004614406565b61114c565b6017546104d190610100900460ff1681565b60405190151581526020016103bc565b6104e96112b8565b6040516103bc9190614461565b61050961050436600461429a565b611576565b6040516103bc9493929190614574565b601f5460205460215460225460235460245460255460265460275461054f98979695949392919060ff808216916101009004168a565b6040516103bc9a999897969594939291906145af565b6103ae610573366004614614565b600f60209081525f928352604080842090915290825290205460ff1681565b6103ae6105a036600461429a565b60186020525f908152604090205460ff1681565b6103646105c2366004614369565b6116aa565b600a54610463906001600160a01b031681565b6029546103ae9060ff1681565b61049f61184d565b6103646105fd36600461463c565b61185a565b601e54610463906001600160a01b031681565b600a546001600160a01b0316610463565b6103646119bf565b601c546104d190610100900460ff1681565b61046361064e36600461466a565b611a60565b6104637f000000000000000000000000000000000000000000000000000000000000000081565b600d546103ae9060ff1681565b6104637f000000000000000000000000000000000000000000000000000000000000000081565b5f54610463906001600160a01b031681565b610442601b5481565b600560209081527f1471eb6eb2c5e789fc3de43f8ce62938c7d1836ec861730447e2ada8fd81017b5460025f527f89832631fb3c3307a103ba2c84ab569c64d6182a18893dcd163f0f1c2090733a546040805192835292820152016103bc565b610442600b5481565b61046361074036600461466a565b611a88565b61074d611a97565b6040516103bc9291906146c4565b601c546104d19060ff1681565b61044260075481565b61036461077f366004614789565b611d3b565b5f546103e590600160a01b900460ff1681565b6104d16107a5366004614614565b600e60209081525f928352604080842090915290825290205460ff1681565b610442612150565b60196020527ffc941c3961fb6541da34150022cddf959da0fb2353866a6bfbd249c2da092914547f6f678ad17c55bce407239525f4bf7f1fe99197d3eb69bfdd9a0db84a9a11b5815460035f527f3e323a6e0522b016fa22111dfed945f89456f9f44f69eac00209d92607a5b94054604080519384526020840192909252908201526060016103bc565b61046361086436600461466a565b6121bf565b6103646108773660046147a4565b6121ce565b61036461088a3660046147f1565b6122fe565b6017546104d19060ff1681565b6103646108aa366004614837565b6123ed565b602b54610463906001600160a01b031681565b6108d56108d036600461466a565b612616565b6040516103bc9a9998979695949392919061486d565b6103646108f93660046148fc565b61281b565b6005805f54600160a01b900460ff16600b81111561091e5761091e6142d4565b146109445760405162461bcd60e51b815260040161093b90614919565b60405180910390fd5b61096e7f000000000000000000000000000000000000000000000000000000000000000033612a8f565b61098a5760405162461bcd60e51b815260040161093b90614950565b8160ff166001148061099f57508160ff166002145b6109dc5760405162461bcd60e51b815260206004820152600e60248201526d496e76616c69642063686f69636560901b604482015260640161093b565b60ff83165f908152600f602090815260408083206010909252909120610a0491903385612b60565b601f545f610a10612c21565b60ff86165f90815260106020908152604080832060018452909152902054909150610a3c908284612cfc565b15610a4f57610a4a85612d50565b610a93565b60ff85165f90815260106020908152604080832060028452909152902054610a78908284612cfc565b15610a9357610a88600c86612ed6565b50610a936004612fce565b5050505050565b6004805f54600160a01b900460ff16600b811115610aba57610aba6142d4565b14610ad75760405162461bcd60e51b815260040161093b90614919565b600a546001600160a01b03163314610b015760405162461bcd60e51b815260040161093b90614980565b600d54604080516020601f8601819004810282018101909252848152610b4d9260ff169187919087908790819084018382808284375f92019190915250600c95949392505061303f9050565b610b576005612fce565b8360ff167f9ae0a057a578d5e5782a3167f625c2000612c3bdb6bd2832eddf7af6ba540cd18484604051610b8c9291906149df565b60405180910390a250505050565b6002805f54600160a01b900460ff16600b811115610bba57610bba6142d4565b14610bd75760405162461bcd60e51b815260040161093b90614919565b610c10868686602a54604051602001610bf394939291906149f2565b604051602081830303815290604052805190602001208484613155565b602a8054905f610c1f83614a90565b90915550506002805487919060ff60a01b1916600160a01b836004811115610c4957610c496142d4565b0217905550610c5a60038686614078565b50505050505050565b610c6b6133e8565b6003805f54600160a01b900460ff16600b811115610c8b57610c8b6142d4565b14610ca85760405162461bcd60e51b815260040161093b90614919565b6002546001600160a01b03838116911614610cf35760405162461bcd60e51b815260206004820152600b60248201526a2bb937b733903a37b5b2b760a91b604482015260640161093b565b600b548314610d525760405162461bcd60e51b815260206004820152602560248201527f416d6f756e74206d757374206d6174636820746f74616c2070726f6a6563742060448201526476616c756560d81b606482015260840161093b565b610d5e60118484613403565b610d686004612fce565b604080518481526001600160a01b038416602082015233917ffd1cb3e06ec67f05d1020b4dfad39cdb06423270281743cddbe3eeb2c1167996910160405180910390a250610dc260015f8051602061540f83398151915255565b5050565b610df07f000000000000000000000000000000000000000000000000000000000000000033612a8f565b610e0c5760405162461bcd60e51b815260040161093b90614950565b5f805f54600160a01b900460ff16600b811115610e2b57610e2b6142d4565b14610e485760405162461bcd60e51b815260040161093b90614919565b600754421115610e915760405162461bcd60e51b8152602060048201526014602482015273159bdd1a5b99c81dda5b991bddc818db1bdcd95960621b604482015260640161093b565b5f82610e9e576002610ea1565b60015b9050610eb1600460053384612b60565b600560209081527f1471eb6eb2c5e789fc3de43f8ce62938c7d1836ec861730447e2ada8fd81017b5460025f527f89832631fb3c3307a103ba2c84ab569c64d6182a18893dcd163f0f1c2090733a546040805187151581529384018390528301819052909133907f9f352d34c102601b960f7bb28c4ba2f3f1193f3fd4e7c19e48f806abb7dd70279060600160405180910390a2610a936134a1565b6005805f54600160a01b900460ff16600b811115610f6d57610f6d6142d4565b14610f8a5760405162461bcd60e51b815260040161093b90614919565b610f933361355d565b610fd65760405162461bcd60e51b81526020600482015260146024820152732737ba10309031b7bab731b4b61036b2b6b132b960611b604482015260640161093b565b5f610fe5600c600e85336135b9565b60405160ff808316825291925033918516907f09f71012eea762a8f813dcfc9aedc6a2870a63864cf29e075d33ec91b57559969060200160405180910390a3600c8360ff168154811061103a5761103a614aa8565b5f91825260209091206006600790920201015460ff6101009091048116908216106110685761106883612d50565b505050565b60405162461bcd60e51b815260206004820152602260248201527f50726f706f73616c207375626d697474656420617420636f6e7374727563746960448201526137b760f11b606482015260840161093b565b600180546110cd90614abc565b80601f01602080910402602001604051908101604052809291908181526020018280546110f990614abc565b80156111445780601f1061111b57610100808354040283529160200191611144565b820191905f5260205f20905b81548152906001019060200180831161112757829003601f168201915b505050505081565b6004805f54600160a01b900460ff16600b81111561116c5761116c6142d4565b146111895760405162461bcd60e51b815260040161093b90614919565b60175460ff1680156111a35750601754610100900460ff16155b6111e55760405162461bcd60e51b8152602060048201526013602482015272496e76616c6964206772616e7420737461746560681b604482015260640161093b565b601654602a54604080516060602082018190526013608083015272185c1c1c9bdd99541bdc9d1a5bdb91dc985b9d606a1b60a0830152918101939093528201526112319060c001610bf3565b602a8054905f61124083614a90565b90915550506017805461ff001916610100179055600a54601654600254611278926011925f926001600160a01b039283169216613710565b7fef49c980e6060e065f37117eda4fc2f6544b5681dbfdb1ea2701bb96e8a6482a6016546040516112ab91815260200190565b60405180910390a1505050565b6060600c805480602002602001604051908101604052809291908181526020015f905b8282101561156d578382905f5260205f209060070201604051806101400160405290815f8201805461130c90614abc565b80601f016020809104026020016040519081016040528092919081815260200182805461133890614abc565b80156113835780601f1061135a57610100808354040283529160200191611383565b820191905f5260205f20905b81548152906001019060200180831161136657829003601f168201915b5050505050815260200160018201805461139c90614abc565b80601f01602080910402602001604051908101604052809291908181526020018280546113c890614abc565b80156114135780601f106113ea57610100808354040283529160200191611413565b820191905f5260205f20905b8154815290600101906020018083116113f657829003601f168201915b5050509183525050600282810154602083015260038301546040830152600483015460609092019160ff169081111561144e5761144e6142d4565b600281111561145f5761145f6142d4565b81526020016004820160019054906101000a900460ff166003811115611487576114876142d4565b6003811115611498576114986142d4565b81526020016005820180546114ac90614abc565b80601f01602080910402602001604051908101604052809291908181526020018280546114d890614abc565b80156115235780601f106114fa57610100808354040283529160200191611523565b820191905f5260205f20905b81548152906001019060200180831161150657829003601f168201915b50505091835250506006919091015460ff808216602080850191909152610100830482166040850152620100009092041660609092019190915290825260019290920191016112db565b50505050905090565b60096020525f90815260409020805460018201805491929161159790614abc565b80601f01602080910402602001604051908101604052809291908181526020018280546115c390614abc565b801561160e5780601f106115e55761010080835404028352916020019161160e565b820191905f5260205f20905b8154815290600101906020018083116115f157829003601f168201915b50505050509080600201549080600301805461162990614abc565b80601f016020809104026020016040519081016040528092919081815260200182805461165590614abc565b80156116a05780601f10611677576101008083540402835291602001916116a0565b820191905f5260205f20905b81548152906001019060200180831161168357829003601f168201915b5050505050905084565b600a546001600160a01b03163314806116e857506116e87f000000000000000000000000000000000000000000000000000000000000000033612a8f565b6117235760405162461bcd60e51b815260206004820152600c60248201526b155b985d5d1a1bdc9a5e995960a21b604482015260640161093b565b601c54610100900460ff16156117745760405162461bcd60e51b81526020600482015260166024820152754469737075746520616c72656164792061637469766560501b604482015260640161093b565b601c805461ff001916610100179055601d611790828483614b60565b50601e80546001600160a01b0319163317905560075f54600160a01b900460ff16600b8111156117c2576117c26142d4565b141580156117ed575060085f54600160a01b900460ff16600b8111156117ea576117ea6142d4565b14155b15611806576117fc6011613832565b6118066009612fce565b336001600160a01b03167f28b099eb575e23e32becd7c30dc8f9b2f98e370cdbf9841ea3338d9000402a2583836040516118419291906149df565b60405180910390a25050565b601d80546110cd90614abc565b6004805f54600160a01b900460ff16600b81111561187a5761187a6142d4565b146118975760405162461bcd60e51b815260040161093b90614919565b600a546001600160a01b031633146118c15760405162461bcd60e51b815260040161093b90614980565b60175460ff16156119145760405162461bcd60e51b815260206004820152601760248201527f4772616e7420616c726561647920726571756573746564000000000000000000604482015260640161093b565b602754600b5460649161192c9160ff90911690614c14565b6119369190614c2b565b8411156119795760405162461bcd60e51b8152602060048201526011602482015270115e18d959591cc81b585e0819dc985b9d607a1b604482015260640161093b565b60168490556017805460ff1916600117905560405133907fbe14588d55923a9e915513598f88b24d86c0eedf0ab67709b8f159d1311773b690610b8c9087815260200190565b6003805f54600160a01b900460ff16600b8111156119df576119df6142d4565b146119fc5760405162461bcd60e51b815260040161093b90614919565b600a546001600160a01b03163314611a265760405162461bcd60e51b815260040161093b90614980565b600a546040516001600160a01b03909116907fd46dad3a230b99b3bae5cda08b21773f23fd502ca0ac3c467594f0646014a55a905f90a250565b60038181548110611a6f575f80fd5b5f918252602090912001546001600160a01b0316905081565b60288181548110611a6f575f80fd5b6060805f6008805490506001600160401b03811115611ab857611ab8614af4565b604051908082528060200260200182016040528015611b1257816020015b611aff60405180608001604052805f8152602001606081526020015f8152602001606081525090565b815260200190600190039081611ad65790505b5090505f5b600854811015611cd45760095f60088381548110611b3757611b37614aa8565b905f5260205f20015f9054906101000a90046001600160a01b03166001600160a01b03166001600160a01b031681526020019081526020015f206040518060800160405290815f8201548152602001600182018054611b9590614abc565b80601f0160208091040260200160405190810160405280929190818152602001828054611bc190614abc565b8015611c0c5780601f10611be357610100808354040283529160200191611c0c565b820191905f5260205f20905b815481529060010190602001808311611bef57829003601f168201915b5050505050815260200160028201548152602001600382018054611c2f90614abc565b80601f0160208091040260200160405190810160405280929190818152602001828054611c5b90614abc565b8015611ca65780601f10611c7d57610100808354040283529160200191611ca6565b820191905f5260205f20905b815481529060010190602001808311611c8957829003601f168201915b505050505081525050828281518110611cc157611cc1614aa8565b6020908102919091010152600101611b17565b5080600880805480602002602001604051908101604052809291908181526020018280548015611d2b57602002820191905f5260205f20905b81546001600160a01b03168152600190910190602001808311611d0d575b5050505050905092509250509091565b6007805f54600160a01b900460ff16600b811115611d5b57611d5b6142d4565b14611d785760405162461bcd60e51b815260040161093b90614919565b611da27f000000000000000000000000000000000000000000000000000000000000000033612a8f565b611dbe5760405162461bcd60e51b815260040161093b90614950565b601b54421115611e055760405162461bcd60e51b8152602060048201526012602482015271159bdd19481dda5b991bddc818db1bdcd95960721b604482015260640161093b565b601c5460ff1615611e485760405162461bcd60e51b815260206004820152600d60248201526c105b1c9958591e481d9bdd1959609a1b604482015260640161093b565b5f80836003811115611e5c57611e5c6142d4565b14611e88576003836003811115611e7557611e756142d4565b14611e81576002611e8b565b6003611e8b565b60015b9050611e9b601860193384612b60565b5f611ea4612c21565b601f549091505f611ebd60198484600160026003613852565b90506001816003811115611ed357611ed36142d4565b0361202057601c805460ff191660011790555f611ef060116138dd565b1115611f1757600a54600254611f15916011916001600160a01b0391821691166138ef565b505b602b54600a546040516378a9bb4360e11b81526001600160a01b0391821660048201525f92919091169063f153768690602401602060405180830381865afa158015611f65573d5f803e3d5ffd5b505050506040513d601f19601f82011682018060405250810190611f899190614c4a565b9050801561201057602b5460408051608081018252600181525f6020820181905281830152606460608201529051637636b4b160e01b81526001600160a01b0390921691637636b4b191611fe291859190600401614c61565b5f604051808303815f87803b158015611ff9575f80fd5b505af115801561200b573d5f803e3d5ffd5b505050505b61201a6008612fce565b50612148565b6003816003811115612034576120346142d4565b0361214857601c805460ff19166001179055602b54600a546040516378a9bb4360e11b81526001600160a01b0391821660048201525f92919091169063f153768690602401602060405180830381865afa158015612094573d5f803e3d5ffd5b505050506040513d601f19601f820116820180604052508101906120b89190614c4a565b9050801561213e57602b54604080516080810182525f8082526001602083015281830181905260608201529051637636b4b160e01b81526001600160a01b0390921691637636b4b19161211091859190600401614c61565b5f604051808303815f87803b158015612127575f80fd5b505af1158015612139573d5f803e3d5ffd5b505050505b610c5a6009612fce565b505050505050565b6002546040516370a0823160e01b81523060048201525f916001600160a01b0316906370a0823190602401602060405180830381865afa158015612196573d5f803e3d5ffd5b505050506040513d601f19601f820116820180604052508101906121ba9190614c4a565b905090565b60088181548110611a6f575f80fd5b6002805f54600160a01b900460ff16600b8111156121ee576121ee6142d4565b1461220b5760405162461bcd60e51b815260040161093b90614919565b335f908152600960205260409020541561225f5760405162461bcd60e51b8152602060048201526015602482015274105b1c9958591e481cdd589b5a5d1d195908189a59605a1b604482015260640161093b565b335f90815260096020526040902082906122798282614ce2565b5050600880546001810182555f919091527ff3f7a9fe364faab93b216da50a3214154f22a0a2b415b23a84c8169e8b636ee30180546001600160a01b031916339081179091557f3eb2fab71a1de5753e125aa7b47368bd108ec2bff6e86e69cb009d365ba2f27183356122ef6020860186614ca0565b60405161184193929190614dd1565b6001805f54600160a01b900460ff16600b81111561231e5761231e6142d4565b1461233b5760405162461bcd60e51b815260040161093b90614919565b612357868686602a54604051602001610bf39493929190614df3565b602a8054905f61236683614a90565b909155505f905086600281111561237f5761237f6142d4565b036123935761238e6002612fce565b612148565b60018660028111156123a7576123a76142d4565b036123ca576123b55f612fce565b6020546123c29042614e4c565b600755612148565b60028660028111156123de576123de6142d4565b0361214857612148600b612fce565b5f546001600160a01b0316331461243b5760405162461bcd60e51b81526020600482015260126024820152714f6e6c79206d6564696174696f6e206b657960701b604482015260640161093b565b6124436133e8565b60095f54600160a01b900460ff16600b811115612462576124626142d4565b146124a05760405162461bcd60e51b815260206004820152600e60248201526d4e6f7420696e206469737075746560901b604482015260640161093b565b60145460ff16156124ba576014805460ff191690555f6013555b5f6124c560116138dd565b9050806124da60608401356040850135614e4c565b111561251a5760405162461bcd60e51b815260206004820152600f60248201526e457863656564732062616c616e636560881b604482015260640161093b565b6040820135156125695761254b612534602084018461429a565b6002546001600160a01b03169060408501356139b9565b816040013560116001015f8282546125639190614e4c565b90915550505b6060820135156125bb5761259d612586604084016020850161429a565b6002546001600160a01b03169060608501356139b9565b816060013560116001015f8282546125b59190614e4c565b90915550505b6125c56008612fce565b7fe436ee66933591ba98dbaeefbf5d8b5417d262e074bcd78323bf2b341df60ce0826040516125f49190614ea0565b60405180910390a15061261360015f8051602061540f83398151915255565b50565b600c8181548110612625575f80fd5b905f5260205f2090600702015f91509050805f01805461264490614abc565b80601f016020809104026020016040519081016040528092919081815260200182805461267090614abc565b80156126bb5780601f10612692576101008083540402835291602001916126bb565b820191905f5260205f20905b81548152906001019060200180831161269e57829003601f168201915b5050505050908060010180546126d090614abc565b80601f01602080910402602001604051908101604052809291908181526020018280546126fc90614abc565b80156127475780601f1061271e57610100808354040283529160200191612747565b820191905f5260205f20905b81548152906001019060200180831161272a57829003601f168201915b505050506002830154600384015460048501546005860180549596939592945060ff80831694610100909304169261277e90614abc565b80601f01602080910402602001604051908101604052809291908181526020018280546127aa90614abc565b80156127f55780601f106127cc576101008083540402835291602001916127f5565b820191905f5260205f20905b8154815290600101906020018083116127d857829003601f168201915b5050506006909301549192505060ff80821691610100810482169162010000909104168a565b6002805f54600160a01b900460ff16600b81111561283b5761283b6142d4565b146128585760405162461bcd60e51b815260040161093b90614919565b6001600160a01b0386165f908152600960205260409020546128b45760405162461bcd60e51b815260206004820152601560248201527410dbdb9d1c9858dd1bdc881a185cc81b9bc8189a59605a1b604482015260640161093b565b6128d0868686602a54604051602001610bf39493929190614f06565b602a8054905f6128df83614a90565b909155506128fa90506128f28587615162565b600c906139ee565b600b8190556001600160a01b0387165f90815260096020526040902054146129705760405162461bcd60e51b815260206004820152602360248201527f4d696c6573746f6e65732073756d206d75737420657175616c2062696420746f6044820152621d185b60ea1b606482015260840161093b565b61297c6011600c613bd4565b600a80546001600160a01b0319166001600160a01b03888116918217909255602b546040516378a9bb4360e11b815260048101929092525f92169063f153768690602401602060405180830381865afa1580156129db573d5f803e3d5ffd5b505050506040513d601f19601f820116820180604052508101906129ff9190614c4a565b90508015612a8557602b54604080516080810182525f8082526020820181905260018284015260608201529051637636b4b160e01b81526001600160a01b0390921691637636b4b191612a5791859190600401614c61565b5f604051808303815f87803b158015612a6e575f80fd5b505af1158015612a80573d5f803e3d5ffd5b505050505b610c5a6003612fce565b6040516001600160a01b0382811660248301525f91829182919086169060440160408051601f198184030181529181526020820180516001600160e01b031663288c314960e21b17905251612ae491906152bd565b5f60405180830381855afa9150503d805f8114612b1c576040519150601f19603f3d011682016040523d82523d5f602084013e612b21565b606091505b5091509150811580612b3257508051155b15612b41575f92505050612b5a565b80806020019051810190612b5591906152d8565b925050505b92915050565b8060ff165f03612b8357604051639c45400160e01b815260040160405180910390fd5b6001600160a01b0382165f9081526020859052604090205460ff1615612bbc57604051637c9a1cf960e01b815260040160405180910390fd5b6001600160a01b0382165f90815260208581526040808320805460ff191660ff86169081179091558352908590528120805460019290612bfd908490614e4c565b9091555050600183810180545f90612c16908490614e4c565b909155505050505050565b60408051600481526024810182526020810180516001600160e01b031663997072f760e01b17905290515f91829182916001600160a01b037f00000000000000000000000000000000000000000000000000000000000000001691612c8691906152bd565b5f60405180830381855afa9150503d805f8114612cbe576040519150601f19603f3d011682016040523d82523d5f602084013e612cc3565b606091505b5091509150811580612cd457508051155b15612ce1575f9250505090565b80806020019051810190612cf59190614c4a565b9250505090565b5f612710821115612d205760405163aabd5a0960e01b815260040160405180910390fd5b825f03612d2e57505f612d49565b612d388284614c14565b612d4485612710614c14565b101590505b9392505050565b612d586133e8565b5f612d64600c83613c32565b90505f600c8360ff1681548110612d7d57612d7d614aa8565b905f5260205f2090600702016002015490508260ff165f148015612da85750601754610100900460ff165b15612dcc576016548111612dbc575f612dc9565b601654612dc990826152f3565b90505b8015612df557600a54600254612df59160119186916001600160a01b0390811691869116613710565b600a546040518281526001600160a01b039091169060ff8516907f535d535d0f5514d08a69feaafcb7009413ee9642cb5aefeba7498af2c0de14739060200160405180910390a3600d805460ff16905f612e4e83615306565b91906101000a81548160ff021916908360ff160217905550508115612eb457602154612e7a9042614e4c565b601b55612e876007612fce565b6040517f26b940a333ee61646b8b37fc5b1d35de96367a200813350f55555978a4f005f7905f90a1612ebe565b612ebe6004612fce565b505061261360015f8051602061540f83398151915255565b81545f9060ff831610612efc5760405163fdf4d87360e01b815260040160405180910390fd5b5f838360ff1681548110612f1257612f12614aa8565b5f9182526020909120600790910201905060016004820154610100900460ff166003811115612f4357612f436142d4565b14612f6157604051630ca5937360e41b815260040160405180910390fd5b60048101805461ff00191661030017905560068101805460019190600290612f9390849062010000900460ff16615324565b82546101009290920a60ff818102199093169183160217909155600692909201805460ff191690819055620100009004909116949350505050565b5f8054600160a01b80820460ff16928492909160ff60a01b199091169083600b811115612ffd57612ffd6142d4565b02179055507f3a779de46631dd65116ae538600f1bc3c338200c6aef638429b5de43301c28f7818360405161303392919061533d565b60405180910390a15050565b835460ff8316106130635760405163fdf4d87360e01b815260040160405180910390fd5b8260ff168260ff16146130965760405163cb0ca13760e01b815260ff80851660048301528316602482015260440161093b565b5f848360ff16815481106130ac576130ac614aa8565b5f9182526020822060079091020191506004820154610100900460ff1660038111156130da576130da6142d4565b14158015613106575060036004820154610100900460ff166003811115613103576131036142d4565b14155b15613124576040516323a244ef60e11b815260040160405180910390fd5b600581016131328382615358565b5060048101805461ff001916610100179055600601805460ff1916905550505050565b60295460ff168110156131aa5760405162461bcd60e51b815260206004820152601760248201527f496e73756666696369656e74207369676e617475726573000000000000000000604482015260640161093b565b7f19457468657265756d205369676e6564204d6573736167653a0a3332000000005f908152601c849052603c812090826001600160401b038111156131f1576131f1614af4565b60405190808252806020026020018201604052801561321a578160200160208202803683370190505b5090505f805b84811015613382575f61328c87878481811061323e5761323e614aa8565b90506020028101906132509190614ca0565b8080601f0160208091040260200160405190810160405280939291908181526020018383808284375f920191909152508993925050613cdf9050565b90505f5b60285481101561337857816001600160a01b0316602882815481106132b7576132b7614aa8565b5f918252602090912001546001600160a01b031603613370575f805b8560ff1681101561332157836001600160a01b03168782815181106132fa576132fa614aa8565b60200260200101516001600160a01b0316036133195760019150613321565b6001016132d3565b508061336e5782868661333381615306565b975060ff168151811061334857613348614aa8565b60200260200101906001600160a01b031690816001600160a01b03168152505050613378565b505b600101613290565b5050600101613220565b5060295460ff90811690821610156121485760405162461bcd60e51b815260206004820152602360248201527f4e6f7420656e6f7567682076616c696420636f756e63696c207369676e61747560448201526272657360e81b606482015260840161093b565b6133f0613d07565b60025f8051602061540f83398151915255565b600383015460ff1615613429576040516350fab9ad60e11b815260040160405180910390fd5b6001600160a01b0381166134505760405163c1ab6dc160e01b815260040160405180910390fd5b815f0361347057604051631f2a200560e01b815260040160405180910390fd5b6134856001600160a01b038216333085613d38565b81835f015f8282546134979190614e4c565b9091555050505050565b5f6134aa612c21565b9050805f036134b65750565b60015f5260056020527f1471eb6eb2c5e789fc3de43f8ce62938c7d1836ec861730447e2ada8fd81017b54601f546134ee9083614c14565b6134fa82612710614c14565b10610dc2577f3a779de46631dd65116ae538600f1bc3c338200c6aef638429b5de43301c28f75f60149054906101000a900460ff16600160405161353f92919061533d565b60405180910390a150505f805460ff60a01b1916600160a01b179055565b5f805b6028548110156135b157826001600160a01b03166028828154811061358757613587614aa8565b5f918252602090912001546001600160a01b0316036135a95750600192915050565b600101613560565b505f92915050565b83545f9060ff8416106135df5760405163fdf4d87360e01b815260040160405180910390fd5b5f858460ff16815481106135f5576135f5614aa8565b5f9182526020909120600790910201905060016004820154610100900460ff166003811115613626576136266142d4565b1461364457604051630ca5937360e41b815260040160405180910390fd5b60ff8085165f908152602087815260408083206001600160a01b0388168452909152902054161561369357604051634218e49b60e01b81526001600160a01b038416600482015260240161093b565b60ff8085165f908152602087815260408083206001600160a01b03881684529091528120805460ff1916600190811790915560068401805491939092916136dc91859116615324565b92506101000a81548160ff021916908360ff160217905550806006015f9054906101000a900460ff16915050949350505050565b600385015460ff1615613736576040516350fab9ad60e11b815260040160405180910390fd5b6001600160a01b03831661375d57604051634e46966960e11b815260040160405180910390fd5b6001600160a01b0381166137845760405163c1ab6dc160e01b815260040160405180910390fd5b815f036137a457604051631f2a200560e01b815260040160405180910390fd5b60ff84165f908152600486016020526040902054828110156137e35760405163486235f760e11b8152600481018290526024810184905260440161093b565b6137ed83826152f3565b60ff86165f908152600488016020526040812091909155600187018054859290613818908490614e4c565b9091555061214890506001600160a01b03831685856139b9565b60038101805460ff1916600117905561384a816138dd565b600290910155565b60ff81165f9081526020879052604081205461386f908787612cfc565b1561387c575060036138d3565b60ff84165f90815260208890526040902054613899908787612cfc565b156138a6575060016138d3565b60ff83165f908152602088905260409020546138c3908787612cfc565b156138d0575060026138d3565b505f5b9695505050505050565b600181015481545f91612b5a916152f3565b60038301545f9060ff1615613917576040516350fab9ad60e11b815260040160405180910390fd5b6001600160a01b03831661393e57604051634e46966960e11b815260040160405180910390fd5b6001600160a01b0382166139655760405163c1ab6dc160e01b815260040160405180910390fd5b61396e846138dd565b9050805f036139905760405163048a359d60e11b815260040160405180910390fd5b80846001015f8282546139a39190614e4c565b90915550612d4990506001600160a01b03831684835b6139c68383836001613d74565b61106857604051635274afe760e01b81526001600160a01b038416600482015260240161093b565b81545f9015613a10576040516395d267d560e01b815260040160405180910390fd5b81515f03613a3157604051635dfece3f60e01b815260040160405180910390fd5b5f5b8251811015613bcd57828181518110613a4e57613a4e614aa8565b6020026020010151604001515f03613a795760405163095e05d160e41b815260040160405180910390fd5b83838281518110613a8c57613a8c614aa8565b60209081029190910181015182546001810184555f938452919092208251600790920201908190613abd9082615358565b5060208201516001820190613ad29082615358565b5060408201518160020155606082015181600301556080820151816004015f6101000a81548160ff02191690836002811115613b1057613b106142d4565b021790555060a082015160048201805461ff001916610100836003811115613b3a57613b3a6142d4565b021790555060c08201516005820190613b539082615358565b5060e082015160069091018054610100808501516101209095015160ff908116620100000262ff00001996821690920261ffff1990931694169390931717929092161790558251839082908110613bac57613bac614aa8565b60200260200101516040015182613bc39190614e4c565b9150600101613a33565b5092915050565b5f5b815460ff8216101561106857818160ff1681548110613bf757613bf7614aa8565b5f91825260208083206002600790930201919091015460ff841683526004860190915260409091205580613c2a81615306565b915050613bd6565b81545f9060ff831610613c585760405163fdf4d87360e01b815260040160405180910390fd5b5f838360ff1681548110613c6e57613c6e614aa8565b5f9182526020909120600790910201905060016004820154610100900460ff166003811115613c9f57613c9f6142d4565b14613cbd57604051630ca5937360e41b815260040160405180910390fd5b60048101805461ff001916610200179055613cd784613dd6565b949350505050565b5f805f80613ced8686613e42565b925092509250613cfd8282613e8b565b5090949350505050565b5f8051602061540f83398151915254600203613d3657604051633ee5aeb560e01b815260040160405180910390fd5b565b613d46848484846001613f43565b613d6e57604051635274afe760e01b81526001600160a01b038516600482015260240161093b565b50505050565b60405163a9059cbb60e01b5f8181526001600160a01b038616600452602485905291602083604481808b5af1925060015f51148316613dca578383151615613dbe573d5f823e3d81fd5b5f873b113d1516831692505b60405250949350505050565b5f805b8254811015613e39576002838281548110613df657613df6614aa8565b905f5260205f20906007020160040160019054906101000a900460ff166003811115613e2457613e246142d4565b14613e3157505f92915050565b600101613dd9565b50600192915050565b5f805f8351604103613e79576020840151604085015160608601515f1a613e6b88828585613fb0565b955095509550505050613e84565b505081515f91506002905b9250925092565b5f826003811115613e9e57613e9e6142d4565b03613ea7575050565b6001826003811115613ebb57613ebb6142d4565b03613ed95760405163f645eedf60e01b815260040160405180910390fd5b6002826003811115613eed57613eed6142d4565b03613f0e5760405163fce698f760e01b81526004810182905260240161093b565b6003826003811115613f2257613f226142d4565b03610dc2576040516335e2f38360e21b81526004810182905260240161093b565b6040516323b872dd60e01b5f8181526001600160a01b038781166004528616602452604485905291602083606481808c5af1925060015f51148316613f9f578383151615613f93573d5f823e3d81fd5b5f883b113d1516831692505b604052505f60605295945050505050565b5f80807f7fffffffffffffffffffffffffffffff5d576e7357a4501ddfe92f46681b20a0841115613fe957505f9150600390508261406e565b604080515f808252602082018084528a905260ff891692820192909252606081018790526080810186905260019060a0016020604051602081039080840390855afa15801561403a573d5f803e3d5ffd5b5050604051601f1901519150506001600160a01b03811661406557505f92506001915082905061406e565b92505f91508190505b9450945094915050565b828054828255905f5260205f209081019282156140c9579160200282015b828111156140c95781546001600160a01b0319166001600160a01b03843516178255602090920191600190910190614096565b506140d59291506140d9565b5090565b5b808211156140d5575f81556001016140da565b803560ff811681146140fd575f80fd5b919050565b5f8060408385031215614113575f80fd5b61411c836140ed565b915061412a602084016140ed565b90509250929050565b5f8083601f840112614143575f80fd5b5081356001600160401b03811115614159575f80fd5b602083019150836020828501011115614170575f80fd5b9250929050565b5f805f60408486031215614189575f80fd5b614192846140ed565b925060208401356001600160401b038111156141ac575f80fd5b6141b886828701614133565b9497909650939450505050565b5f8083601f8401126141d5575f80fd5b5081356001600160401b038111156141eb575f80fd5b6020830191508360208260051b8501011115614170575f80fd5b5f805f805f60608688031215614219575f80fd5b853560058110614227575f80fd5b945060208601356001600160401b0380821115614242575f80fd5b61424e89838a016141c5565b90965094506040880135915080821115614266575f80fd5b50614273888289016141c5565b969995985093965092949392505050565b80356001600160a01b03811681146140fd575f80fd5b5f602082840312156142aa575f80fd5b612d4982614284565b5f80604083850312156142c4575f80fd5b8235915061412a60208401614284565b634e487b7160e01b5f52602160045260245ffd5b600c81106142f8576142f86142d4565b9052565b60208101612b5a82846142e8565b8015158114612613575f80fd5b5f60208284031215614327575f80fd5b8135612d498161430a565b5f60208284031215614342575f80fd5b612d49826140ed565b600581106142f8576142f86142d4565b60208101612b5a828461434b565b5f806020838503121561437a575f80fd5b82356001600160401b0381111561438f575f80fd5b61439b85828601614133565b90969095509350505050565b5f5b838110156143c15781810151838201526020016143a9565b50505f910152565b5f81518084526143e08160208601602086016143a7565b601f01601f19169290920160200192915050565b602081525f612d4960208301846143c9565b5f8060208385031215614417575f80fd5b82356001600160401b0381111561442c575f80fd5b61439b858286016141c5565b60038110612613576126136142d4565b6142f881614438565b600481106142f8576142f86142d4565b5f60208083018184528085518083526040925060408601915060408160051b8701018488015f5b8381101561456657603f19898403018552815161014081518186526144af828701826143c9565b915050888201518582038a8701526144c782826143c9565b915050878201518886015260608083015181870152506080808301516144ef82880182614448565b505060a08083015161450382880182614451565b505060c0808301518683038288015261451c83826143c9565b9250505060e0808301516145348288018260ff169052565b50506101008281015160ff90811691870191909152610120928301511691909401529386019390860190600101614488565b509098975050505050505050565b848152608060208201525f61458c60808301866143c9565b84604084015282810360608401526145a481856143c9565b979650505050505050565b5f610140820190508b82528a60208301528960408301528860608301528760808301528660a08301528560c08301528460e083015260ff8416610100830152600883106145fe576145fe6142d4565b826101208301529b9a5050505050505050505050565b5f8060408385031215614625575f80fd5b61462e836140ed565b915061412a60208401614284565b5f805f6040848603121561464e575f80fd5b8335925060208401356001600160401b038111156141ac575f80fd5b5f6020828403121561467a575f80fd5b5035919050565b5f815180845260208085019450602084015f5b838110156146b95781516001600160a01b031687529582019590820190600101614694565b509495945050505050565b5f6040808301604084528086518083526060925060608601915060608160051b8701016020808a015f5b8481101561475257605f198a8503018652815160808151865284820151818688015261471c828801826143c9565b915050898201518a8701528882015191508581038987015261473e81836143c9565b9785019795505050908201906001016146ee565b5050878203908801526147658189614681565b9998505050505050505050565b60048110612613575f80fd5b80356140fd81614772565b5f60208284031215614799575f80fd5b8135612d4981614772565b5f602082840312156147b4575f80fd5b81356001600160401b038111156147c9575f80fd5b820160808185031215612d49575f80fd5b60038110612613575f80fd5b80356140fd816147da565b5f805f805f60608688031215614805575f80fd5b8535614810816147da565b945060208601356001600160401b038082111561482b575f80fd5b61424e89838a01614133565b5f60208284031215614847575f80fd5b81356001600160401b0381111561485c575f80fd5b820160a08185031215612d49575f80fd5b5f6101408083526148808184018e6143c9565b90508281036020840152614894818d6143c9565b90508a60408401528960608401526148ab89614438565b8860808401526148be60a0840189614451565b82810360c08401526148d081886143c9565b60ff96871660e08501529486166101008401525050921661012090920191909152979650505050505050565b5f805f805f60608688031215614910575f80fd5b61422786614284565b6020808252601d908201527f496e76616c696420737461746520666f72207468697320616374696f6e000000604082015260600190565b6020808252601690820152754f6e6c7920636f6d6d756e697479206d656d6265727360501b604082015260600190565b60208082526017908201527f4f6e6c79206177617264656420636f6e74726163746f72000000000000000000604082015260600190565b81835281816020850137505f828201602090810191909152601f909101601f19169091010190565b602081525f613cd76020830184866149b7565b60808152600d60808201526c383ab13634b9b42a32b73232b960991b60a08201525f60c082016020614a27602085018961434b565b60c0604085015290859052859060e084015f5b87811015614a66576001600160a01b03614a5385614284565b1682529282019290820190600101614a3a565b5080935050505082606083015295945050505050565b634e487b7160e01b5f52601160045260245ffd5b5f60018201614aa157614aa1614a7c565b5060010190565b634e487b7160e01b5f52603260045260245ffd5b600181811c90821680614ad057607f821691505b602082108103614aee57634e487b7160e01b5f52602260045260245ffd5b50919050565b634e487b7160e01b5f52604160045260245ffd5b601f82111561106857805f5260205f20601f840160051c81016020851015614b2d5750805b601f840160051c820191505b81811015610a93575f8155600101614b39565b5f19600383901b1c191660019190911b1790565b6001600160401b03831115614b7757614b77614af4565b614b8b83614b858354614abc565b83614b08565b5f601f841160018114614bb7575f8515614ba55750838201355b614baf8682614b4c565b845550610a93565b5f83815260208120601f198716915b82811015614be65786850135825560209485019460019092019101614bc6565b5086821015614c02575f1960f88860031b161c19848701351681555b505060018560011b0183555050505050565b8082028115828204841417612b5a57612b5a614a7c565b5f82614c4557634e487b7160e01b5f52601260045260245ffd5b500490565b5f60208284031215614c5a575f80fd5b5051919050565b5f60a08201905083825282511515602083015260208301511515604083015260408301511515606083015260ff60608401511660808301529392505050565b5f808335601e19843603018112614cb5575f80fd5b8301803591506001600160401b03821115614cce575f80fd5b602001915036819003821315614170575f80fd5b8135815560018082016020614cfa6020860186614ca0565b6001600160401b03811115614d1157614d11614af4565b614d2581614d1f8654614abc565b86614b08565b5f601f821160018114614d51575f8315614d3f5750838201355b614d498482614b4c565b875550614da5565b5f86815260208120601f198516915b82811015614d7d5786850135825593870193908901908701614d60565b5084821015614d99575f1960f88660031b161c19848701351681555b505060018360011b0186555b5050505050505060408201356002820155614dc36060830183614ca0565b613d6e818360038601614b60565b838152604060208201525f614dea6040830184866149b7565b95945050505050565b60808152600f60808201526e31b7bab731b4b62232b1b4b9b4b7b760891b60a0820152614e1f85614438565b84602082015260c060408201525f614e3b60c0830185876149b7565b905082606083015295945050505050565b80820180821115612b5a57612b5a614a7c565b5f808335601e19843603018112614e74575f80fd5b83016020810192503590506001600160401b03811115614e92575f80fd5b803603821315614170575f80fd5b602081525f6001600160a01b0380614eb785614284565b16602084015280614eca60208601614284565b166040840152506040830135606083015260608301356080830152614ef26080840184614e5f565b60a080850152612b5560c0850182846149b7565b60808152600d60808201525f60a06c185dd85c9910dbdb9d1c9858dd609a1b60a084015260c0808401602060018060a01b038a166020870152604060c060408801528289845260e0935060e08801905060e08a60051b8901018b5f5b8c811015615083578a830360df190184528135368f900361013e19018112614f88575f80fd5b8e01610140614f978280614e5f565b828752614fa783880182846149b7565b92505050614fb788830183614e5f565b8683038a880152614fc98382846149b7565b9250505086820135878601526060808301358187015250614fec608083016147e6565b614ff96080870182614448565b506150058b830161477e565b6150118c870182614451565b5061501e8a830183614e5f565b8683038c8801526150308382846149b7565b9250505061503f8983016140ed565b60ff16898601526101006150548382016140ed565b60ff16908601526101206150698382016140ed565b60ff16950194909452509285019290850190600101614f62565b50508097505050505050505082606083015295945050505050565b60405161014081016001600160401b03811182821017156150c1576150c1614af4565b60405290565b604051601f8201601f191681016001600160401b03811182821017156150ef576150ef614af4565b604052919050565b5f82601f830112615106575f80fd5b81356001600160401b0381111561511f5761511f614af4565b615132601f8201601f19166020016150c7565b818152846020838601011115615146575f80fd5b816020850160208301375f918101602001919091529392505050565b5f6001600160401b038084111561517b5761517b614af4565b8360051b602061518c8183016150c7565b8681529185019181810190368411156151a3575f80fd5b865b848110156152b1578035868111156151bb575f80fd5b88016101403682900312156151ce575f80fd5b6151d661509e565b8135888111156151e4575f80fd5b6151f0368285016150f7565b8252508582013588811115615203575f80fd5b61520f368285016150f7565b8288015250604082810135908201526060808301359082015260806152358184016147e6565b9082015260a061524683820161477e565b9082015260c0828101358981111561525c575f80fd5b615268368286016150f7565b82840152505060e061527b8184016140ed565b9082015261010061528d8382016140ed565b9082015261012061529f8382016140ed565b908201528452509183019183016151a5565b50979650505050505050565b5f82516152ce8184602087016143a7565b9190910192915050565b5f602082840312156152e8575f80fd5b8151612d498161430a565b81810381811115612b5a57612b5a614a7c565b5f60ff821660ff810361531b5761531b614a7c565b60010192915050565b60ff8181168382160190811115612b5a57612b5a614a7c565b6040810161534b82856142e8565b612d4960208301846142e8565b81516001600160401b0381111561537157615371614af4565b6153858161537f8454614abc565b84614b08565b602080601f8311600181146153b3575f84156153a15750858301515b6153ab8582614b4c565b865550612148565b5f85815260208120601f198616915b828110156153e1578886015182559484019460019091019084016153c2565b50858210156153fe57878501515f19600388901b60f8161c191681555b5050505050600190811b0190555056fe9b779b17422d0df92223018b32b4d1fa46e071723d6817e2486d003becc55f00a26469706673582212208b86701e62c99e986a211ab976172099843651b7023b09ebd8adc9fe9b3ba80264736f6c63430008180033a26469706673582212200f1a2c83cca3cfc213240078fcd65f017ac20e8936b3d77e8db26905360d763264736f6c6343000818003360c060405234801562000010575f80fd5b506040516200385f3803806200385f8339810160408190526200003391620007c4565b60017f9b779b17422d0df92223018b32b4d1fa46e071723d6817e2486d003becc55f00556001600160a01b0389811660805288811660a0525f80546001600160a01b03191691891691909117905560016200008f87826200095c565b50600280546001600160a01b0386166001600160a01b03198216811783558592916001600160a81b03191617600160a01b836004811115620000d557620000d562000a28565b02179055508151620000ef906003906020850190620003b8565b5080516200010590600f906020840190620003b8565b506002815162000116919062000a3c565b6200012390600162000a5c565b6011805460ff929092166101000261ff00199092169190911790556200014b600486620001b6565b6006555f805460ff60a01b1916600160a11b1790556040516001600160a01b038a16907ffa3e6b306fe3949082f49568118104348788c41ec3b9b4195224b41edb4b142f906200019f908990879062000a82565b60405180910390a250505050505050505062000aee565b81545f9015620001d9576040516395d267d560e01b815260040160405180910390fd5b81515f03620001fb57604051635dfece3f60e01b815260040160405180910390fd5b5f5b8251811015620003b1578281815181106200021c576200021c62000ada565b6020026020010151604001515f03620002485760405163095e05d160e41b815260040160405180910390fd5b838382815181106200025e576200025e62000ada565b60209081029190910181015182546001810184555f9384529190922082516007909202019081906200029190826200095c565b5060208201516001820190620002a890826200095c565b5060408201518160020155606082015181600301556080820151816004015f6101000a81548160ff02191690836002811115620002e957620002e962000a28565b021790555060a082015160048201805461ff00191661010083600381111562000316576200031662000a28565b021790555060c082015160058201906200033190826200095c565b5060e082015160069091018054610100808501516101209095015160ff908116620100000262ff00001996821690920261ffff19909316941693909317179290921617905582518390829081106200038d576200038d62000ada565b60200260200101516040015182620003a6919062000a5c565b9150600101620001fd565b5092915050565b828054828255905f5260205f209081019282156200040e579160200282015b828111156200040e57825182546001600160a01b0319166001600160a01b03909116178255602090920191600190910190620003d7565b506200041c92915062000420565b5090565b5b808211156200041c575f815560010162000421565b80516001600160a01b03811681146200044d575f80fd5b919050565b634e487b7160e01b5f52604160045260245ffd5b60405161014081016001600160401b03811182821017156200048c576200048c62000452565b60405290565b604051601f8201601f191681016001600160401b0381118282101715620004bd57620004bd62000452565b604052919050565b5f5b83811015620004e1578181015183820152602001620004c7565b50505f910152565b5f82601f830112620004f9575f80fd5b81516001600160401b0381111562000515576200051562000452565b6200052a601f8201601f191660200162000492565b8181528460208386010111156200053f575f80fd5b62000552826020830160208701620004c5565b949350505050565b5f6001600160401b0382111562000575576200057562000452565b5060051b60200190565b8051600381106200044d575f80fd5b8051600481106200044d575f80fd5b805160ff811681146200044d575f80fd5b5f82601f830112620005be575f80fd5b81516020620005d7620005d1836200055a565b62000492565b82815260059290921b84018101918181019086841115620005f6575f80fd5b8286015b848110156200073e5780516001600160401b03808211156200061a575f80fd5b90880190610140828b03601f190181131562000634575f80fd5b6200063e62000466565b87840151838111156200064f575f80fd5b6200065f8d8a83880101620004e9565b8252506040808501518481111562000675575f80fd5b620006858e8b83890101620004e9565b8a84015250606080860151828401526080915081860151818401525060a0620006b08187016200057f565b8284015260c09150620006c58287016200058e565b9083015260e08581015185811115620006dc575f80fd5b620006ec8f8c838a0101620004e9565b83850152506101009450620007038587016200059d565b9083015250610120620007188582016200059d565b84830152620007298386016200059d565b908201528652505050918301918301620005fa565b509695505050505050565b8051600581106200044d575f80fd5b5f82601f83011262000768575f80fd5b815160206200077b620005d1836200055a565b8083825260208201915060208460051b8701019350868411156200079d575f80fd5b602086015b848110156200073e57620007b68162000436565b8352918301918301620007a2565b5f805f805f805f805f6101208a8c031215620007de575f80fd5b620007e98a62000436565b9850620007f960208b0162000436565b97506200080960408b0162000436565b60608b01519097506001600160401b038082111562000826575f80fd5b620008348d838e01620004e9565b975060808c01519150808211156200084a575f80fd5b620008588d838e01620005ae565b96506200086860a08d0162000436565b95506200087860c08d0162000749565b945060e08c01519150808211156200088e575f80fd5b6200089c8d838e0162000758565b93506101008c0151915080821115620008b3575f80fd5b50620008c28c828d0162000758565b9150509295985092959850929598565b600181811c90821680620008e757607f821691505b6020821081036200090657634e487b7160e01b5f52602260045260245ffd5b50919050565b601f8211156200095757805f5260205f20601f840160051c81016020851015620009335750805b601f840160051c820191505b8181101562000954575f81556001016200093f565b50505b505050565b81516001600160401b0381111562000978576200097862000452565b6200099081620009898454620008d2565b846200090c565b602080601f831160018114620009c6575f8415620009ae5750858301515b5f19600386901b1c1916600185901b17855562000a20565b5f85815260208120601f198616915b82811015620009f657888601518255948401946001909101908401620009d5565b508582101562000a1457878501515f19600388901b60f8161c191681555b505060018460011b0185555b505050505050565b634e487b7160e01b5f52602160045260245ffd5b5f8262000a5757634e487b7160e01b5f52601260045260245ffd5b500490565b8082018082111562000a7c57634e487b7160e01b5f52601160045260245ffd5b92915050565b604081525f835180604084015262000aa2816060850160208801620004c5565b601f01601f1916820160600190506005831062000acd57634e487b7160e01b5f52602160045260245ffd5b8260208301529392505050565b634e487b7160e01b5f52603260045260245ffd5b60805160a051612d2c62000b335f395f81816103de01526107fb01525f81816101f001528181610e1701528181610f76015281816110ec01526114140152612d2c5ff3fe608060405234801561000f575f80fd5b50600436106101e7575f3560e01c806392d36a7111610109578063b6d6755c1161009e578063d3584e841161006e578063d3584e841461048c578063d7ff09e41461049f578063e2f829e9146104b2578063e89e4ed6146104c5575f80fd5b8063b6d6755c1461044b578063c19d93fb1461045e578063c56e610e14610471578063c662900514610479575f80fd5b8063a0f97cf0116100d9578063a0f97cf014610400578063a23410de1461040d578063aaccfafe1461041f578063aad92b5614610434575f80fd5b806392d36a711461039157806394a43d16146103b357806398b474b8146103c65780639f0972c4146103d9575f80fd5b80634b132b0a1161017f57806371034cfc1161014f57806371034cfc14610346578063725a3b4b1461035957806375efbc8c1461036c57806392c5466d1461037e575f80fd5b80634b132b0a146102cb5780635c975abb146102ea578063629e4ed01461030e57806362ea82db14610323575f80fd5b80631865c57d116101ba5780631865c57d1461026a57806329adec14146102845780632b0fda87146102a55780632fe319da146102b8575f80fd5b806302d05d3f146101eb5780630e5613d71461022f57806314e8820f1461024457806316c38b3c14610257575b5f80fd5b6102127f000000000000000000000000000000000000000000000000000000000000000081565b6040516001600160a01b0390911681526020015b60405180910390f35b61024261023d366004612381565b6104ee565b005b6102426102523660046123e6565b610650565b61024261026536600461241f565b6107f0565b5f54600160a01b900460ff165b6040516102269190612453565b60025461029890600160a01b900460ff1681565b604051610226919061246d565b6102126102b3366004612481565b610875565b600254610212906001600160a01b031681565b6011546102d89060ff1681565b60405160ff9091168152602001610226565b6011546102fe906301000000900460ff1681565b6040519015158152602001610226565b61031661089d565b60405161022691906124ff565b610336610331366004612612565b610b5b565b604051610226949392919061262b565b610242610354366004612666565b610c8f565b61024261036736600461268e565b610f41565b6011546102d890610100900460ff1681565b6011546102fe9062010000900460ff1681565b6102fe61039f366004612612565b60106020525f908152604090205460ff1681565b6102126103c1366004612481565b6110d2565b6102426103d4366004612612565b6110e1565b6102127f000000000000000000000000000000000000000000000000000000000000000081565b6005546102d89060ff1681565b5f54610212906001600160a01b031681565b61042761130e565b60405161022691906126cd565b61043d60065481565b604051908152602001610226565b600e54610212906001600160a01b031681565b5f5461027790600160a01b900460ff1681565b61043d61139a565b6102426104873660046126df565b611409565b61021261049a366004612481565b6115c2565b6102426104ad3660046126f8565b6115d1565b6102426104c036600461272f565b611752565b6104d86104d3366004612481565b6119ac565b6040516102269a99989796959493929190612766565b600e546001600160a01b0316331461053f5760405162461bcd60e51b815260206004820152600f60248201526e27b7363c9031b7b73a3930b1ba37b960891b60448201526064015b60405180910390fd5b6011546301000000900460ff16156105695760405162461bcd60e51b8152600401610536906127f3565b60045f54600160a01b900460ff16600b8111156105885761058861243f565b146105c25760405162461bcd60e51b815260206004820152600a6024820152694e6f742061637469766560b01b6044820152606401610536565b600554604080516020601f850181900481028201810190925283815261060e9260ff169186919086908690819084018382808284375f920191909152506004959493925050611bb19050565b8260ff167f9ae0a057a578d5e5782a3167f625c2000612c3bdb6bd2832eddf7af6ba540cd1838360405161064392919061283b565b60405180910390a2505050565b610658611cc7565b6011546301000000900460ff16156106825760405162461bcd60e51b8152600401610536906127f3565b60035f54600160a01b900460ff16600b8111156106a1576106a161243f565b146106e55760405162461bcd60e51b81526020600482015260146024820152734e6f7420696e206177617264656420737461746560601b6044820152606401610536565b6002546001600160a01b038281169116146107305760405162461bcd60e51b815260206004820152600b60248201526a2bb937b733903a37b5b2b760a91b6044820152606401610536565b60065482146107815760405162461bcd60e51b815260206004820152601760248201527f416d6f756e74206d757374206d6174636820746f74616c0000000000000000006044820152606401610536565b61078d60078383611ce2565b5f8054600160a21b60ff60a01b1990911617905560405182815233907f511c3b325f63024e6754176648b89f4bab878b1712366d9bf3729c501dcbad799060200160405180910390a26107ec60015f80516020612cd783398151915255565b5050565b336001600160a01b037f000000000000000000000000000000000000000000000000000000000000000016146108575760405162461bcd60e51b815260206004820152600c60248201526b4f6e6c7920666163746f727960a01b6044820152606401610536565b6011805491151563010000000263ff00000019909216919091179055565b600f8181548110610884575f80fd5b5f918252602090912001546001600160a01b0316905081565b60606004805480602002602001604051908101604052809291908181526020015f905b82821015610b52578382905f5260205f209060070201604051806101400160405290815f820180546108f19061284e565b80601f016020809104026020016040519081016040528092919081815260200182805461091d9061284e565b80156109685780601f1061093f57610100808354040283529160200191610968565b820191905f5260205f20905b81548152906001019060200180831161094b57829003601f168201915b505050505081526020016001820180546109819061284e565b80601f01602080910402602001604051908101604052809291908181526020018280546109ad9061284e565b80156109f85780601f106109cf576101008083540402835291602001916109f8565b820191905f5260205f20905b8154815290600101906020018083116109db57829003601f168201915b5050509183525050600282810154602083015260038301546040830152600483015460609092019160ff1690811115610a3357610a3361243f565b6002811115610a4457610a4461243f565b81526020016004820160019054906101000a900460ff166003811115610a6c57610a6c61243f565b6003811115610a7d57610a7d61243f565b8152602001600582018054610a919061284e565b80601f0160208091040260200160405190810160405280929190818152602001828054610abd9061284e565b8015610b085780601f10610adf57610100808354040283529160200191610b08565b820191905f5260205f20905b815481529060010190602001808311610aeb57829003601f168201915b50505091835250506006919091015460ff808216602080850191909152610100830482166040850152620100009092041660609092019190915290825260019290920191016108c0565b50505050905090565b600d6020525f908152604090208054600182018054919291610b7c9061284e565b80601f0160208091040260200160405190810160405280929190818152602001828054610ba89061284e565b8015610bf35780601f10610bca57610100808354040283529160200191610bf3565b820191905f5260205f20905b815481529060010190602001808311610bd657829003601f168201915b505050505090806002015490806003018054610c0e9061284e565b80601f0160208091040260200160405190810160405280929190818152602001828054610c3a9061284e565b8015610c855780601f10610c5c57610100808354040283529160200191610c85565b820191905f5260205f20905b815481529060010190602001808311610c6857829003601f168201915b5050505050905084565b6011546301000000900460ff1615610cb95760405162461bcd60e51b8152600401610536906127f3565b600160048360ff1681548110610cd157610cd1612886565b905f5260205f20906007020160040160019054906101000a900460ff166003811115610cff57610cff61243f565b14610d3f5760405162461bcd60e51b815260206004820152601060248201526f4e6f7420756e6465722072657669657760801b6044820152606401610536565b6004545f90610d50906001906128ae565b8360ff1614905080610db05760405162461bcd60e51b815260206004820152602360248201527f50616e656c20766f7465206f6e6c7920666f722066696e616c206d696c6573746044820152626f6e6560e81b6064820152608401610536565b5f805b600f54811015610e0457336001600160a01b0316600f8281548110610dda57610dda612886565b5f918252602090912001546001600160a01b031603610dfc5760019150610e04565b600101610db3565b508080610e395750336001600160a01b037f000000000000000000000000000000000000000000000000000000000000000016145b610e855760405162461bcd60e51b815260206004820152601b60248201527f4e6f7420617574686f72697a65642070616e656c206d656d62657200000000006044820152606401610536565b335f9081526010602052604090205460ff1615610ed45760405162461bcd60e51b815260206004820152600d60248201526c105b1c9958591e481d9bdd1959609a1b6044820152606401610536565b335f908152601060205260409020805460ff191660011790558215610f1f576011805460ff16905f610f05836128c1565b91906101000a81548160ff021916908360ff160217905550505b60115460ff61010082048116911610610f3b57610f3b84611d80565b50505050565b6011546301000000900460ff1615610f6b5760405162461bcd60e51b8152600401610536906127f3565b336001600160a01b037f0000000000000000000000000000000000000000000000000000000000000000161480610fac5750600e546001600160a01b031633145b610fe75760405162461bcd60e51b815260206004820152600c60248201526b155b985d5d1a1bdc9a5e995960a21b6044820152606401610536565b60115462010000900460ff16156110395760405162461bcd60e51b81526020600482015260166024820152754469737075746520616c72656164792061637469766560501b6044820152606401610536565b6011805462ff000019166201000017905560085f54600160a01b900460ff16600b8111156110695761106961243f565b1461108b576110786007611ede565b5f805460ff60a01b1916600960a01b1790555b336001600160a01b03167f28b099eb575e23e32becd7c30dc8f9b2f98e370cdbf9841ea3338d9000402a2583836040516110c692919061283b565b60405180910390a25050565b60038181548110610884575f80fd5b336001600160a01b037f000000000000000000000000000000000000000000000000000000000000000016146111485760405162461bcd60e51b815260206004820152600c60248201526b27b7363c9031b932b0ba37b960a11b6044820152606401610536565b6011546301000000900460ff16156111725760405162461bcd60e51b8152600401610536906127f3565b60025f54600160a01b900460ff16600b8111156111915761119161243f565b146111d55760405162461bcd60e51b81526020600482015260146024820152734e6f7420696e2062696464696e6720706861736560601b6044820152606401610536565b6001600160a01b0381165f908152600d60205260409020546112325760405162461bcd60e51b81526020600482015260166024820152752737903134b210333937b69031b7b73a3930b1ba37b960511b6044820152606401610536565b6001600160a01b0381165f908152600d602052604090205460065481146112a75760405162461bcd60e51b815260206004820152602360248201527f4d696c6573746f6e65732073756d206d75737420657175616c2062696420746f6044820152621d185b60ea1b6064820152608401610536565b6112b360076004611efe565b600e80546001600160a01b0319166001600160a01b0384169081179091555f805460ff60a01b1916600360a01b1781556040517f539d6d52620716a746d26d7d56d87f5be5da5e396d1e8762d75324ed5608d5be9190a25050565b6001805461131b9061284e565b80601f01602080910402602001604051908101604052809291908181526020018280546113479061284e565b80156113925780601f1061136957610100808354040283529160200191611392565b820191905f5260205f20905b81548152906001019060200180831161137557829003601f168201915b505050505081565b6002546040516370a0823160e01b81523060048201525f916001600160a01b0316906370a0823190602401602060405180830381865afa1580156113e0573d5f803e3d5ffd5b505050506040513d601f19601f8201168201806040525081019061140491906128df565b905090565b336001600160a01b037f000000000000000000000000000000000000000000000000000000000000000016146114705760405162461bcd60e51b815260206004820152600c60248201526b27b7363c9031b932b0ba37b960a11b6044820152606401610536565b6011546301000000900460ff161561149a5760405162461bcd60e51b8152600401610536906127f3565b600160048260ff16815481106114b2576114b2612886565b905f5260205f20906007020160040160019054906101000a900460ff1660038111156114e0576114e061243f565b146115205760405162461bcd60e51b815260206004820152601060248201526f4e6f7420756e6465722072657669657760801b6044820152606401610536565b6004545f90611531906001906128ae565b8260ff161490508080156115465750600f5415155b156115b95760405162461bcd60e51b815260206004820152603760248201527f46696e616c206d696c6573746f6e652072657175697265732070616e656c207660448201527f6f7465202d20757365206361737450616e656c566f74650000000000000000006064820152608401610536565b6107ec82611d80565b600c8181548110610884575f80fd5b6011546301000000900460ff16156115fb5760405162461bcd60e51b8152600401610536906127f3565b60025f54600160a01b900460ff16600b81111561161a5761161a61243f565b1461165e5760405162461bcd60e51b81526020600482015260146024820152734e6f7420696e2062696464696e6720706861736560601b6044820152606401610536565b335f908152600d6020526040902054156116a85760405162461bcd60e51b815260206004820152600b60248201526a105b1c9958591e48189a5960aa1b6044820152606401610536565b335f908152600d6020526040902081906116c28282612a61565b5050600c80546001810182555f919091527fdf6966c971051c3d54ec59162606531493a51404a002842f56009d7e5cf4a8c70180546001600160a01b031916339081179091557f3eb2fab71a1de5753e125aa7b47368bd108ec2bff6e86e69cb009d365ba2f271823561173860208501856128f6565b60405161174793929190612b51565b60405180910390a250565b5f546001600160a01b031633146117a05760405162461bcd60e51b81526020600482015260126024820152714f6e6c79206d6564696174696f6e206b657960701b6044820152606401610536565b6117a8611cc7565b6011546301000000900460ff16156117d25760405162461bcd60e51b8152600401610536906127f3565b60095f54600160a01b900460ff16600b8111156117f1576117f161243f565b1461182d5760405162461bcd60e51b815260206004820152600c60248201526b139bdd08191a5cdc1d5d195960a21b6044820152606401610536565b600a5460ff161561184757600a805460ff191690555f6009555b5f6118526007611f61565b90508061186760608401356040850135612b73565b11156118a75760405162461bcd60e51b815260206004820152600f60248201526e457863656564732062616c616e636560881b6044820152606401610536565b6040820135156118f6576118d86118c16020840184612612565b6002546001600160a01b0316906040850135611f79565b816040013560076001015f8282546118f09190612b73565b90915550505b6060820135156119485761192a6119136040840160208501612612565b6002546001600160a01b0316906060850135611f79565b816060013560076001015f8282546119429190612b73565b90915550505b5f805460ff60a01b1916600160a31b1790556040517fe436ee66933591ba98dbaeefbf5d8b5417d262e074bcd78323bf2b341df60ce09061198a908490612b86565b60405180910390a1506119a960015f80516020612cd783398151915255565b50565b600481815481106119bb575f80fd5b905f5260205f2090600702015f91509050805f0180546119da9061284e565b80601f0160208091040260200160405190810160405280929190818152602001828054611a069061284e565b8015611a515780601f10611a2857610100808354040283529160200191611a51565b820191905f5260205f20905b815481529060010190602001808311611a3457829003601f168201915b505050505090806001018054611a669061284e565b80601f0160208091040260200160405190810160405280929190818152602001828054611a929061284e565b8015611add5780601f10611ab457610100808354040283529160200191611add565b820191905f5260205f20905b815481529060010190602001808311611ac057829003601f168201915b505050506002830154600384015460048501546005860180549596939592945060ff808316946101009093041692611b149061284e565b80601f0160208091040260200160405190810160405280929190818152602001828054611b409061284e565b8015611b8b5780601f10611b6257610100808354040283529160200191611b8b565b820191905f5260205f20905b815481529060010190602001808311611b6e57829003601f168201915b5050506006909301549192505060ff80821691610100810482169162010000909104168a565b835460ff831610611bd55760405163fdf4d87360e01b815260040160405180910390fd5b8260ff168260ff1614611c085760405163cb0ca13760e01b815260ff808516600483015283166024820152604401610536565b5f848360ff1681548110611c1e57611c1e612886565b5f9182526020822060079091020191506004820154610100900460ff166003811115611c4c57611c4c61243f565b14158015611c78575060036004820154610100900460ff166003811115611c7557611c7561243f565b14155b15611c96576040516323a244ef60e11b815260040160405180910390fd5b60058101611ca48382612c1f565b5060048101805461ff001916610100179055600601805460ff1916905550505050565b611ccf611fae565b60025f80516020612cd783398151915255565b600383015460ff1615611d08576040516350fab9ad60e11b815260040160405180910390fd5b6001600160a01b038116611d2f5760405163c1ab6dc160e01b815260040160405180910390fd5b815f03611d4f57604051631f2a200560e01b815260040160405180910390fd5b611d646001600160a01b038216333085611fdf565b81835f015f828254611d769190612b73565b9091555050505050565b611d88611cc7565b5f611d94600483612015565b90505f60048360ff1681548110611dad57611dad612886565b905f5260205f2090600702016002015490505f811115611dea57600e54600254611dea9160079186916001600160a01b03908116918691166120c2565b8260ff167f901f24c69afb39b52c17635c2cc653ae1ec05ac6153a26afa09b6e2006d6cadf82604051611e1f91815260200190565b60405180910390a26005805460ff16905f611e39836128c1565b91906101000a81548160ff021916908360ff160217905550508115611eb3575f805460ff60a01b1916600160a31b179055600e5460065460408051918252516001600160a01b03909216917fc4f6aa56c2c45f706ff58d9582f241d2ed8302b3ece6eb8104e55e86cd36b10e9181900360200190a2611ec6565b5f805460ff60a01b1916600160a21b1790555b50506119a960015f80516020612cd783398151915255565b60038101805460ff19166001179055611ef681611f61565b600290910155565b5f5b815460ff82161015611f5c57818160ff1681548110611f2157611f21612886565b5f91825260208083206002600790930201919091015460ff841683526004860190915260409091205580611f54816128c1565b915050611f00565b505050565b600181015481545f91611f73916128ae565b92915050565b611f8683838360016121ec565b611f5c57604051635274afe760e01b81526001600160a01b0384166004820152602401610536565b5f80516020612cd783398151915254600203611fdd57604051633ee5aeb560e01b815260040160405180910390fd5b565b611fed84848484600161224e565b610f3b57604051635274afe760e01b81526001600160a01b0385166004820152602401610536565b81545f9060ff83161061203b5760405163fdf4d87360e01b815260040160405180910390fd5b5f838360ff168154811061205157612051612886565b5f9182526020909120600790910201905060016004820154610100900460ff1660038111156120825761208261243f565b146120a057604051630ca5937360e41b815260040160405180910390fd5b60048101805461ff0019166102001790556120ba846122bb565b949350505050565b600385015460ff16156120e8576040516350fab9ad60e11b815260040160405180910390fd5b6001600160a01b03831661210f57604051634e46966960e11b815260040160405180910390fd5b6001600160a01b0381166121365760405163c1ab6dc160e01b815260040160405180910390fd5b815f0361215657604051631f2a200560e01b815260040160405180910390fd5b60ff84165f908152600486016020526040902054828110156121955760405163486235f760e11b81526004810182905260248101849052604401610536565b61219f83826128ae565b60ff86165f9081526004880160205260408120919091556001870180548592906121ca908490612b73565b909155506121e490506001600160a01b0383168585611f79565b505050505050565b60405163a9059cbb60e01b5f8181526001600160a01b038616600452602485905291602083604481808b5af1925060015f51148316612242578383151615612236573d5f823e3d81fd5b5f873b113d1516831692505b60405250949350505050565b6040516323b872dd60e01b5f8181526001600160a01b038781166004528616602452604485905291602083606481808c5af1925060015f511483166122aa57838315161561229e573d5f823e3d81fd5b5f883b113d1516831692505b604052505f60605295945050505050565b5f805b825481101561231e5760028382815481106122db576122db612886565b905f5260205f20906007020160040160019054906101000a900460ff1660038111156123095761230961243f565b1461231657505f92915050565b6001016122be565b50600192915050565b803560ff81168114612337575f80fd5b919050565b5f8083601f84011261234c575f80fd5b50813567ffffffffffffffff811115612363575f80fd5b60208301915083602082850101111561237a575f80fd5b9250929050565b5f805f60408486031215612393575f80fd5b61239c84612327565b9250602084013567ffffffffffffffff8111156123b7575f80fd5b6123c38682870161233c565b9497909650939450505050565b80356001600160a01b0381168114612337575f80fd5b5f80604083850312156123f7575f80fd5b82359150612407602084016123d0565b90509250929050565b80358015158114612337575f80fd5b5f6020828403121561242f575f80fd5b61243882612410565b9392505050565b634e487b7160e01b5f52602160045260245ffd5b60208101600c83106124675761246761243f565b91905290565b60208101600583106124675761246761243f565b5f60208284031215612491575f80fd5b5035919050565b5f81518084525f5b818110156124bc576020818501810151868301820152016124a0565b505f602082860101526020601f19601f83011685010191505092915050565b600381106124eb576124eb61243f565b9052565b600481106124eb576124eb61243f565b5f60208083018184528085518083526040925060408601915060408160051b8701018488015f5b8381101561260457603f198984030185528151610140815181865261254d82870182612498565b915050888201518582038a8701526125658282612498565b9150508782015188860152606080830151818701525060808083015161258d828801826124db565b505060a0808301516125a1828801826124ef565b505060c080830151868303828801526125ba8382612498565b9250505060e0808301516125d28288018260ff169052565b50506101008281015160ff90811691870191909152610120928301511691909401529386019390860190600101612526565b509098975050505050505050565b5f60208284031215612622575f80fd5b612438826123d0565b848152608060208201525f6126436080830186612498565b846040840152828103606084015261265b8185612498565b979650505050505050565b5f8060408385031215612677575f80fd5b61268083612327565b915061240760208401612410565b5f806020838503121561269f575f80fd5b823567ffffffffffffffff8111156126b5575f80fd5b6126c18582860161233c565b90969095509350505050565b602081525f6124386020830184612498565b5f602082840312156126ef575f80fd5b61243882612327565b5f60208284031215612708575f80fd5b813567ffffffffffffffff81111561271e575f80fd5b820160808185031215612438575f80fd5b5f6020828403121561273f575f80fd5b813567ffffffffffffffff811115612755575f80fd5b820160a08185031215612438575f80fd5b5f6101408083526127798184018e612498565b9050828103602084015261278d818d612498565b90508a60408401528960608401526127a8608084018a6124db565b6127b560a08401896124ef565b82810360c08401526127c78188612498565b60ff96871660e08501529486166101008401525050921661012090920191909152979650505050505050565b60208082526006908201526514185d5cd95960d21b604082015260600190565b81835281816020850137505f828201602090810191909152601f909101601f19169091010190565b602081525f6120ba602083018486612813565b600181811c9082168061286257607f821691505b60208210810361288057634e487b7160e01b5f52602260045260245ffd5b50919050565b634e487b7160e01b5f52603260045260245ffd5b634e487b7160e01b5f52601160045260245ffd5b81810381811115611f7357611f7361289a565b5f60ff821660ff81036128d6576128d661289a565b60010192915050565b5f602082840312156128ef575f80fd5b5051919050565b5f808335601e1984360301811261290b575f80fd5b83018035915067ffffffffffffffff821115612925575f80fd5b60200191503681900382131561237a575f80fd5b634e487b7160e01b5f52604160045260245ffd5b601f821115611f5c57805f5260205f20601f840160051c810160208510156129725750805b601f840160051c820191505b81811015612991575f815560010161297e565b5050505050565b5f19600383901b1c191660019190911b1790565b67ffffffffffffffff8311156129c4576129c4612939565b6129d8836129d2835461284e565b8361294d565b5f601f841160018114612a04575f85156129f25750838201355b6129fc8682612998565b845550612991565b5f83815260208120601f198716915b82811015612a335786850135825560209485019460019092019101612a13565b5086821015612a4f575f1960f88860031b161c19848701351681555b505060018560011b0183555050505050565b8135815560018082016020612a7960208601866128f6565b67ffffffffffffffff811115612a9157612a91612939565b612aa581612a9f865461284e565b8661294d565b5f601f821160018114612ad1575f8315612abf5750838201355b612ac98482612998565b875550612b25565b5f86815260208120601f198516915b82811015612afd5786850135825593870193908901908701612ae0565b5084821015612b19575f1960f88660031b161c19848701351681555b505060018360011b0186555b5050505050505060408201356002820155612b4360608301836128f6565b610f3b8183600386016129ac565b838152604060208201525f612b6a604083018486612813565b95945050505050565b80820180821115611f7357611f7361289a565b602081525f6001600160a01b0380612b9d856123d0565b16602084015280612bb0602086016123d0565b1660408401525060408301356060830152606083013560808301526080830135601e19843603018112612be1575f80fd5b830160208101903567ffffffffffffffff811115612bfd575f80fd5b803603821315612c0b575f80fd5b60a080850152612b6a60c085018284612813565b815167ffffffffffffffff811115612c3957612c39612939565b612c4d81612c47845461284e565b8461294d565b602080601f831160018114612c7b575f8415612c695750858301515b612c738582612998565b8655506121e4565b5f85815260208120601f198616915b82811015612ca957888601518255948401946001909101908401612c8a565b5085821015612cc657878501515f19600388901b60f8161c191681555b5050505050600190811b0190555056fe9b779b17422d0df92223018b32b4d1fa46e071723d6817e2486d003becc55f00a264697066735822122094cb7b7ad80a970901da4921e06db860db4361f12d7323a40c951a012cbd00ba64736f6c63430008180033a26469706673582212205705d60e43052fced1093efc93ba498ff373705b9edcf1de8303e6a2d49ec17a64736f6c63430008180033","linkReferences":{}},"methodIdentifiers":{"deployBounty(string,(string,string,uint256,uint256,uint8,uint8,string,uint8,uint8,uint8)[],address,uint8,address[])":"d6a2c970","deployCommunity(string,(address[],uint8),(uint256,uint256,uint256,uint256,uint256,uint256,uint256,uint256,uint8,uint8))":"0ba6b43d","deployedBounties(uint256)":"a0bf29fa","deployedCommunities(uint256)":"b1601173","getAllCommunities()":"95dd0ed0","getBountyCount()":"06641f7e","getCommunityCount()":"c122b3cb","isBountyContract(address)":"99238d85","isCommunity(address)":"993fa20b","mediationKey()":"a23410de","mintPlatformNFT(address,string)":"86da0367","nftRegistry()":"e7fe78bc","owner()":"8da5cb5b","pause()":"8456cb59","paused()":"5c975abb","renounceOwnership()":"715018a6","setMediationKey(address)":"ffbe7de5","setNFTRegistry(address)":"6e8572de","transferOwnership(address)":"f2fde38b","unpause()":"3f4ba83a"},"id":50}