{"abi":[{"type":"constructor","inputs":[{"name":"_factory","type":"address","internalType":"address"}],"stateMutability":"nonpayable"},{"type":"function","name":"addCommunityMembership","inputs":[{"name":"tokenId","type":"uint256","internalType":"uint256"},{"name":"community","type":"address","internalType":"address"},{"name":"role","type":"uint8","internalType":"enum IDataTypes.MemberRole"}],"outputs":[],"stateMutability":"nonpayable"},{"type":"function","name":"approve","inputs":[{"name":"","type":"address","internalType":"address"},{"name":"","type":"uint256","internalType":"uint256"}],"outputs":[],"stateMutability":"pure"},{"type":"function","name":"balanceOf","inputs":[{"name":"owner","type":"address","internalType":"address"}],"outputs":[{"name":"","type":"uint256","internalType":"uint256"}],"stateMutability":"view"},{"type":"function","name":"disputeCount","inputs":[{"name":"","type":"uint256","internalType":"uint256"}],"outputs":[{"name":"","type":"uint256","internalType":"uint256"}],"stateMutability":"view"},{"type":"function","name":"getApproved","inputs":[{"name":"tokenId","type":"uint256","internalType":"uint256"}],"outputs":[{"name":"","type":"address","internalType":"address"}],"stateMutability":"view"},{"type":"function","name":"getCommunityCount","inputs":[{"name":"tokenId","type":"uint256","internalType":"uint256"}],"outputs":[{"name":"","type":"uint256","internalType":"uint256"}],"stateMutability":"view"},{"type":"function","name":"getMemberships","inputs":[{"name":"tokenId","type":"uint256","internalType":"uint256"}],"outputs":[{"name":"","type":"address[]","internalType":"address[]"}],"stateMutability":"view"},{"type":"function","name":"getReputationScore","inputs":[{"name":"tokenId","type":"uint256","internalType":"uint256"}],"outputs":[{"name":"","type":"uint256","internalType":"uint256"}],"stateMutability":"view"},{"type":"function","name":"getTokenId","inputs":[{"name":"user","type":"address","internalType":"address"}],"outputs":[{"name":"","type":"uint256","internalType":"uint256"}],"stateMutability":"view"},{"type":"function","name":"handles","inputs":[{"name":"","type":"uint256","internalType":"uint256"}],"outputs":[{"name":"","type":"string","internalType":"string"}],"stateMutability":"view"},{"type":"function","name":"isApprovedForAll","inputs":[{"name":"owner","type":"address","internalType":"address"},{"name":"operator","type":"address","internalType":"address"}],"outputs":[{"name":"","type":"bool","internalType":"bool"}],"stateMutability":"view"},{"type":"function","name":"isCommunityMember","inputs":[{"name":"","type":"uint256","internalType":"uint256"},{"name":"","type":"address","internalType":"address"}],"outputs":[{"name":"","type":"bool","internalType":"bool"}],"stateMutability":"view"},{"type":"function","name":"isMember","inputs":[{"name":"tokenId","type":"uint256","internalType":"uint256"},{"name":"community","type":"address","internalType":"address"}],"outputs":[{"name":"","type":"bool","internalType":"bool"}],"stateMutability":"view"},{"type":"function","name":"isVerified","inputs":[{"name":"tokenId","type":"uint256","internalType":"uint256"}],"outputs":[{"name":"","type":"bool","internalType":"bool"}],"stateMutability":"view"},{"type":"function","name":"isWalletMember","inputs":[{"name":"user","type":"address","internalType":"address"},{"name":"community","type":"address","internalType":"address"}],"outputs":[{"name":"","type":"bool","internalType":"bool"}],"stateMutability":"view"},{"type":"function","name":"kycHashes","inputs":[{"name":"","type":"uint256","internalType":"uint256"}],"outputs":[{"name":"","type":"bytes32","internalType":"bytes32"}],"stateMutability":"view"},{"type":"function","name":"kycOracle","inputs":[],"outputs":[{"name":"","type":"address","internalType":"address"}],"stateMutability":"view"},{"type":"function","name":"memberRoles","inputs":[{"name":"","type":"uint256","internalType":"uint256"},{"name":"","type":"address","internalType":"address"}],"outputs":[{"name":"","type":"uint8","internalType":"enum IDataTypes.MemberRole"}],"stateMutability":"view"},{"type":"function","name":"mint","inputs":[{"name":"user","type":"address","internalType":"address"},{"name":"handle","type":"string","internalType":"string"}],"outputs":[{"name":"tokenId","type":"uint256","internalType":"uint256"}],"stateMutability":"nonpayable"},{"type":"function","name":"name","inputs":[],"outputs":[{"name":"","type":"string","internalType":"string"}],"stateMutability":"view"},{"type":"function","name":"owner","inputs":[],"outputs":[{"name":"","type":"address","internalType":"address"}],"stateMutability":"view"},{"type":"function","name":"ownerOf","inputs":[{"name":"tokenId","type":"uint256","internalType":"uint256"}],"outputs":[{"name":"","type":"address","internalType":"address"}],"stateMutability":"view"},{"type":"function","name":"platformFactory","inputs":[],"outputs":[{"name":"","type":"address","internalType":"address"}],"stateMutability":"view"},{"type":"function","name":"projectsAwarded","inputs":[{"name":"","type":"uint256","internalType":"uint256"}],"outputs":[{"name":"","type":"uint256","internalType":"uint256"}],"stateMutability":"view"},{"type":"function","name":"projectsCompleted","inputs":[{"name":"","type":"uint256","internalType":"uint256"}],"outputs":[{"name":"","type":"uint256","internalType":"uint256"}],"stateMutability":"view"},{"type":"function","name":"registerBountyContract","inputs":[{"name":"bounty","type":"address","internalType":"address"}],"outputs":[],"stateMutability":"nonpayable"},{"type":"function","name":"registerCommunity","inputs":[{"name":"community","type":"address","internalType":"address"}],"outputs":[],"stateMutability":"nonpayable"},{"type":"function","name":"registerProjectContract","inputs":[{"name":"project","type":"address","internalType":"address"}],"outputs":[],"stateMutability":"nonpayable"},{"type":"function","name":"registeredCommunities","inputs":[{"name":"","type":"address","internalType":"address"}],"outputs":[{"name":"","type":"bool","internalType":"bool"}],"stateMutability":"view"},{"type":"function","name":"registeredReputationContracts","inputs":[{"name":"","type":"address","internalType":"address"}],"outputs":[{"name":"","type":"bool","internalType":"bool"}],"stateMutability":"view"},{"type":"function","name":"removeCommunityMembership","inputs":[{"name":"tokenId","type":"uint256","internalType":"uint256"},{"name":"community","type":"address","internalType":"address"}],"outputs":[],"stateMutability":"nonpayable"},{"type":"function","name":"renounceOwnership","inputs":[],"outputs":[],"stateMutability":"nonpayable"},{"type":"function","name":"reputationScores","inputs":[{"name":"","type":"uint256","internalType":"uint256"}],"outputs":[{"name":"","type":"uint256","internalType":"uint256"}],"stateMutability":"view"},{"type":"function","name":"safeTransferFrom","inputs":[{"name":"from","type":"address","internalType":"address"},{"name":"to","type":"address","internalType":"address"},{"name":"tokenId","type":"uint256","internalType":"uint256"}],"outputs":[],"stateMutability":"nonpayable"},{"type":"function","name":"safeTransferFrom","inputs":[{"name":"","type":"address","internalType":"address"},{"name":"","type":"address","internalType":"address"},{"name":"","type":"uint256","internalType":"uint256"},{"name":"","type":"bytes","internalType":"bytes"}],"outputs":[],"stateMutability":"pure"},{"type":"function","name":"setApprovalForAll","inputs":[{"name":"","type":"address","internalType":"address"},{"name":"","type":"bool","internalType":"bool"}],"outputs":[],"stateMutability":"pure"},{"type":"function","name":"setKYCHash","inputs":[{"name":"tokenId","type":"uint256","internalType":"uint256"},{"name":"hash","type":"bytes32","internalType":"bytes32"}],"outputs":[],"stateMutability":"nonpayable"},{"type":"function","name":"setKYCOracle","inputs":[{"name":"oracle","type":"address","internalType":"address"}],"outputs":[],"stateMutability":"nonpayable"},{"type":"function","name":"supportsInterface","inputs":[{"name":"interfaceId","type":"bytes4","internalType":"bytes4"}],"outputs":[{"name":"","type":"bool","internalType":"bool"}],"stateMutability":"view"},{"type":"function","name":"symbol","inputs":[],"outputs":[{"name":"","type":"string","internalType":"string"}],"stateMutability":"view"},{"type":"function","name":"tokenURI","inputs":[{"name":"tokenId","type":"uint256","internalType":"uint256"}],"outputs":[{"name":"","type":"string","internalType":"string"}],"stateMutability":"view"},{"type":"function","name":"transferFrom","inputs":[{"name":"","type":"address","internalType":"address"},{"name":"","type":"address","internalType":"address"},{"name":"","type":"uint256","internalType":"uint256"}],"outputs":[],"stateMutability":"pure"},{"type":"function","name":"transferOwnership","inputs":[{"name":"newOwner","type":"address","internalType":"address"}],"outputs":[],"stateMutability":"nonpayable"},{"type":"function","name":"unregisterCommunity","inputs":[{"name":"community","type":"address","internalType":"address"}],"outputs":[],"stateMutability":"nonpayable"},{"type":"function","name":"unregisterReputationContract","inputs":[{"name":"reputationContract","type":"address","internalType":"address"}],"outputs":[],"stateMutability":"nonpayable"},{"type":"function","name":"updateReputation","inputs":[{"name":"tokenId","type":"uint256","internalType":"uint256"},{"name":"update","type":"tuple","internalType":"struct IDataTypes.ReputationUpdate","components":[{"name":"projectCompleted","type":"bool","internalType":"bool"},{"name":"projectDisputed","type":"bool","internalType":"bool"},{"name":"projectAwarded","type":"bool","internalType":"bool"},{"name":"completionVoteScore","type":"uint8","internalType":"uint8"}]}],"outputs":[],"stateMutability":"nonpayable"},{"type":"function","name":"votesParticipated","inputs":[{"name":"","type":"uint256","internalType":"uint256"}],"outputs":[{"name":"","type":"uint256","internalType":"uint256"}],"stateMutability":"view"},{"type":"function","name":"walletToTokenId","inputs":[{"name":"","type":"address","internalType":"address"}],"outputs":[{"name":"","type":"uint256","internalType":"uint256"}],"stateMutability":"view"},{"type":"event","name":"Approval","inputs":[{"name":"owner","type":"address","indexed":true,"internalType":"address"},{"name":"approved","type":"address","indexed":true,"internalType":"address"},{"name":"tokenId","type":"uint256","indexed":true,"internalType":"uint256"}],"anonymous":false},{"type":"event","name":"ApprovalForAll","inputs":[{"name":"owner","type":"address","indexed":true,"internalType":"address"},{"name":"operator","type":"address","indexed":true,"internalType":"address"},{"name":"approved","type":"bool","indexed":false,"internalType":"bool"}],"anonymous":false},{"type":"event","name":"CommunityRegistered","inputs":[{"name":"community","type":"address","indexed":true,"internalType":"address"},{"name":"active","type":"bool","indexed":false,"internalType":"bool"}],"anonymous":false},{"type":"event","name":"KYCHashSet","inputs":[{"name":"tokenId","type":"uint256","indexed":true,"internalType":"uint256"},{"name":"kycHash","type":"bytes32","indexed":false,"internalType":"bytes32"}],"anonymous":false},{"type":"event","name":"KYCOracleUpdated","inputs":[{"name":"oracle","type":"address","indexed":true,"internalType":"address"}],"anonymous":false},{"type":"event","name":"MembershipAdded","inputs":[{"name":"tokenId","type":"uint256","indexed":true,"internalType":"uint256"},{"name":"community","type":"address","indexed":true,"internalType":"address"},{"name":"role","type":"uint8","indexed":false,"internalType":"enum IDataTypes.MemberRole"}],"anonymous":false},{"type":"event","name":"MembershipRemoved","inputs":[{"name":"tokenId","type":"uint256","indexed":true,"internalType":"uint256"},{"name":"community","type":"address","indexed":true,"internalType":"address"}],"anonymous":false},{"type":"event","name":"NFTMinted","inputs":[{"name":"user","type":"address","indexed":true,"internalType":"address"},{"name":"tokenId","type":"uint256","indexed":true,"internalType":"uint256"},{"name":"handle","type":"string","indexed":false,"internalType":"string"}],"anonymous":false},{"type":"event","name":"OwnershipTransferred","inputs":[{"name":"previousOwner","type":"address","indexed":true,"internalType":"address"},{"name":"newOwner","type":"address","indexed":true,"internalType":"address"}],"anonymous":false},{"type":"event","name":"ReputationContractRegistered","inputs":[{"name":"reputationContract","type":"address","indexed":true,"internalType":"address"},{"name":"active","type":"bool","indexed":false,"internalType":"bool"}],"anonymous":false},{"type":"event","name":"ReputationUpdated","inputs":[{"name":"tokenId","type":"uint256","indexed":true,"internalType":"uint256"},{"name":"newScore","type":"uint256","indexed":false,"internalType":"uint256"}],"anonymous":false},{"type":"event","name":"Transfer","inputs":[{"name":"from","type":"address","indexed":true,"internalType":"address"},{"name":"to","type":"address","indexed":true,"internalType":"address"},{"name":"tokenId","type":"uint256","indexed":true,"internalType":"uint256"}],"anonymous":false},{"type":"error","name":"ERC721IncorrectOwner","inputs":[{"name":"sender","type":"address","internalType":"address"},{"name":"tokenId","type":"uint256","internalType":"uint256"},{"name":"owner","type":"address","internalType":"address"}]},{"type":"error","name":"ERC721InsufficientApproval","inputs":[{"name":"operator","type":"address","internalType":"address"},{"name":"tokenId","type":"uint256","internalType":"uint256"}]},{"type":"error","name":"ERC721InvalidApprover","inputs":[{"name":"approver","type":"address","internalType":"address"}]},{"type":"error","name":"ERC721InvalidOperator","inputs":[{"name":"operator","type":"address","internalType":"address"}]},{"type":"error","name":"ERC721InvalidOwner","inputs":[{"name":"owner","type":"address","internalType":"address"}]},{"type":"error","name":"ERC721InvalidReceiver","inputs":[{"name":"receiver","type":"address","internalType":"address"}]},{"type":"error","name":"ERC721InvalidSender","inputs":[{"name":"sender","type":"address","internalType":"address"}]},{"type":"error","name":"ERC721NonexistentToken","inputs":[{"name":"tokenId","type":"uint256","internalType":"uint256"}]},{"type":"error","name":"OwnableInvalidOwner","inputs":[{"name":"owner","type":"address","internalType":"address"}]},{"type":"error","name":"OwnableUnauthorizedAccount","inputs":[{"name":"account","type":"address","internalType":"address"}]}],"bytecode":{"object":"0x6080604052600160075534801562000015575f80fd5b506040516200326838038062003268833981016040819052620000389162000160565b336040518060400160405280601881526020017f54686520576f726b696e6720417070204964656e746974790000000000000000815250604051806040016040528060058152602001641515d0525160da1b815250815f90816200009d91906200022d565b506001620000ac82826200022d565b5050506001600160a01b038116620000dd57604051631e4fbdf760e01b81525f600482015260240160405180910390fd5b620000e8816200010f565b50601480546001600160a01b0319166001600160a01b0392909216919091179055620002f9565b600680546001600160a01b038381166001600160a01b0319831681179093556040519116919082907f8be0079c531659141344cd1fd0a4f28419497f9722a3daafe3b4186f6b6457e0905f90a35050565b5f6020828403121562000171575f80fd5b81516001600160a01b038116811462000188575f80fd5b9392505050565b634e487b7160e01b5f52604160045260245ffd5b600181811c90821680620001b857607f821691505b602082108103620001d757634e487b7160e01b5f52602260045260245ffd5b50919050565b601f8211156200022857805f5260205f20601f840160051c81016020851015620002045750805b601f840160051c820191505b8181101562000225575f815560010162000210565b50505b505050565b81516001600160401b038111156200024957620002496200018f565b62000261816200025a8454620001a3565b84620001dd565b602080601f83116001811462000297575f84156200027f5750858301515b5f19600386901b1c1916600185901b178555620002f1565b5f85815260208120601f198616915b82811015620002c757888601518255948401946001909101908401620002a6565b5085821015620002e557878501515f19600388901b60f8161c191681555b505060018460011b0185555b505050505050565b612f6180620003075f395ff3fe608060405234801561000f575f80fd5b5060043610610297575f3560e01c80637f7e0d3611610161578063c9c251d2116100ca578063e95a390511610084578063e95a3905146106b6578063e985e9c5146106e3578063f1537686146106f6578063f2fde38b1461071e578063fc01c67114610731578063fdb265b014610750575f80fd5b8063c9c251d214610629578063cfcbab8f1461063c578063d0def5211461064f578063da23ce7b14610662578063ddac53eb14610681578063e1e8bc4314610694575f80fd5b80639c2806c71161011b5780639c2806c7146105a95780639f0972c4146105c8578063a22cb465146105db578063b88d4fde146105e9578063bd5bcb0a146105f7578063c87b56dd14610616575f80fd5b80637f7e0d36146105385780638717054d1461054b5780638da5cb5b1461055e578063917bd62b1461056f57806394c9c8781461058257806395d89b41146105a1575f80fd5b806342842e0e116102035780636b89dcad116101bd5780636b89dcad146104a05780636bca5f18146104bf57806370a08231146104d2578063715018a6146104e55780637636b4b1146104ed5780637d9e10f514610500575f80fd5b806342842e0e1461040657806346676a7314610419578063556697da1461042c578063588d43e71461044c5780636352211e1461046e578063698e434b14610481575f80fd5b80632235248911610254578063223524891461035857806323b872dd1461036b5780632fa16c951461037957806333b164501461039857806333c4c2fe146103d257806337b6d96b146103e5575f80fd5b806301ffc9a71461029b57806305c73a27146102c357806306fdde03146102d8578063081812fc146102ed578063095ea7b3146103185780630bc0ffa81461032b575b5f80fd5b6102ae6102a93660046123d4565b610763565b60405190151581526020015b60405180910390f35b6102d66102d1366004612411565b6107b4565b005b6102e0610949565b6040516102ba919061249e565b6103006102fb3660046124b0565b6109d8565b6040516001600160a01b0390911681526020016102ba565b6102d66103263660046124c7565b6109ff565b61034a6103393660046124b0565b5f908152600c602052604090205490565b6040519081526020016102ba565b6102d66103663660046124ef565b610a47565b6102d6610326366004612519565b61034a6103873660046124b0565b60106020525f908152604090205481565b6103c56103a63660046124ef565b600d60209081525f928352604080842090915290825290205460ff1681565b6040516102ba9190612566565b6102ae6103e036600461258c565b610c83565b6102ae6103f33660046124b0565b5f908152600b6020526040902054151590565b6102d6610414366004612519565b610cd8565b6102d66104273660046125b4565b610cf7565b61043f61043a3660046124b0565b610e29565b6040516102ba91906125d4565b6102ae61045a366004612620565b60166020525f908152604090205460ff1681565b61030061047c3660046124b0565b610e92565b61034a61048f3660046124b0565b600b6020525f908152604090205481565b61034a6104ae3660046124b0565b60116020525f908152604090205481565b6102d66104cd366004612620565b610e9c565b61034a6104e0366004612620565b610f34565b6102d6610f79565b6102d66104fb366004612639565b610f8c565b6102ae61050e3660046124ef565b5f918252600e602090815260408084206001600160a01b0393909316845291905290205460ff1690565b6102d6610546366004612620565b611149565b6102d6610559366004612620565b6111dd565b6006546001600160a01b0316610300565b6102d661057d366004612620565b6112b9565b61034a6105903660046124b0565b60136020525f908152604090205481565b6102e0611398565b61034a6105b7366004612620565b60086020525f908152604090205481565b601454610300906001600160a01b031681565b6102d661032636600461267d565b6102d66103263660046126b9565b61034a6106053660046124b0565b5f908152600f602052604090205490565b6102e06106243660046124b0565b6113a7565b601554610300906001600160a01b031681565b6102d661064a366004612620565b611473565b61034a61065d36600461278e565b611500565b61034a6106703660046124b0565b60126020525f908152604090205481565b6102d661068f366004612620565b611719565b6102ae6106a2366004612620565b60176020525f908152604090205460ff1681565b6102ae6106c43660046124ef565b600e60209081525f928352604080842090915290825290205460ff1681565b6102ae6106f136600461258c565b6117e9565b61034a610704366004612620565b6001600160a01b03165f9081526008602052604090205490565b6102d661072c366004612620565b611816565b61034a61073f3660046124b0565b600f6020525f908152604090205481565b6102e061075e3660046124b0565b611853565b5f6001600160e01b031982166380ac58cd60e01b148061079357506001600160e01b03198216635b5e139f60e01b145b806107ae57506301ffc9a760e01b6001600160e01b03198316145b92915050565b335f9081526016602052604090205460ff166108135760405162461bcd60e51b81526020600482015260196024820152784f6e6c79207265676973746572656420636f6d6d756e69747960381b60448201526064015b60405180910390fd5b5f838152600e602090815260408083206001600160a01b038616845290915290205460ff16156108785760405162461bcd60e51b815260206004820152601060248201526f20b63932b0b23c90309036b2b6b132b960811b604482015260640161080a565b5f838152600c602090815260408083208054600180820183559185528385200180546001600160a01b0319166001600160a01b038816908117909155878552600e84528285208186528452828520805460ff199081168417909155888652600d855283862091865293529220805484939192169083818111156108fd576108fd612552565b0217905550816001600160a01b0316837f33220e644727d01cdcd65a4e6691031b675ee922815cc002bef357c401bfccb18360405161093c9190612566565b60405180910390a3505050565b60605f80546109579061280a565b80601f01602080910402602001604051908101604052809291908181526020018280546109839061280a565b80156109ce5780601f106109a5576101008083540402835291602001916109ce565b820191905f5260205f20905b8154815290600101906020018083116109b157829003601f168201915b5050505050905090565b5f6109e2826118ea565b505f828152600460205260409020546001600160a01b03166107ae565b60405162461bcd60e51b815260206004820152601b60248201527f536f756c626f756e643a206e6f6e2d7472616e7366657261626c650000000000604482015260640161080a565b335f9081526016602052604090205460ff16610aa15760405162461bcd60e51b81526020600482015260196024820152784f6e6c79207265676973746572656420636f6d6d756e69747960381b604482015260640161080a565b5f828152600e602090815260408083206001600160a01b038516845290915290205460ff16610b015760405162461bcd60e51b815260206004820152600c60248201526b2737ba10309036b2b6b132b960a11b604482015260640161080a565b5f828152600e602090815260408083206001600160a01b038516808552908352818420805460ff19908116909155868552600d845282852091855290835281842080549091169055848352600c9091528120905b8154811015610c4857826001600160a01b0316828281548110610b7a57610b7a612842565b5f918252602090912001546001600160a01b031603610c405781548290610ba39060019061286a565b81548110610bb357610bb3612842565b905f5260205f20015f9054906101000a90046001600160a01b0316828281548110610be057610be0612842565b905f5260205f20015f6101000a8154816001600160a01b0302191690836001600160a01b0316021790555081805480610c1b57610c1b61287d565b5f8281526020902081015f1990810180546001600160a01b0319169055019055610c48565b600101610b55565b506040516001600160a01b0383169084907ff4c5d3e73fc2b84ae9ddd2a1869a41c68e2fea0046e3d7810f3ee0ee5cb6bd3b905f90a3505050565b6001600160a01b0382165f90815260086020526040812054808203610cab575f9150506107ae565b5f908152600e602090815260408083206001600160a01b038616845290915290205460ff16905092915050565b610cf283838360405180602001604052805f8152506109ff565b505050565b6015546001600160a01b03163314610d435760405162461bcd60e51b815260206004820152600f60248201526e4f6e6c79204b5943206f7261636c6560881b604482015260640161080a565b5f828152600260205260409020546001600160a01b0316610d9d5760405162461bcd60e51b8152602060048201526014602482015273151bdad95b88191bd95cc81b9bdd08195e1a5cdd60621b604482015260640161080a565b80610dd95760405162461bcd60e51b815260206004820152600c60248201526b092dcecc2d8d2c840d0c2e6d60a31b604482015260640161080a565b5f828152600b6020526040908190208290555182907fbcbe0935992e622ab241e0be05f850bdca59161587d9c40ecc2a52ea0d3e74fa90610e1d9084815260200190565b60405180910390a25050565b5f818152600c6020908152604091829020805483518184028101840190945280845260609392830182828015610e8657602002820191905f5260205f20905b81546001600160a01b03168152600190910190602001808311610e68575b50505050509050919050565b5f6107ae826118ea565b610ea4611922565b6001600160a01b038116610eeb5760405162461bcd60e51b815260206004820152600e60248201526d496e76616c6964206f7261636c6560901b604482015260640161080a565b601580546001600160a01b0319166001600160a01b0383169081179091556040517fbfa23606db2d5817d145dbe103571e27ee4ba0fc4fe67656fbebba2ec7b73a68905f90a250565b5f6001600160a01b038216610f5e576040516322718ad960e21b81525f600482015260240161080a565b506001600160a01b03165f9081526003602052604090205490565b610f81611922565b610f8a5f61194f565b565b335f9081526017602052604090205460ff16610ff65760405162461bcd60e51b815260206004820152602360248201527f4f6e6c7920726567697374657265642072657075746174696f6e20636f6e74726044820152621858dd60ea1b606482015260840161080a565b6110036020820182612891565b1561109f575f828152601060205260408120805491611021836128aa565b90915550505f828152601060205260408120549061104560808401606085016128c2565b6110539060ff1660646128e2565b9050818161106260018361286a565b5f878152600f602052604090205461107a91906128e2565b61108491906128f9565b61108e919061290c565b5f858152600f602052604090205550505b6110af6060820160408301612891565b156110d3575f8281526011602052604081208054916110cd836128aa565b91905055505b6110e36040820160208301612891565b15611107575f828152601360205260408120805491611101836128aa565b91905055505b817ea4f8488cd701f9a77136eb5c91d5e2edef3c38001ca7148525acf8a2626481600f5f8581526020019081526020015f2054604051610e1d91815260200190565b6014546001600160a01b031633148061116c57506006546001600160a01b031633145b6111885760405162461bcd60e51b815260040161080a9061292b565b6001600160a01b0381165f818152601660209081526040808320805460ff19169055519182527f080474d6eab5f9257ec0aac72b39a735c49e092c574ba103b12edee2cf1532a291015b60405180910390a250565b6014546001600160a01b031633148061120057506006546001600160a01b031633145b61121c5760405162461bcd60e51b815260040161080a9061292b565b6001600160a01b0381166112635760405162461bcd60e51b815260206004820152600e60248201526d496e76616c696420626f756e747960901b604482015260640161080a565b6001600160a01b0381165f81815260176020908152604091829020805460ff1916600190811790915591519182527f40dcdfcea44e3df9525248b7acb570ac99b2b6f7b937a229e971acb44eccfd7591016111d2565b6014546001600160a01b03163314806112dc57506006546001600160a01b031633145b6112f85760405162461bcd60e51b815260040161080a9061292b565b6001600160a01b0381166113425760405162461bcd60e51b8152602060048201526011602482015270496e76616c696420636f6d6d756e69747960781b604482015260640161080a565b6001600160a01b0381165f81815260166020908152604091829020805460ff1916600190811790915591519182527f080474d6eab5f9257ec0aac72b39a735c49e092c574ba103b12edee2cf1532a291016111d2565b6060600180546109579061280a565b5f818152600260205260409020546060906001600160a01b03166114045760405162461bcd60e51b8152602060048201526014602482015273151bdad95b88191bd95cc81b9bdd08195e1a5cdd60621b604482015260640161080a565b5f61140e836119a0565b61141784611a30565b61142085611a61565b6040516020016114329392919061295b565b604051602081830303815290604052905061144c81611a9a565b60405160200161145c9190612a65565b604051602081830303815290604052915050919050565b6014546001600160a01b031633148061149657506006546001600160a01b031633145b6114b25760405162461bcd60e51b815260040161080a9061292b565b6001600160a01b0381165f818152601760209081526040808320805460ff19169055519182527f40dcdfcea44e3df9525248b7acb570ac99b2b6f7b937a229e971acb44eccfd7591016111d2565b6014545f906001600160a01b0316331461154b5760405162461bcd60e51b815260206004820152600c60248201526b4f6e6c7920666163746f727960a01b604482015260640161080a565b6001600160a01b0384165f90815260086020526040902054156115a55760405162461bcd60e51b8152602060048201526012602482015271105b1c9958591e481c9959da5cdd195c995960721b604482015260640161080a565b6115af8383611aa6565b6115ec5760405162461bcd60e51b815260206004820152600e60248201526d496e76616c69642068616e646c6560901b604482015260640161080a565b5f83836040516115fd929190612aa9565b60408051918290039091205f818152600a602052919091205490915060ff16156116605760405162461bcd60e51b81526020600482015260146024820152732430b73236329030b63932b0b23c903a30b5b2b760611b604482015260640161080a565b60078054905f61166f836128aa565b91905055915061167f8583611c05565b6001600160a01b0385165f908152600860209081526040808320859055848352600990915290206116b1848683612afc565b505f818152600a602052604090819020805460ff191660011790555182906001600160a01b038716907fd35bb95e09c04b219e35047ce7b7b300e3384264ef84a40456943dbc0fc17c14906117099088908890612bb6565b60405180910390a3509392505050565b6014546001600160a01b031633148061173c57506006546001600160a01b031633145b806117555750335f9081526016602052604090205460ff165b6117a15760405162461bcd60e51b815260206004820152601760248201527f4f6e6c7920726567697374727920617574686f72697479000000000000000000604482015260640161080a565b6001600160a01b0381166112635760405162461bcd60e51b815260206004820152600f60248201526e125b9d985b1a59081c1c9bda9958dd608a1b604482015260640161080a565b6001600160a01b039182165f90815260056020908152604080832093909416825291909152205460ff1690565b61181e611922565b6001600160a01b03811661184757604051631e4fbdf760e01b81525f600482015260240161080a565b6118508161194f565b50565b60096020525f90815260409020805461186b9061280a565b80601f01602080910402602001604051908101604052809291908181526020018280546118979061280a565b80156118e25780601f106118b9576101008083540402835291602001916118e2565b820191905f5260205f20905b8154815290600101906020018083116118c557829003601f168201915b505050505081565b5f818152600260205260408120546001600160a01b0316806107ae57604051637e27328960e01b81526004810184905260240161080a565b6006546001600160a01b03163314610f8a5760405163118cdaa760e01b815233600482015260240161080a565b600680546001600160a01b038381166001600160a01b0319831681179093556040519116919082907f8be0079c531659141344cd1fd0a4f28419497f9722a3daafe3b4186f6b6457e0905f90a35050565b60605f6119ac83611c22565b60010190505f8167ffffffffffffffff8111156119cb576119cb6126a5565b6040519080825280601f01601f1916602001820160405280156119f5576020820181803683370190505b5090508181016020015b5f19016f181899199a1a9b1b9c1cb0b131b232b360811b600a86061a8153600a85049450846119ff57509392505050565b6060611a3b826119a0565b604051602001611a4b9190612be4565b6040516020818303038152906040529050919050565b6060611a6c82611cf9565b611a7583611d1c565b611a7e84611d48565b611a8785611d72565b604051602001611a4b9493929190612c48565b60606107ae825f611d9c565b5f8282801580611ab65750602081115b15611ac5575f925050506107ae565b5f5b81811015611bf9575f838383818110611ae257611ae2612842565b909101356001600160f81b03191691505f9050600360fc1b8210801590611b175750603960f81b6001600160f81b0319831611155b90505f604160f81b6001600160f81b0319841610801590611b465750602d60f91b6001600160f81b0319841611155b90505f606160f81b6001600160f81b0319851610801590611b755750603d60f91b6001600160f81b0319851611155b90505f602d60f81b6001600160f81b031986161480611ba15750605f60f81b6001600160f81b03198616145b80611bb95750601760f91b6001600160f81b03198616145b90508380611bc45750825b80611bcc5750815b80611bd45750805b611be8575f985050505050505050506107ae565b505060019093019250611ac7915050565b50600195945050505050565b611c1e828260405180602001604052805f815250611f1b565b5050565b5f8072184f03e93ff9f4daa797ed6e38ed64bf6a1f0160401b8310611c605772184f03e93ff9f4daa797ed6e38ed64bf6a1f0160401b830492506040015b6d04ee2d6d415b85acef81000000008310611c8c576d04ee2d6d415b85acef8100000000830492506020015b662386f26fc100008310611caa57662386f26fc10000830492506010015b6305f5e1008310611cc2576305f5e100830492506008015b6127108310611cd657612710830492506004015b60648310611ce8576064830492506002015b600a83106107ae5760010192915050565b606060095f8381526020019081526020015f20604051602001611a4b9190612cda565b5f818152600b6020526040902054606090611d38901515611f32565b604051602001611a4b9190612d81565b5f818152600c6020526040902054606090611d62906119a0565b604051602001611a4b9190612de0565b5f818152600f6020526040902054606090611d8c906119a0565b604051602001611a4b9190612e55565b606082515f03611dba575060408051602081019091525f81526107ae565b5f82611dea57600384516002611dd091906128f9565b611dda919061290c565b611de59060046128e2565b611e0f565b600384516004611dfa91906128e2565b611e059060026128f9565b611e0f919061290c565b905060405191507f4142434445464748494a4b4c4d4e4f505152535455565758595a616263646566601f5261067083027f6768696a6b6c6d6e6f707172737475767778797a303132333435363738392b2f18603f526020820181810185865187016020810180515f82525b82841015611ecd576003840193508351603f8160121c16518753600187019650603f81600c1c16518753600187019650603f8160061c16518753600187019650603f811651875350600186019550611e7a565b905250859050611f0e57600386510660018114611ef15760028114611f0457611f0c565b603d6001840353603d6002840353611f0c565b603d60018403535b505b9183525060405292915050565b611f258383611f78565b610cf2335f858585611fd9565b606081611f5957604051806040016040528060028152602001614e6f60f01b8152506107ae565b505060408051808201909152600381526259657360e81b602082015290565b6001600160a01b038216611fa157604051633250574960e11b81525f600482015260240161080a565b5f611fad83835f612101565b90506001600160a01b03811615610cf2576040516339e3563760e11b81525f600482015260240161080a565b6001600160a01b0383163b156120fa57604051630a85bd0160e11b81526001600160a01b0384169063150b7a029061201b908890889087908790600401612ed4565b6020604051808303815f875af1925050508015612055575060408051601f3d908101601f1916820190925261205291810190612f10565b60015b6120bc573d808015612082576040519150601f19603f3d011682016040523d82523d5f602084013e612087565b606091505b5080515f036120b457604051633250574960e11b81526001600160a01b038516600482015260240161080a565b805160208201fd5b6001600160e01b03198116630a85bd0160e11b146120f857604051633250574960e11b81526001600160a01b038516600482015260240161080a565b505b5050505050565b5f828152600260205260408120546001600160a01b039081169083161561212d5761212d8184866121f3565b6001600160a01b03811615612167576121485f855f80612257565b6001600160a01b0381165f90815260036020526040902080545f190190555b6001600160a01b03851615612195576001600160a01b0385165f908152600360205260409020805460010190555b5f8481526002602052604080822080546001600160a01b0319166001600160a01b0389811691821790925591518793918516917fddf252ad1be2c89b69c2b068fc378daa952ba7f163c4a11628f55a4df523b3ef91a4949350505050565b6121fe83838361235b565b610cf2576001600160a01b03831661222c57604051637e27328960e01b81526004810182905260240161080a565b60405163177e802f60e01b81526001600160a01b03831660048201526024810182905260440161080a565b808061226b57506001600160a01b03821615155b1561232c575f61227a846118ea565b90506001600160a01b038316158015906122a65750826001600160a01b0316816001600160a01b031614155b80156122b957506122b781846117e9565b155b156122e25760405163a9fbf51f60e01b81526001600160a01b038416600482015260240161080a565b811561232a5783856001600160a01b0316826001600160a01b03167f8c5be1e5ebec7d5bd14f71427d1e84f3dd0314c0f7b2291e5b200ac8c7c3b92560405160405180910390a45b505b50505f90815260046020526040902080546001600160a01b0319166001600160a01b0392909216919091179055565b5f6001600160a01b038316158015906123b75750826001600160a01b0316846001600160a01b03161480612394575061239484846117e9565b806123b757505f828152600460205260409020546001600160a01b038481169116145b949350505050565b6001600160e01b031981168114611850575f80fd5b5f602082840312156123e4575f80fd5b81356123ef816123bf565b9392505050565b80356001600160a01b038116811461240c575f80fd5b919050565b5f805f60608486031215612423575f80fd5b83359250612433602085016123f6565b9150604084013560028110612446575f80fd5b809150509250925092565b5f5b8381101561246b578181015183820152602001612453565b50505f910152565b5f815180845261248a816020860160208601612451565b601f01601f19169290920160200192915050565b602081525f6123ef6020830184612473565b5f602082840312156124c0575f80fd5b5035919050565b5f80604083850312156124d8575f80fd5b6124e1836123f6565b946020939093013593505050565b5f8060408385031215612500575f80fd5b82359150612510602084016123f6565b90509250929050565b5f805f6060848603121561252b575f80fd5b612534846123f6565b9250612542602085016123f6565b9150604084013590509250925092565b634e487b7160e01b5f52602160045260245ffd5b602081016002831061258657634e487b7160e01b5f52602160045260245ffd5b91905290565b5f806040838503121561259d575f80fd5b6125a6836123f6565b9150612510602084016123f6565b5f80604083850312156125c5575f80fd5b50508035926020909101359150565b602080825282518282018190525f9190848201906040850190845b818110156126145783516001600160a01b0316835292840192918401916001016125ef565b50909695505050505050565b5f60208284031215612630575f80fd5b6123ef826123f6565b5f8082840360a081121561264b575f80fd5b833592506080601f1982011215612660575f80fd5b506020830190509250929050565b8035801515811461240c575f80fd5b5f806040838503121561268e575f80fd5b612697836123f6565b91506125106020840161266e565b634e487b7160e01b5f52604160045260245ffd5b5f805f80608085870312156126cc575f80fd5b6126d5856123f6565b93506126e3602086016123f6565b925060408501359150606085013567ffffffffffffffff80821115612706575f80fd5b818701915087601f830112612719575f80fd5b81358181111561272b5761272b6126a5565b604051601f8201601f19908116603f01168101908382118183101715612753576127536126a5565b816040528281528a602084870101111561276b575f80fd5b826020860160208301375f60208483010152809550505050505092959194509250565b5f805f604084860312156127a0575f80fd5b6127a9846123f6565b9250602084013567ffffffffffffffff808211156127c5575f80fd5b818601915086601f8301126127d8575f80fd5b8135818111156127e6575f80fd5b8760208285010111156127f7575f80fd5b6020830194508093505050509250925092565b600181811c9082168061281e57607f821691505b60208210810361283c57634e487b7160e01b5f52602260045260245ffd5b50919050565b634e487b7160e01b5f52603260045260245ffd5b634e487b7160e01b5f52601160045260245ffd5b818103818111156107ae576107ae612856565b634e487b7160e01b5f52603160045260245ffd5b5f602082840312156128a1575f80fd5b6123ef8261266e565b5f600182016128bb576128bb612856565b5060010190565b5f602082840312156128d2575f80fd5b813560ff811681146123ef575f80fd5b80820281158282048414176107ae576107ae612856565b808201808211156107ae576107ae612856565b5f8261292657634e487b7160e01b5f52601260045260245ffd5b500490565b6020808252601690820152754f6e6c7920666163746f727920617574686f7269747960501b604082015260600190565b7f7b226e616d65223a2254686520576f726b696e6720417070204964656e74697481526279202360e81b60208201525f845161299e816023850160208901612451565b7f222c226465736372697074696f6e223a22536f756c626f756e64206964656e746023918401918201527f697479206361726420666f722054686520576f726b696e67204170702e222c0060438201526f1132bc3a32b93730b62fbab936111d1160811b60628201528451612a1a816072840160208901612451565b6e11161130ba3a3934b13aba32b9911d60891b607292909101918201528351612a4a816081840160208801612451565b607d60f81b6081929091019182015260820195945050505050565b7f646174613a6170706c69636174696f6e2f6a736f6e3b6261736536342c00000081525f8251612a9c81601d850160208701612451565b91909101601d0192915050565b818382375f9101908152919050565b601f821115610cf257805f5260205f20601f840160051c81016020851015612add5750805b601f840160051c820191505b818110156120fa575f8155600101612ae9565b67ffffffffffffffff831115612b1457612b146126a5565b612b2883612b22835461280a565b83612ab8565b5f601f841160018114612b59575f8515612b425750838201355b5f19600387901b1c1916600186901b1783556120fa565b5f83815260208120601f198716915b82811015612b885786850135825560209485019460019092019101612b68565b5086821015612ba4575f1960f88860031b161c19848701351681555b505060018560011b0183555050505050565b60208152816020820152818360408301375f818301604090810191909152601f909201601f19160101919050565b7f68747470733a2f2f6170692e746865776f726b696e676170702e696f2f76312f8152636e66742f60e01b60208201525f8251612c28816024850160208701612451565b682f6d6574616461746160b81b6024939091019283015250602d01919050565b605b60f81b81525f8551612c63816001850160208a01612451565b8083019050600b60fa1b8060018301528651612c86816002850160208b01612451565b600292019182018190528551612ca3816003850160208a01612451565b60039201918201528351612cbe816004840160208801612451565b605d60f81b600492909101918201526005019695505050505050565b7f7b2274726169745f74797065223a2248616e646c65222c2276616c7565223a2281525f60205f8454612d0c8161280a565b60018281168015612d245760018114612d3d57612d6a565b60ff198416888701528215158302880186019450612d6a565b885f52855f205f5b84811015612d605781548a8201890152908301908701612d45565b5050858389010194505b505061227d60f01b83525050600201949350505050565b7f7b2274726169745f74797065223a224b5943205665726966696564222c227661815265363ab2911d1160d11b60208201525f8251612dc7816026850160208701612451565b61227d60f01b6026939091019283015250602801919050565b7f7b2274726169745f74797065223a22436f6d6d756e69747920436f756e74222c81527f22646973706c61795f74797065223a226e756d626572222c2276616c7565223a60208201525f8251612e3d816040850160208701612451565b607d60f81b6040939091019283015250604101919050565b7f7b2274726169745f74797065223a2252657075746174696f6e2053636f72652281527f2c22646973706c61795f74797065223a226e756d626572222c2276616c7565226020820152601d60f91b60408201525f8251612ebc816041850160208701612451565b607d60f81b6041939091019283015250604201919050565b6001600160a01b03858116825284166020820152604081018390526080606082018190525f90612f0690830184612473565b9695505050505050565b5f60208284031215612f20575f80fd5b81516123ef816123bf56fea26469706673582212202a3e7c2d42c2a54879545895ac3d65dfe8d3f1edd98f8c1f46c7a26800112df764736f6c63430008180033","linkReferences":{}},"methodIdentifiers":{"addCommunityMembership(uint256,address,uint8)":"05c73a27","approve(address,uint256)":"095ea7b3","balanceOf(address)":"70a08231","disputeCount(uint256)":"94c9c878","getApproved(uint256)":"081812fc","getCommunityCount(uint256)":"0bc0ffa8","getMemberships(uint256)":"556697da","getReputationScore(uint256)":"bd5bcb0a","getTokenId(address)":"f1537686","handles(uint256)":"fdb265b0","isApprovedForAll(address,address)":"e985e9c5","isCommunityMember(uint256,address)":"e95a3905","isMember(uint256,address)":"7d9e10f5","isVerified(uint256)":"37b6d96b","isWalletMember(address,address)":"33c4c2fe","kycHashes(uint256)":"698e434b","kycOracle()":"c9c251d2","memberRoles(uint256,address)":"33b16450","mint(address,string)":"d0def521","name()":"06fdde03","owner()":"8da5cb5b","ownerOf(uint256)":"6352211e","platformFactory()":"9f0972c4","projectsAwarded(uint256)":"6b89dcad","projectsCompleted(uint256)":"2fa16c95","registerBountyContract(address)":"8717054d","registerCommunity(address)":"917bd62b","registerProjectContract(address)":"ddac53eb","registeredCommunities(address)":"588d43e7","registeredReputationContracts(address)":"e1e8bc43","removeCommunityMembership(uint256,address)":"22352489","renounceOwnership()":"715018a6","reputationScores(uint256)":"fc01c671","safeTransferFrom(address,address,uint256)":"42842e0e","safeTransferFrom(address,address,uint256,bytes)":"b88d4fde","setApprovalForAll(address,bool)":"a22cb465","setKYCHash(uint256,bytes32)":"46676a73","setKYCOracle(address)":"6bca5f18","supportsInterface(bytes4)":"01ffc9a7","symbol()":"95d89b41","tokenURI(uint256)":"c87b56dd","transferFrom(address,address,uint256)":"23b872dd","transferOwnership(address)":"f2fde38b","unregisterCommunity(address)":"7f7e0d36","unregisterReputationContract(address)":"cfcbab8f","updateReputation(uint256,(bool,bool,bool,uint8))":"7636b4b1","votesParticipated(uint256)":"da23ce7b","walletToTokenId(address)":"9c2806c7"},"id":53}